:020000040800F2
:100000000000052409870008A5870008A7870008C5
:10001000A9870008AB870008AD8700080000000032
:100020000000000000000000000000006136000831
:10003000AF8700080000000001370008A533000862
:100040005987000859870008598700085987000810
:100050005987000859870008598700085987000800
:1000600059870008598700085987000859870008F0
:1000700059870008598700085987000859870008E0
:1000800059870008598700085987000859870008D0
:1000900059870008598700085987000859870008C0
:1000A00059870008598700085987000859870008B0
:1000B00059870008598700085987000859870008A0
:1000C0005987000859870008598700085987000890
:1000D0005987000859870008598700085987000880
:1000E0005987000859870008000000005987000858
:1000F0005987000859870008598700085987000860
:10010000598700085987000859870008598700084F
:100110005987000859870008B91D00085987000849
:10012000598700085987000859870008598700082F
:10013000598700085987000859870008598700081F
:1001400000000000000000000000000000000000AF
:1001500059870008598700085987000859870008FF
:1001600059870008598700085987000859870008EF
:1001700059870008598700085987000800000000C7
:1001800059870008598700085987000859870008CF
:1001900059870008598700085987000859870008BF
:1001A0005987000859870008598700080000000097
:1001B000598700085987000859870008598700089F
:1001C000598700085987000800000000000000005F
:1001D0000000000000000000598700080000000037
:1001E000000000000000000000000000000000000F
:1001F000000000000000000059870008598700082F
:100200005987000859870008000000005987000836
:10021000598700085987000859870008598700083E
:1002200059870008000000005987000800000000FE
:100230005987000859870008000000005987000806
:10024000598700085987000859870008598700080E
:1002500059870008598700085987000859870008FE
:1002600059870008598700085987000859870008EE
:1002700059870008598700085987000800000000C6
:1002800059870008598700085987000859870008CE
:10029000000000005987000859870008000000008E
:1002A0000000000059870008598700085987000896
:1002B000598700085987000859870008598700089E
:0C02C0005987000859870008598700087A
:1002D00010B5054C237833B9044B13B10448AFF380
:1002E00000800123237010BD3802002400000000AC
:1002F000A4C9000808B5034B1BB103490348AFF379
:10030000008008BD000000003C020024A4C90008D1
:1003100081F0004102E000BF83F0004330B54FEAB6
:1003200041044FEA430594EA050F08BF90EA020F23
:100330001FBF54EA000C55EA020C7FEA645C7FEAB6
:10034000655C00F0E2804FEA5454D4EB5555B8BFD9
:100350006D420CDD2C4480EA020281EA030382EA4A
:10036000000083EA010180EA020281EA0303362DDC
:1003700088BF30BD11F0004F4FEA01314FF4801CAF
:100380004CEA113102D0404261EB410113F0004FC1
:100390004FEA03334CEA133302D0524263EB430378
:1003A00094EA050F00F0A780A4F10104D5F1200E16
:1003B0000DDB02FA0EFC22FA05F2801841F1000171
:1003C00003FA0EF2801843FA05F359410EE0A5F145
:1003D00020050EF1200E012A03FA0EFC28BF4CF076
:1003E000020C43FA05F3C01851EBE37101F000452C
:1003F00007D54FF0000EDCF1000C7EEB00006EEB39
:100400000101B1F5801F1BD3B1F5001F0CD34908C2
:100410005FEA30004FEA3C0C04F101044FEA445219
:1004200012F5800F80F09A80BCF1004F08BF5FEAA0
:10043000500C50F1000041EB045141EA050130BD80
:100440005FEA4C0C404141EB0101013C28BFB1F592
:10045000801FE9D291F0000F04BF01460020B1FADD
:1004600081F308BF2033A3F10B03B3F120020CDAB0
:100470000C3208DD02F1140CC2F10C0201FA0CF08E
:1004800021FA02F10CE002F11402D8BFC2F1200CF3
:1004900001FA02F120FA0CFCDCBF41EA0C019040A9
:1004A000E41AA2BF01EB0451294330BD6FEA0404F2
:1004B0001F3C1CDA0C340EDC04F11404C4F12002DD
:1004C00020FA04F001FA02F340EA030021FA04F3EF
:1004D00045EA030130BDC4F10C04C4F1200220FA46
:1004E00002F001FA04F340EA0300294630BD21FA84
:1004F00004F0294630BD94F0000F83F4801306BF4A
:1005000081F480110134013D4EE77FEA645C18BF3D
:100510007FEA655C29D094EA050F08BF90EA020FD4
:1005200005D054EA000C04BF1946104630BD91EACC
:10053000030F1EBF0021002030BD5FEA545C05D1CF
:100540004000494128BF41F0004130BD14F580040E
:100550003CBF01F5801130BD01F0004545F0FE4182
:1005600041F470014FF0000030BD7FEA645C1ABFB7
:10057000194610467FEA655C1CBF0B46024650EAEE
:10058000013406BF52EA033591EA030F41F400211A
:1005900030BD00BF90F0000F04BF0021704730B5A0
:1005A0004FF4806404F132044FF000054FF0000175
:1005B00050E700BF90F0000F04BF0021704730B536
:1005C0004FF4806404F1320410F0004548BF40420B
:1005D0004FF000013EE700BF42004FEAE2014FEA60
:1005E00031014FEA02701FBF12F07F4393F07F4F3B
:1005F00081F06051704732F07F4208BF704793F03E
:100600007F4F04BF41F40021704730B54FF4607450
:1006100001F0004521F000411CE700BF50EA010253
:1006200008BF704730B54FF000050AE050EA0102FC
:1006300008BF704730B511F0004502D5404261EB6C
:1006400041014FF4806404F132045FEA915C3FF4AD
:10065000D8AE4FF003025FEADC0C18BF03325FEA4A
:10066000DC0C18BF033202EBDC02C2F1200300FAFB
:1006700003FC20FA02F001FA03FE40EA0E0021FA20
:1006800002F11444BDE600BF70B54FF0FF0C4CF40E
:10069000E06C1CEA11541DBF1CEA135594EA0C0FC0
:1006A00095EA0C0F00F0DEF82C4481EA030621EAFB
:1006B0004C5123EA4C5350EA013518BF52EA033536
:1006C00041F4801143F4801338D0A0FB02CE4FF0E8
:1006D0000005E1FB02E506F00042E0FB03E54FF018
:1006E0000006E1FB03569CF0000F18BF4EF0010E10
:1006F000A4F1FF04B6F5007F64F5407404D25FEA0C
:100700004E0E6D4146EB060642EAC62141EA5551BE
:100710004FEAC52040EA5E504FEACE2EB4F1FD0C00
:1007200088BFBCF5E06F1ED8BEF1004F08BF5FEA7E
:10073000500E50F1000041EB045170BD06F0004630
:1007400046EA010140EA020081EA0301B4EB5C04DD
:10075000C2BFD4EB0C0541EA045170BD41F48011D5
:100760004FF0000E013C00F3AB8014F1360FDEBFFA
:10077000002001F0004170BDC4F10004203C35DAD6
:100780000C341BDC04F11404C4F1200500FA05F359
:1007900020FA04F001FA05F240EA020001F00042FA
:1007A00021F0004110EBD37021FA04F642EB060170
:1007B0005EEA430E08BF20EAD37070BDC4F10C049A
:1007C000C4F1200500FA04F320FA05F001FA04F25E
:1007D00040EA020001F0004110EBD37041F100014A
:1007E0005EEA430E08BF20EAD37070BDC4F1200555
:1007F00000FA05F24EEA020E20FA04F301FA05F2BD
:1008000043EA020321FA04F001F0004121FA04F264
:1008100020EA020000EBD3705EEA430E08BF20EA34
:10082000D37070BD94F0000F0FD101F0004640006E
:1008300041EB010111F4801F08BF013CF7D041EAF0
:10084000060195F0000F18BF704703F000465200F4
:1008500043EB030313F4801F08BF013DF7D043EAC5
:100860000603704794EA0C0F0CEA135518BF95EA7B
:100870000C0F0CD050EA410618BF52EA4306D1D102
:1008800081EA030101F000414FF0000070BD50EA21
:10089000410606BF1046194652EA430619D094EAAB
:1008A0000C0F02D150EA013613D195EA0C0F05D195
:1008B00052EA03361CBF104619460AD181EA0301E9
:1008C00001F0004141F0FE4141F470014FF00000A1
:1008D00070BD41F0FE4141F4780170BD70B54FF03C
:1008E000FF0C4CF4E06C1CEA11541DBF1CEA1355BC
:1008F00094EA0C0F95EA0C0F00F0A7F8A4EB05049E
:1009000081EA030E52EA03354FEA013100F0888094
:100910004FEA03334FF0805545EA131343EA12635D
:100920004FEA022245EA111545EA10654FEA002612
:100930000EF000419D4208BF964244F1FD0404F5CB
:10094000407402D25B084FEA3202B61A65EB030527
:100950005B084FEA32024FF480104FF4002CB6EBE4
:10096000020E75EB030E22BFB61A754640EA0C0064
:100970005B084FEA3202B6EB020E75EB030E22BFA4
:10098000B61A754640EA5C005B084FEA3202B6EBE5
:10099000020E75EB030E22BFB61A754640EA9C00A4
:1009A0005B084FEA3202B6EB020E75EB030E22BF74
:1009B000B61A754640EADC0055EA060E18D04FEA32
:1009C000051545EA16754FEA06164FEAC30343EAD2
:1009D00052734FEAC2025FEA1C1CC0D111F4801F9F
:1009E0000BD141EA00014FF000004FF0004CB6E798
:1009F00011F4801F04BF01430020B4F1FD0C88BF37
:100A0000BCF5E06F3FF6AFAEB5EB030C04BFB6EB41
:100A1000020C5FEA500C50F1000041EB045170BD34
:100A20000EF0004E4EEA113114EB5C04C2BFD4EB61
:100A30000C0541EA045170BD41F480114FF0000EE5
:100A4000013C90E645EA060E8DE60CEA135594EA61
:100A50000C0F08BF95EA0C0F3FF43BAF94EA0C0F64
:100A60000AD150EA01347FF434AF95EA0C0F7FF4D9
:100A700025AF104619462CE795EA0C0F06D152EA2D
:100A800003353FF4FDAE1046194622E750EA410611
:100A900018BF52EA43067FF4C5AE50EA41047FF422
:100AA0000DAF52EA43057FF4EBAE12E74FF0FF3C87
:100AB00006E000BF4FF0010C02E000BF4FF0010C58
:100AC0004DF804CD4FEA410C7FEA6C5C4FEA430CD1
:100AD00018BF7FEA6C5C1BD001B050EA410C0CBF20
:100AE00052EA430C91EA030F02BF90EA020F002082
:100AF000704710F1000F91EA030F58BF994208BFE9
:100B000090422CBFD8176FEAE37040F001007047A5
:100B10004FEA410C7FEA6C5C02D150EA013C07D1FC
:100B20004FEA430C7FEA6C5CD6D152EA033CD3D047
:100B30005DF8040B704700BF8446104662468C4641
:100B40001946634600E000BF01B5FFF7B7FF002874
:100B500048BF10F1000F01BD4DF808EDFFF7F4FF9D
:100B60000CBF012000205DF808FB00BF4DF808ED28
:100B7000FFF7EAFF34BF012000205DF808FB00BF4B
:100B80004DF808EDFFF7E0FF94BF012000205DF86D
:100B900008FB00BF4DF808EDFFF7CEFF94BF012022
:100BA00000205DF808FB00BF4DF808EDFFF7C4FF1B
:100BB00034BF012000205DF808FB00BF4FEA41026E
:100BC00012F5001215D211D56FF47873B3EB62529F
:100BD00012D94FEAC12343F0004343EA505311F0C6
:100BE000004F23FA02F018BF404270474FF0000058
:100BF000704750EA013005D111F0004008BF6FF096
:100C0000004070474FF00000704700BF53B94AB929
:100C1000002908BF00281CBF4FF0FF314FF0FF3004
:100C200000F074B9ADF1080C6DE904CE00F006F8DF
:100C3000DDF804E0DDE9022304B070472DE9F04758
:100C4000089D04468E46002B4DD18A42944669D9B0
:100C5000B2FA82F252B101FA02F3C2F1200120FA93
:100C600001F10CFA02FC41EA030E94404FEA1C48E1
:100C7000210CBEFBF8F61FFA8CF708FB16E341EADD
:100C8000034306FB07F199420AD91CEB030306F163
:100C9000FF3080F01F81994240F21C81023E634484
:100CA0005B1AA4B2B3FBF8F008FB103344EA034428
:100CB00000FB07F7A7420AD91CEB040400F1FF333D
:100CC00080F00A81A74240F207816444023840EA7A
:100CD0000640E41B00261DB1D4400023C5E90043B3
:100CE0003146BDE8F0878B4209D9002D00F0EF8036
:100CF0000026C5E9000130463146BDE8F087B3FA69
:100D000083F6002E4AD18B4202D3824200F2F98050
:100D1000841A61EB030301209E46002DE0D0C5E953
:100D2000004EDDE702B9FFDEB2FA82F2002A40F09F
:100D30009280A1EB0C014FEA1C471FFA8CFE0126A2
:100D4000200CB1FBF7F307FB131140EA01410EFB46
:100D500003F0884208D91CEB010103F1FF3802D2ED
:100D6000884200F2CB804346091AA4B2B1FBF7F0E7
:100D700007FB101144EA01440EFB00FEA64508D90A
:100D80001CEB040400F1FF3102D2A64500F2BB8047
:100D90000846A4EB0E0440EA03409CE7C6F1200796
:100DA000B34022FA07FC4CEA030C20FA07F401FADC
:100DB00006F31C43F9404FEA1C4900FA06F3B1FB65
:100DC000F9F8200C1FFA8CFE09FB181140EA0141CA
:100DD00008FB0EF0884202FA06F20BD91CEB010167
:100DE00008F1FF3A80F08880884240F28580A8F1BF
:100DF00002086144091AA4B2B1FBF9F009FB101111
:100E000044EA014100FB0EFE8E4508D91CEB0101AE
:100E100000F1FF346CD28E456AD90238614440EA51
:100E20000840A0FB0294A1EB0E01A142C846A646D1
:100E300056D353D05DB1B3EB080261EB0E0101FA5A
:100E400007F722FA06F3F1401F43C5E900710026B7
:100E50003146BDE8F087C2F12003D8400CFA02FC0D
:100E600021FA03F3914001434FEA1C471FFA8CFE1D
:100E7000B3FBF7F007FB10360B0C43EA064300FB0D
:100E80000EF69E4204FA02F408D91CEB030300F1AB
:100E9000FF382FD29E422DD9023863449B1B89B262
:100EA000B3FBF7F607FB163341EA034106FB0EF3EB
:100EB0008B4208D91CEB010106F1FF3816D28B4298
:100EC00014D9023E6144C91A46EA004638E72E4664
:100ED000284605E70646E3E61846F8E64B45A9D25C
:100EE000B9EB020864EB0C0E0138A3E74646EAE7CB
:100EF000204694E74046D1E7D0467BE7023B614479
:100F000032E7304609E76444023842E7704700BFE1
:100F1000034613F8012B002AFBD1181A0138704739
:100F200001F0FF01102A2BDB10F0070F08D010F89A
:100F3000013B013A8B422DD010F0070F42B3F6D19E
:100F4000F0B441EA012141EA014122F007047FF0B7
:100F500000070023F0E80256083C85EA010586EA0E
:100F6000010685FA47F5A3FA87F586FA47F6A5FA4A
:100F700087F68EB9EED1F0BC01F0FF0102F0070256
:100F800032B110F8013B013A83EA010313B1F8D101
:100F90000020704701387047002D06BF35460338E2
:100FA000073815F0010F07D1013015F4807F02BF1B
:100FB000013015F4C03F0130F0BC0138704700BF6C
:100FC0004FEA410C7FEA6C5C02D150EA013C0AD145
:100FD0004FEA430C7FEA6C5C02D152EA033C02D137
:100FE0004FF0000070474FF00100704708B5012036
:100FF00002F071FAFBE7000008B58021034804F015
:101000001FFB41F2883002F066FAF6E7001802583A
:1010100008B50A4C21460A4804F0B6F92168094887
:1010200008F0B6F903F090FB0146074808F0B0F964
:101030004FF47A7002F04FFAEBE700BF6002002431
:10104000080B0024C0C90008D8C9000800B591B039
:10105000002400943C22214601A807F047FC02200E
:1010600000F0D2F9144800F07FFA204600F0BAF9F7
:101070006FF07F4000F0A4F900248DF800400F4B82
:101080001A680F49684608F08BFA6A4646210A201A
:1010900000F00EFB8DF8004003F056FB02460949B4
:1010A000684608F07DFA6A4664210A2000F000FBD9
:1010B0000A2002F010FADFE73C000024600200245E
:1010C000E4C90008F0C9000808B50E4A00210E481E
:1010D00002F0A2F90D4B18600D4A00210D4802F0F4
:1010E0009BF90D4B18600D4A00210D4802F094F950
:1010F0000C4B18600C4A00210C4802F08DF90C4B87
:10110000186008BD30CA0008ED0F00085402002422
:1011100054CA0008F90F0008580200249CCA0008AD
:10112000111000086402002478CA00084D1000085D
:101130005C02002408B51448144B03604FF480038C
:1011400043604FF4C02383600723C360002303611F
:1011500043614FF000528261C36103624362836264
:10116000C362436383632022C26303644364836472
:10117000C36403654365836506F0F0F800B908BDF4
:1011800000F03AFDFBE700BF800A0024001400587D
:1011900070B5B8B004460021339134913591369141
:1011A0003791B82204A807F0A1FB2268344B9A4279
:1011B00001D038B070BD4FF480420023CDE9042344
:1011C00004A805F027F9002856D12E4BD3F8F420B7
:1011D00042F02002C3F8F420D3F8F42002F02002F9
:1011E0000092009AD3F8E02042F04002C3F8E020D9
:1011F000D3F8E02002F040020192019AD3F8E020F7
:1012000042F04002C3F8E020D3F8E02002F04002B0
:101210000292029AD3F8E02042F04002C3F8E020A4
:10122000D3F8E03003F040030393039B4FF4C24331
:1012300033930223349300243594032336930523F8
:101240003793114D33A9284604F0EAF84FF4805340
:101250003393012634963594369433A9284604F006
:10126000DFF84FF40043339334963594369433A922
:10127000284604F0D5F89CE700F0BEFCA5E700BFC7
:1012800000140058004402580018025800B583B0FA
:101290008DF8070000224FF40041074804F0CAF916
:1012A0004FF47A7301220DF10701044806F01EF98C
:1012B00003B05DF804FB00BF00180258800A002448
:1012C00000B583B08DF8070001224FF400410748B4
:1012D00004F0B0F94FF47A7301220DF107010448CC
:1012E00006F004F903B05DF804FB00BF00180258D3
:1012F000800A002410B582B0044601224FF4004158
:10130000084804F097F9230A8DF804308DF8054059
:101310004FF47A73022201A9034806F0E7F802B0FD
:1013200010BD00BF00180258800A002470B50546A1
:101330000E4601224FF400410A4804F07BF90A4CA2
:101340000F23E360204606F009F84FF47A73324623
:101350002946204606F0CAF80723E360204605F038
:10136000FDFF70BD00180258800A00242DE9F041ED
:1013700080460E4617461D462A20FFF787FF0F4C72
:10138000A37B03EB080080B2FFF7B4FFA07B3844D7
:1013900080B2FFF7AFFF2B20FFF778FFE07B3044F0
:1013A00080B2FFF7A7FFE07B284480B2FFF7A2FFDF
:1013B0002C20FFF76BFFBDE8F08100BF680200241E
:1013C000C0F30F2303F47843C0F34F1202F4FC621E
:1013D000C0F3C40013431843014B1860704700BFAB
:1013E00068020024C0F30F2303F47843C0F34F12C4
:1013F00002F4FC62C0F3C40013431843014B58606D
:10140000704700BF6802002408B5274B587230B1FE
:10141000022815D0012824D0032833D008BD362057
:10142000FFF734FF7020FFF74BFF1F4B14229A7316
:101430000022DA734FF48C725A81F0229A81EDE720
:101440003620FFF723FF0020FFF73AFF164B00225C
:101450009A731422DA73F0225A814FF48C729A81B3
:10146000DCE73620FFF712FFA020FFF729FF0E4B25
:1014700014229A730022DA734FF48C725A81F0228C
:101480009A81CBE73620FFF701FFC020FFF718FF56
:10149000054B00229A731422DA73F0225A814FF41A
:1014A0008C729A81BAE700BF68020024014B186071
:1014B000704700BF780200242DE9F0418846A2F170
:1014C0002007FFB200239E461E4621E0234A5168B2
:1014D000234A22F81E1064080EF1010E1FFA8EFE38
:1014E00001339BB2AA889A420FD00CF1010C1FFA6B
:1014F0008CFCBCF1070F09D814F0010FE6D0174A95
:101500001168174A22F81E10E5E700230136B6B22B
:10151000144A15682C89B44206D92A6804FB07646A
:10152000145D4FF0000CE4E7AA88024492B2EB8805
:1015300043449BB2013B013A9BB292B24146FFF752
:1015400015FF084B1B689988DB8811FB03F189B2F2
:101550000348FFF7EBFEBDE8F08100BF68020024FE
:101560007C02002478020024134B186083880C3B13
:10157000142B1FD8DFE803F00B1E1E1E0F1E1E1EAD
:10158000131E1E1E171E1E1E1E1E1E1E1B000B4B94
:101590000B4A1A607047094B0A4A1A607047074B9A
:1015A000094A1A607047054B084A1A607047034B96
:1015B000074A1A60704700BF7C0A002478020024A2
:1015C000000000240C000024180000242400002443
:1015D000300000242DE9F84380468946002604E0C7
:1015E0000236B6B26B89B34210D92E4B1D682C68F7
:1015F0002B8906FB033314F803C01778BC45EFD1E1
:101600000133E45C53789C42EAD100E000260023D9
:101610001F461A4620E024494868244921F8120050
:10162000013292B2640801339BB2B5F804C09C4504
:101630000FD00EF1010E1FFA8EFEBEF1070F09D872
:1016400014F0010FE7D018490868184921F8120072
:10165000E6E700230137BFB2B5F808C0BC4507D99B
:101660002C680CFB067C14F80C404FF0000EE4E7ED
:10167000AA88424492B2EB884B449BB2013B013AA8
:101680009BB292B249464046FFF770FE054B1B687D
:101690009988DB8811FB03F189B20448FFF746FE05
:1016A000BDE8F8837C0A0024680200247C02002440
:1016B00070B505460E46144609E031462846FFF748
:1016C000FBFE0C4B1B6898880544ADB201342278B0
:1016D00072B112F0800FF0D0224631462846FFF753
:1016E00079FF054B1B6898880544ADB20234EEE7DC
:1016F00070BD00BF780200247C0A0024014B1872E0
:10170000704700BF680200242DE9F04107460E46ED
:1017100015469846069C00E0C4B13B685B6936EA12
:1017200003030CBF4FF0010C4FF0000CAC450AD185
:1017300003F01EFDA0EB0800A042EDD3B4F1FF3F83
:10174000EAD0032000E00020BDE8F0810320FBE7A1
:1017500010B402685369916941F008019161016810
:101760008A6942F010028A6101680A6822F0010267
:101770000A6001680C69294A22400A6101688A6886
:1017800022F440428A6090F88120D2B2042A0DD01F
:1017900013F0200F0AD0D0F8842042F08002C0F865
:1017A000842001688A6942F020028A6190F88120D1
:1017B000D2B2032A0DD013F0400F0AD0D0F8842003
:1017C00042F00402C0F8842001688A6942F04002B5
:1017D0008A6113F4007F0AD0D0F8842042F001021D
:1017E000C0F8842001688A6942F400728A6113F4A7
:1017F000807F0AD0D0F8843043F00803C0F88430EA
:101800000268936943F4807393610023A0F8623007
:10181000A0F86A305DF8044B704700BF90FCFFFFF2
:101820002DE9F04383B090F88030012B00F0AE80BA
:1018300004460E461546012380F8803003F098FCDC
:10184000804694F88170FFB2012F27D175B303232E
:1018500084F881300023C4F8843046EA0649636680
:10186000A4F86830A4F86A3063672367A368B3F507
:10187000C02F1FD022685168454B0B40536022682F
:10188000136843F0010313606368B3F5800F19D147
:101890002268136843F40073136013E0002384F894
:1018A00080300227384603B0BDE8F083002384F877
:1018B0008030F7E72268136843F400631360D9E7C8
:1018C0001E84013D3DB323685A6912F0020F0BD00C
:1018D000B4F8622092B2012AF2D9E26B002AEFD06A
:1018E000C3F82090023DEDE703F042FCA0EB0800B6
:1018F000B0F57A7FE6D32046FFF72AFF002384F86D
:101900008030D4F8843043F48073C4F884300123E9
:1019100084F88130C6E74FF47A730093434600227F
:101920004FF480512046FFF7EFFE28B1D4F8843001
:1019300043F02003C4F884302268136843F48063C2
:1019400013604FF47A730093434600224FF4006112
:101950002046FFF7D9FE28B1D4F8843043F02003A5
:10196000C4F884302046FFF7F3FE2268936943F4FD
:1019700000639361002384F88030012384F8813070
:10198000D4F88430002B8DD100278BE7022789E71C
:101990000000FFFF38B5124D6A89AB89013B013A5F
:1019A0009BB292B200210846FFF7E0FC01224FF4FF
:1019B00000410C4803F03EFE0B4C0F23E360204631
:1019C00005F0CCFC6B89AA8903FB02F2A9882046AA
:1019D000FFF726FF0723E360204605F0BFFC38BD74
:1019E0006802002400180258800A002408B5FFF796
:1019F000A1FB0A2003F0C2FB3620FFF747FC0020C2
:101A0000FFF75EFC3A20FFF741FC0520FFF758FC8A
:101A1000B220FFF73BFC0C20FFF752FC0C20FFF735
:101A20004FFC0020FFF74CFC3320FFF749FC33202C
:101A3000FFF746FCB720FFF729FC3520FFF740FCF5
:101A4000BB20FFF723FC1920FFF73AFCC020FFF76B
:101A50001DFC2C20FFF734FCC220FFF717FC0120EF
:101A6000FFF72EFCC320FFF711FC1220FFF728FC24
:101A7000C420FFF70BFC2020FFF722FCC620FFF755
:101A800005FC0F20FFF71CFCD020FFF7FFFBA42074
:101A9000FFF716FCA120FFF713FCE020FFF7F6FB91
:101AA000D020FFF70DFC0420FFF70AFC0D20FFF704
:101AB00007FC1120FFF704FC1320FFF701FC2B208B
:101AC000FFF7FEFB3F20FFF7FBFB5420FFF7F8FB7F
:101AD0004C20FFF7F5FB1820FFF7F2FB0D20FFF776
:101AE000EFFB0B20FFF7ECFB1F20FFF7E9FB2320A8
:101AF000FFF7E6FBE120FFF7C9FBD020FFF7E0FB93
:101B00000420FFF7DDFB0C20FFF7DAFB1120FFF7C5
:101B1000D7FB1320FFF7D4FB2C20FFF7D1FB3F208E
:101B2000FFF7CEFB4420FFF7CBFB5120FFF7C8FBAC
:101B30002F20FFF7C5FB1F20FFF7C2FB1F20FFF779
:101B4000BFFB2020FFF7BCFB2320FFF7B9FB2120C0
:101B5000FFF79CFB1120FFF799FB782003F00EFBA9
:101B60002920FFF793FB0220FFF74EFC0020FFF730
:101B700039FC6FF07F40FFF723FCFFF70BFF0648AF
:101B8000FFF794FC0020FFF7B9FD01224FF48051CC
:101B9000024803F04FFD08BD24000024001802583D
:101BA00030B587B000240194029403940494059402
:101BB0000F4BD3F8E02042F04002C3F8E020D3F806
:101BC000E03003F040030093009B0A4D2246802141
:101BD000284603F02FFD80230193012302930394F1
:101BE000049401A9284603F01BFC07B030BD00BFD8
:101BF000004402580018025872B6FEE700B59DB0C6
:101C00004C22002109A806F071FE2022002101A823
:101C100006F06CFE022003F01DFD00230093214B13
:101C20009A6922F440429A619B6903F4404300930D
:101C3000009B1C4B9B6913F4005FFAD002230993AD
:101C400001210C9140220D92129300221392042044
:101C50001490222015901691179318930C23199322
:101C60001A924FF440631B9309A803F01DFDA8B915
:101C70003F2301930321029100230393082304933C
:101C80004023059306934FF480620792089301A8BE
:101C900004F0FAF820B91DB05DF804FBFFF7ACFFC3
:101CA000FFF7AAFF0048025808B50A480A4B03602C
:101CB000002343608360C3604FF48032026143615C
:101CC0008361C36103F0C4FA00B908BDFFF794FF54
:101CD000FBE700BF080B00240068005802680A4BAD
:101CE0009A4200D0704782B003F5EE33D3F8F42067
:101CF00042F08062C3F8F420D3F8F43003F080633C
:101D00000193019B02B070470068005830B58BB05A
:101D10000446224BD3F8E82042F01002C3F8E82032
:101D2000D3F8E83003F010030093009B01A902A848
:101D300004F03AFA079BC3B904F012FA03461848B4
:101D4000A0FB03239B0C013B1648174A026040F29C
:101D5000E732C260436000230361836005F0CCFE7C
:101D6000054630B128460BB030BD04F0F9F9430008
:101D7000E5E70C4805F01EFD05460028F2D13620A7
:101D800003F058FA0F2C01D90125EBE70022214678
:101D9000362003F019FA054B1C60E3E700440258B3
:101DA00083DE1B432C0B002400100040580000244D
:101DB00008B503F0D1F908BD08B5024805F04EFD9D
:101DC00008BD00BF2C0B0024844610B121B300B520
:101DD0000DE0401A18BF0120704702F1200E0FE0FD
:101DE0002030864514D1CAB10CF1010C01319CF8A8
:101DF00000200B4BD35C03F00303012BEDD0964680
:101E00000878074BC35C03F00303012BE9D1E7E734
:101E1000AEEB00005DF804FB012070470020F9E7FD
:101E2000591F0108013840EA600040EAA00040EA7A
:101E3000201040EA202040EA20400130704703781B
:101E4000A3F13002D2B2092A1DD8303B1A014378DF
:101E5000A3F13001C9B2092923D81344303B1B0137
:101E60008278A2F13001C9B209292AD81344303B43
:101E70001B01C078A0F13002D2B2092A31D8034444
:101E8000A3F130007047A3F14102D2B2052A01D874
:101E9000373BDBE7A3F16102D2B2052A33D8573BC7
:101EA000D4E7A3F14101C9B2052902D81344373B55
:101EB000D5E7A3F16101C9B2052926D81344573BE0
:101EC000CDE7A2F14101C9B2052902D81344373B3D
:101ED000CEE7A2F16101C9B2052918D81344573BD6
:101EE000C6E7A0F14102D2B2052A03D80344A3F108
:101EF00037007047A0F16102D2B2052A09D8034425
:101F0000A3F1570070470020704700207047002061
:101F100070470020704700002DE9F0410C4614F88E
:101F2000013B222B03D105462246002004E06B4BE7
:101F300019600024CAE062461378222B18BF002BD8
:101F400008D0013006D002F1010C5C2BF3D102F174
:101F5000020CF0E7624B1B680130984707460028E7
:101F600000F0B980064618E0611C6078A0F16203B9
:101F7000132B00F29E80DFE803F00A9C9C9C1E9CC1
:101F80009C9C9C9C9C9C249C9C9C2A9C303632460D
:101F9000082302F8013B16464C1C2378222B18BF5D
:101FA000002B00F08B805C2BDED00134324602F82F
:101FB000013B1646F1E732460C2302F8013B164678
:101FC000EAE732460A2302F8013B1646E4E73246C6
:101FD0000D2302F8013B1646DEE73246092302F8DC
:101FE000013B1646D8E7A01CFFF729FF8046611D7C
:101FF000A0F55C42B0FA80F35B09B2F5806F38BFA0
:1020000043F00103002BC7D1A0F55843B3F5806F0F
:1020100019D2A3795C2BBFD1E379752BBCD104F124
:102020000800FFF70CFF04F10B01A0F55C42B2F5CC
:10203000806FB1D22B4A02EA8828C0F3090348EA2C
:10204000030303F58038B8F17F0F0AD8741C012010
:10205000254B1B5C621E43EA080804F8018C161825
:102060009AE7B8F5006F18D3B8F5803F0BD2F31C90
:1020700003205A1E08F03F0444F0800403F8014C8A
:102080004FEA98180BE0F31C08F03F0242F0800280
:10209000F2704FEA98180420EBE7B21C0220541E9D
:1020A00008F03F0343F0800302F8013C4FEA981820
:1020B000CEE7324602F8010B16466DE70023337077
:1020C0002378222B05D02F610423EB602046BDE846
:1020D000F0810134F7E70446F8E700BF780B0024ED
:1020E0004C00002400FC0F00B41E010800E0013089
:1020F00018B103780BB1202BF9D9704710B5064BF6
:102100001B6828209847044618B12822002106F0B1
:10211000EDFB204610BD00BF4C0000240000000075
:102120002DE9F04F83B082460C460B782D2B3FD023
:102130009FED637B8DED007B2378302B3ED02378A1
:10214000313BDBB2082B3BD8002600270022624B34
:1021500030463946FEF798FA06460F462078303862
:10216000FEF728FA02460B4630463946FEF7D6F807
:1021700006460F4614F8013F303BDBB2092BE5D988
:1021800023782E2B1FD04FF000084FF00009237842
:10219000452B18BF652B40F08C80621C63782B2B7D
:1021A00048D02D2B4AD014464FF0010B00254FE0AC
:1021B00001349FED457B8DED007BBDE70134BEE72B
:1021C00000260027DCE763782F2B29D9392B2CD860
:1021D00001344FF000084FF0000900223E4B30461A
:1021E0003946FEF751FA06460F4620783038FEF79A
:1021F000E1F902460B4630463946FEF78FF80646AF
:102200000F460022354B40464946FEF785F880468A
:10221000894614F8013F303BDBB2092BDDD9B6E724
:102220004FF000084FF00009B1E74FF000084FF001
:102230000009ACE702344FF0010BB7E702344FF06E
:10224000FF3BB3E705EB85050134303B03EB450568
:102250002378A3F13002D2B2092AF3D9DDE90023B1
:1022600030463946FEF710FA06460F460BFB05F0DE
:10227000FEF7A0F942464B46FEF750F841EC110B31
:102280009FED130B09F0B0FB53EC102B3046394691
:10229000FEF7FAF902460B46CAE90623FEF78EFC62
:1022A000CAF814000323CAF80C30204603B0BDE876
:1022B000F08F4FF0010B0025D0E700BFAFF3008097
:1022C000000000000000F03F000000000000F0BF30
:1022D0000000000000002440000024400000F03F07
:1022E00038B50C46002945D005460422224920462F
:1022F00007F08BF9E8B105222049204607F085F95F
:10230000D8B104221E49204607F07FF9C8B12378CE
:10231000222B1BD0A3F13002D2B22D2B18BF092AD9
:1023200019D95B2B1CD07B2B1FD0164B1C600020B7
:1023300002E00223EB60201D38BD0023EB60601D2E
:10234000FAE70123EB606B61201DF5E72146284683
:10235000FFF7E2FDF0E721462846FFF7E1FEEBE755
:102360002146284600F010F8E6E72146284600F00E
:1023700057F8E1E70846DFE76C1E0108741E010804
:102380007C1E0108780B002470B50B785B2B2FD1D5
:1023900006460523C360481CFFF7A8FE04460378E1
:1023A0005D2B2AD0FFF7AAFE0546B06078B3204621
:1023B000FFF79CFE01462846FFF792FFFFF796FEC7
:1023C000064630B333782C2B19D1FFF797FE04461D
:1023D00088B128604560701CFFF788FE01462046E2
:1023E000FFF77EFFFFF782FE0646A0B12546E9E72C
:1023F0000A4B19600024204670BD0134FBE75D2BB9
:1024000003D0064B1E600024F5E7741CF3E7044676
:10241000F1E70446EFE70446EDE700BF780B002440
:1024200070B50B787B2B56D105460623C360481C3C
:10243000FFF75CFE064603787D2B51D0FFF75EFE6A
:102440000446A860002849D03046FFF74FFE0146F9
:102450002046FFF761FDFFF749FE002852D02269B0
:1024600022620022226102783A2A3BD10130FFF732
:102470003DFE01462046FFF733FFFFF737FE0646D5
:10248000002841D033782C2B34D1FFF737FE054696
:1024900000283BD020604460701CFFF727FE0146F7
:1024A0002846FFF739FDFFF721FE0446B0B12B693E
:1024B0002B6200232B6103783A2B17D10130FFF7F1
:1024C00015FE01462846FFF70BFFFFF70FFE0646F5
:1024D000F0B12C46D6E70F4B19600024204670BDA2
:1024E000441CFBE70B4A10600024F7E7094B186017
:1024F0000024F3E77D2B03D0064B1E600024EDE79C
:10250000741CEBE70446E9E70446E7E70446E5E721
:102510000446E3E7780B002470B5044630B3056841
:10252000C5B1836858186268824215DAFFF77AFCF1
:1025300006460F4B1B689847054678B162682168CC
:1025400006F0C6F90B4B1B6820689847666025604B
:10255000A3681D44284670BD1D44FBE7054B1B685E
:1025600020689847002363602360F3E70546F1E79E
:102570004C0000244800002470B50546FEF7C8FC56
:10258000441C064B1B6820469847064618B1224655
:10259000294606F09DF9304670BD00BF4C0000246E
:1025A00048B10346006840B110B59C682044FEF76E
:1025B000AFFC204410BD0020704700207047000091
:1025C0002DE9F84305460C46D0E9066700220023B2
:1025D00030463946FEF7C0FA90B15CB10221204680
:1025E000FFF79AFF044614B14F4B1B882380204607
:1025F000BDE8F8834D4B1B68022098470446F2E77C
:102600006869FDF7D7FF32463B46FDF785FE21F0AE
:1026100000410022464BFEF7B3FA10B33AA3D3E9C8
:10262000002330463946FEF7ABFAD0B10022414BC9
:1026300030463946FEF7AEFA98B164B1152120460E
:10264000FFF76AFF0446002CD1D06A693A49204658
:1026500006F0A6FFCBE7354B1B68152098470446CC
:10266000F1E7002C39D040212046FFF755FF044602
:10267000002CBCD047EC106B09F032F951EC100B78
:1026800032463B46FDF748FE21F000410022284B30
:10269000FEF776FA40B1304627F000411CA3D3E99B
:1026A0000023FEF763FAF0B927F000491AA3D3E933
:1026B000002330464946FEF759FA38B918A3D3E942
:1026C000002330464946FEF76FFA98B132463B4642
:1026D0001A49204606F064FF89E7144B1B68402026
:1026E00098470446C4E732463B461549204606F063
:1026F00057FF7CE732463B461249204606F050FF22
:1027000075E700BFAFF300800000C0FFFFFFDF41AF
:1027100044F3C2E4E4E9634C8DEDB5A0F7C6B03EE6
:102720000000000065CDCD41841E01084C0000244E
:102730000000B03C0000E0C1881E0108941E0108A2
:102740008C1E0108981E01082DE9F84305460E4627
:102750008446002405E0012300E001231C430CF122
:10276000010C9CF800304BB15A1ED2B2222B18BF7C
:102770001E2AF2D95C2BEED00023EFE70CBBACEBAA
:102780000504C6B1E11C3046FFF7C6FE06467EB121
:1027900037464FF0220807F8018B2946384606F0E5
:1027A0002CFF07F8048004F1010C002307F80C301B
:1027B0003046BDE8F8834C4B1B68E01C9847064642
:1027C000E5E715B1A846002418E066B103213046BC
:1027D000FFF7A2FE0646002EEAD0444B1A889B78EB
:1027E0003280B370E4E7404B1B68032098470646ED
:1027F000F1E71F2F10D8063408F1010898F800708F
:102800006FB114F1010909D03946394806F0E8FEE4
:102810000028EED00234EFE74C46EDE74C46BEB15F
:10282000E11C3046FFF778FE0646002EC0D0344645
:10283000222304F8013B2B78002B50D0222B18BF09
:102840001F2B0BD95C2B09D0013504F8013BF2E7B3
:10285000254B1B68E01C98470646E6E720465C23AC
:1028600000F8013B15F8012B222A15D8082A31D38C
:10287000A2F108031A2B2DD8DFE803F01828202C2A
:102880001C242C2C2C2C2C2C2C2C2C2C2C2C2C2CA0
:102890002C2C2C2C2C2C14005C2A1BD15C23637058
:1028A0000234C8E7222363700234C4E762236370F2
:1028B0000234C0E7662363700234BCE76E236370A2
:1028C0000234B8E7722363700234B4E77423637090
:1028D0000234B0E7074906F063FE0634ABE7222373
:1028E00023700023637063E74C0000249C1E0108E2
:1028F000A01E0108A81E010808B50069FFF724FF03
:1029000008BD00002DE9F04F87B0804600911646C3
:102910001D468368002701E001371B68002BFBD1AF
:102920006FBB9DB186B1009B191D2846FFF7F4FDD2
:10293000044604B323467B2203F8012BBEB1A31C3B
:102940000A22627000990FE00321EEE7AB4B1B688F
:1029500026B1009A101D98470446EAE70320FAE7DB
:10296000092203F8012B01374A1EBA42F8DC7D2206
:102970001A7000225A70204607B0BDE8F08F002D73
:1029800000F09E80D5F808B0E6B14FF0020A0AF1D7
:1029900001012846FFF7C0FD04460028EBD003469E
:1029A0007B2203F8012B16B1831C0A2242700022FD
:1029B0001A70AB685344AB60D8F80870009B03F101
:1029C00001091BE04FF0010AE1E749462846FFF7FD
:1029D000A3FD04460028CED0002303E0092204F81A
:1029E000012B01334B45F9DBAB684B44AB6009E08D
:1029F00000232370AB684344AB603F68002F3FD097
:102A0000002EE2D12946386AFFF79EFE2846FFF7DE
:102A1000C7FDA86051462846FFF77EFD0446002802
:102A2000A9D03A2303700EB109234370AB68534415
:102A3000AB602B4632464946384600F04BF92846F3
:102A4000FFF7AEFDA8603B68B3F1000818BF4FF078
:102A50000108002E18BF08F1010808F101012846FD
:102A6000FFF75AFD0446002885D03B6813B12C239C
:102A700004F8013B002EBBD00A2304F8013BB7E762
:102A800016B1009B991C00E002212846FFF744FD87
:102A9000044600283FF46FAF76B97D2323700023EE
:102AA00063702C685C4466E7092304F8013B0BF172
:102AB000010B9345F8DBF0E74FF0000B009AF8E7C5
:102AC000BC004E4B1B68204698470590002800F03C
:102AD000FD804A4B1B68204698470190D8B122469A
:102AE0000021059805F002FF22460021019805F01B
:102AF000FDFED8F80850009B5A1C0392002E3DD0D2
:102B000003F1080A0023049399460297DDF8148024
:102B1000DDF804B00BE03A4B1B6805989847019C20
:102B200029E700231F44BA440AF1020A2D6845B37D
:102B30000021286AFFF708FE04464FEA89074BF890
:102B40002900002332460399284600F0C3F848F8CC
:102B5000070009F10109002C18BF00280BD0FEF76F
:102B6000D7F907462046FEF7D3F90744002ED8D000
:102B7000009B0333D6E701230493D7E74FF0070AFE
:102B8000C0E7029F049B4BBB1C4B1B6850469847F9
:102B9000044618B305467B2305F8013B16B1851C96
:102BA0000A23437000232B70DDF810800297DDF8B4
:102BB00014B0039F03943CE00134BC4214DAA60035
:102BC00059F8240010B10E4B1B68984758F80600BE
:102BD0000028F1D00A4B1B689847EDE70024DDF888
:102BE0001480DDF80490E8E7054C236801989847C5
:102BF0002368059898472C46BDE600BF4C0000248A
:102C000048000024092205F8012B0133BB42F9DBFF
:102C100014E0049BFAE700232B702D4C2368019AE3
:102C200052F80900984723685BF80900984708F1B3
:102C30000108029B984532DA002EEAD14FEA880952
:102C4000019B53F828A05046FEF762F9044602465D
:102C50005146284605F03CFE2B1903F1010A3A22A1
:102C60002A551EB103F1020A09225A705BF80910B5
:102C7000504606F0C2FC5BF80900FEF749F90AEB82
:102C80000005029B013B434503D001352C230AF884
:102C90000030002EBFD00A2305F8013BBBE7039CA0
:102CA0000B4F3B68019898473B680598984726B9B1
:102CB0007D232B7000236B705DE6049B00998B4293
:102CC000F6DA092205F8012B0133F8E7059C52E6F4
:102CD000480000248446002800F0828008B5002BBC
:102CE00049D0007B062876D8DFE800F01220042EB9
:102CF000353B400005211846FFF70EFC844640B3E3
:102D0000384B1868CCF800001B798CF8043020E0B0
:102D100006211846FFF700FC8446D0B1324B1868F4
:102D2000CCF800009B88ACF8043012E0052118466E
:102D3000FFF7F2FB844660B12C4B1868CCF800001A
:102D40001B798CF8043004E019466046FFF738FC24
:102D50008446604608BD19466046FFF7CDFD8446AF
:102D6000F7E7604600F044F88446F2E76046FFF774
:102D7000C9FD8446EDE7007B06282FD8DFE800F088
:102D8000090E0413191F25001648FFF7F5FB8446AA
:102D9000DFE71548FFF7F0FB8446DAE71348FFF753
:102DA000EBFB8446D5E700216046FFF709FC84462B
:102DB000CFE700216046FFF79FFD8446C9E7002367
:102DC000604600F015F88446C3E700236046FFF72D
:102DD00099FD8446BDE74FF0000CBAE79C46B8E782
:102DE000704700BF6C1E0108741E01087C1E01089C
:102DF0002DE9F04F83B00646894615461F46836885
:102E0000002401E001341B68002BFBD194B1002F9A
:102E100064D0D7F808A001213846FFF77DFB804633
:102E2000002800F0EF805B230370BB680133BB60B8
:102E3000B4681FE087B103213846FFF76DFB804679
:102E4000B8F1000F00F0DE80714B1A889B78A8F86B
:102E5000002088F80230D5E06E4B1B6803209847AD
:102E60008046EDE7012617E000221A70BB68334464
:102E7000BB60246814B33B462A4609F10101204691
:102E8000FFF728FF3846FFF78BFBB8602368002B5D
:102E9000EFD0002DE6D00226711C3846FFF73CFB30
:102EA0008046002800F0AE8003462C2203F8012B58
:102EB000002DD9D0831C20224270D5E7022138464C
:102EC000FFF72AFB8046002800F09C805D230370FA
:102ED00000234370386800EB0A0893E04FEA840847
:102EE0004C4B1B68404698478246002800F08E8075
:102EF0004246002105F0FAFCD6F808800026B346C9
:102F00000523009444469846019706E000231844A0
:102F1000804408F102082468BB46231E18BF012321
:102F2000002E18BF00239BB100232A4609F101019E
:102F30002046FFF7CFFE0BF101074AF82B0028B11E
:102F4000FDF7E6FF002DE1D00123E0E70126E2E7EF
:102F5000009C019FC6B92F4B1B684046984798B10B
:102F600081465B2309F8013B002343700090A04693
:102F70001BE00135AC4209DD5AF825000028F8D0E5
:102F8000254B1B689847F4E70025F3E7224B1B68A5
:102F900050469847B84635E0002389F800301E4B6C
:102FA0001B685AF80B0098470136B0451EDD4FEA02
:102FB000860B5AF826402046FDF7AAFF0746024630
:102FC0002146484605F084FC4F4408F1FF33B342E4
:102FD0000AD0B9462C2309F8013B002DDCD007F1BB
:102FE000020920237B70D7E7B946D8E7DDF80080D7
:102FF000094B1B68504698475D2389F80030002331
:1030000089F80130404603B0BDE8F08F8046F9E70B
:10301000B01E01084C00002448000024014B186831
:10302000704700BF780B002438B5044616E0E3680B
:1030300013F4807F04D1206910B10F4B1B689847AF
:10304000E36813F4007F04D1206A10B10A4B1B68B7
:103050009847094B1B68204698472C4654B1256871
:10306000E36813F4807FE2D1A0680028DFD0FFF787
:10307000DBFFDCE738BD00BF48000024F8B505469B
:103080000C461646FFF73AF8114B00221A60074625
:1030900080B12846FFF72AF801463846FFF720F9A5
:1030A000054648B126B1FFF721F80546037843B934
:1030B00004B125603846F8BD3846FFF7B5FF2F4606
:1030C000F8E73846FFF7B0FF014B1D600027F1E736
:1030D000780B002408B500221146FFF7CFFF08BD8A
:1030E00008B5002301221946FFF7F4FD08BD38B5E5
:1030F0000D46846800E024682CB12946206AFEF75A
:1031000063FE0028F7D1204638BD000000B583B02B
:103110000A4BD3F8F42042F00202C3F8F420D3F8AB
:10312000F43003F002030193019B00220F216FF0A2
:10313000010002F049F803B05DF804FB00440258B6
:103140000120704708B505F089FB162303604FF096
:10315000FF3008BD08B54FF0FF31FFF7F3FFFEE782
:1031600070B50C461646002506E0AFF300802146F8
:1031700001F8010B01350C46B542F6DB304670BD57
:1031800070B50C461646002504E014F8010B00F05B
:10319000B5F80135B542F8DB304670BD4FF0FF3071
:1031A00070474FF400534B60002070470120704778
:1031B0000020704710B503460C4A0D490D480068C1
:1031C00040B10C4800680344521A934206D8094A99
:1031D000136010BD0748084C0460F2E705F03EFBA1
:1031E0000C2303604FF0FF30F3E700BF000005241D
:1031F000000400007C0B0024D85D002408B51748AB
:10320000174B03604FF4E133436000238360C360D6
:1032100003610C2242618361C36103624362836282
:1032200005F0AFF970B900210C4805F022FA60B939
:1032300000210A4805F042FA50B9084805F0FAF9A9
:1032400048B908BDFEF7D8FCEDE7FEF7D5FCEFE77F
:10325000FEF7D2FCF1E7FEF7CFFCF2E7800B00248B
:103260000010014010B5B6B00446002131913291F2
:10327000339134913591B82202A805F037FB2268CA
:103280001B4B9A4201D036B010BD01220023CDE97C
:10329000022302A803F0BEF838BB164BD3F8F02087
:1032A00042F01002C3F8F020D3F8F02002F0100230
:1032B0000092009AD3F8E02042F00102C3F8E02027
:1032C000D3F8E03003F001030193019B4FF4C06396
:1032D000319302233293002333933493072335939E
:1032E00031A9054802F09CF8CDE7FEF785FCD4E74C
:1032F00000100140004402580000025800B583B09D
:1033000001904FF0FF33012201A9034805F06CF84A
:10331000019803B05DF804FB800B002410B588B061
:103320000DF1040C1A4C0FCCACE80F0094E8070028
:10333000ACE803008CF8002001A8FFF7CBFE0446A0
:10334000B0B1FFF7CDFE06F0A9F812492046FFF70D
:10335000CEFEC368042B10D00F492046FFF7C7FEEE
:10336000C368032B0ED02046FFF75EFE08B010BDE9
:10337000FFF754FE06F092F8E7E70169074806F008
:1033800007F8E9E74169064806F002F8EBE700BFF5
:10339000DC1E0108BC1E0108D01E0108C41E010865
:1033A000D41E010808B54FF0E0231B6901F01EFC94
:1033B000012800D108BD00F0D5F9FBE7EFF3058344
:1033C0002BB9064B186828B901221A6070476FF0B4
:1033D000050070474FF0FF30704700BFA012002477
:1033E000EFF3058373B90A4B1B68012B0DD110B5A0
:1033F0000024084BDC77064B02221A6001F046F9E4
:10340000204610BD6FF0050070474FF0FF30704749
:10341000A012002400ED00E0F0B587B00024059470
:10342000EFF305847CBB70B32AB31568936903B9C5
:1034300018235C1E372C4AD8546814F0010F48D169
:10344000566976B14FEA960C946834B1D768B7F5EF
:10345000916F02D3176907B1C6B92CB14FF0FF3491
:103460000EE04FF0800CEFE7D4688CB9146994B18A
:103470004FF0FF3404E01546002418234FF0800C71
:10348000012C0AD0ACB1059807B0F0BD0124F7E7D4
:103490004FF0FF34F4E70024F2E7146992680292D7
:1034A000019400930B466246294601F07DF8059091
:1034B000E9E705AA019200930B461FFA8CF2294610
:1034C00001F0AFF80128DED000230593DBE70020F0
:1034D000DAE70020D8E708B5EFF3058333B908B978
:1034E000002008BD01F03EFA0020FAE76FF0050069
:1034F000F7E70000034B0360034B0B60802313606E
:10350000704700BF180E0024140C0024034B036006
:10351000034B0B604FF4807313607047A8160024B0
:10352000A412002400F1080343604FF0FF328260D0
:10353000C360036100230360704700230361704789
:1035400043684B609A688A605160996008610368BB
:1035500001330360704730B40D68B5F1FF3F11D0FF
:1035600000F108031C465B681A68AA42FAD963682E
:103570004B6099608C60616008610368013303608F
:1035800030BC70470469F2E70369416882688A6069
:10359000416851605A68824206D0002202611A686E
:1035A000013A1A601868704782685A60F5E70000AF
:1035B00082B0002301930D4B1B68B3F1FF3F08D08D
:1035C0004FF0500383F31188BFF36F8FBFF34F8F1A
:1035D000FEE74FF0500383F31188BFF36F8FBFF303
:1035E0004F8F019B002BFCD002B07047500000248D
:1035F00008480068006880F308884FF0000080F3F6
:10360000148862B661B6BFF34F8FBFF36F8F00DFD0
:1036100000BF000008ED00E0DFF80C00016841F495
:10362000700101607047000088ED00E04FF080738A
:1036300040F8043C21F0010140F8081C054B40F81B
:103640000C3C40F8202C6FF0020340F8243C443836
:10365000704700BFB1350008000000000000000006
:10366000074B19680868B0E8F04F80F30988BFF38A
:103670006F8F4FF0000080F311887047AFF3008028
:10368000985700244FF0500383F31188BFF36F8FD6
:10369000BFF34F8F0B4A136801331360012B00D027
:1036A00070474FF0E023D3F8043D13F0FF0FF7D03D
:1036B0004FF0500383F31188BFF36F8FBFF34F8F29
:1036C000FEE700BF50000024094B1B6843B94FF0D0
:1036D000500383F31188BFF36F8FBFF34F8FFEE763
:1036E000013B034A13600BB983F31188704700BF95
:1036F0005000002400000000000000000000000056
:10370000EFF30980BFF36F8F154B1A681EF0100F8F
:1037100008BF20ED108A20E9F04F10602DE9090064
:103720004FF0500080F31188BFF34F8FBFF36F8FBE
:1037300001F03EF94FF0000080F3118809BC1968D0
:103740000868B0E8F04F1EF0100F08BFB0EC108A08
:1037500080F30988BFF36F8F704700BFAFF300801D
:103760009857002408B54FF0500383F31188BFF336
:103770006F8FBFF34F8F00F0EDFF28B14FF0E023C4
:103780004FF08052C3F8042D002383F3118808BD45
:103790004FF0E022002313619361054B1B6805493C
:1037A000A1FB03139B09013B53610723136170477E
:1037B0005C000024D34D62104FF0E023D3F8002DBD
:1037C0003D4B9A421CD04FF0E023D3F8002D3B4BE9
:1037D0009A421ED030B583B0394B1A78D2B20192DA
:1037E000FF221A701B78DBB28DF803309DF803308E
:1037F00003F05003334A1370334B07221A601BE067
:103800004FF0500383F31188BFF36F8FBFF34F8FD7
:10381000FEE74FF0500383F31188BFF36F8FBFF3C0
:103820004F8FFEE7284A1368013B13609DF8033071
:103830005B00DBB28DF803309DF8033013F0800F8E
:10384000F0D1214B1B68032B08D04FF0500383F3BA
:103850001188BFF36F8FBFF34F8FFEE71B021A4A29
:10386000136003F4E0631360019BDBB2144A13702E
:103870004FF0E024D4F8203D43F47003C4F8203D19
:10388000D4F8203D43F07043C4F8203DFFF780FF9B
:1038900000250E4B1D60FFF7BFFED4F8343F43F008
:1038A0004043C4F8343FFFF7A3FE01F081F8FFF76F
:1038B0007FFE284603B030BD71C20F4170C20F4178
:1038C00000E400E0301B0024341B002450000024DE
:1038D000EFF305830F2B0FD9114A9B5CDBB2114A22
:1038E00012789A4208D94FF0500383F31188BFF33E
:1038F0006F8FBFF34F8FFEE74FF0E023D3F80C3DFF
:1039000003F4E063084A1268934208D94FF0500369
:1039100083F31188BFF36F8FBFF34F8FFEE77047BC
:10392000F0E300E0301B0024341B0024124A12F0A4
:10393000070F1ED0D11D21F00701C1F570531344AC
:103940000A460E480260002141601344083B23F000
:1039500007030B48036059601960991A516013609E
:10396000084B1960084B1960084B4FF000421A6071
:1039700070474FF47053E4E73C1B00245057002479
:10398000381B002444570024405700243C5700248F
:10399000164B1A461B688342FBD3516802EB010C9D
:1039A000844509D0416800EB010C634509D00360F0
:1039B000904219D010607047406801445160104631
:1039C000F0E710B40A4C2468A3420BD05B6819449A
:1039D000416013681B680360904200D010605DF87E
:1039E000044B70470460F7E7704700BF505700244E
:1039F000381B002470B5054600F09EFE364B1B6850
:103A0000A3B1364B1B681D424ED135B1083515F0B8
:103A1000070F02D025F007050835002D46D0304BA2
:103A20001B68AB4251D32F4A146804E0FFF77EFFB6
:103A3000E7E722461C466368AB4202D22368002BAC
:103A4000F7D1254B1B68A34241D01668083623687E
:103A5000136063685B1B102B10D9601910F0070FFF
:103A600008D04FF0500383F31188BFF36F8FBFF37B
:103A70004F8FFEE743606560FFF78AFF6268184971
:103A80000B689B1A0B60184909688B4201D21649D2
:103A90000B60124B1B681343636000232360134ABF
:103AA00013680133136002E0002600E0002600F0F6
:103AB000DDFE16F0070F0CD04FF0500383F3118892
:103AC000BFF36F8FBFF34F8FFEE70026EFE70026AF
:103AD000EDE7304670BD00BF381B00243C57002482
:103AE00040570024505700244457002448570024CE
:103AF000002834D038B50446A0F1080550F8043C3D
:103B0000174A1268134208D14FF0500383F311880B
:103B1000BFF36F8FBFF34F8FFEE750F8081C41B122
:103B20004FF0500383F31188BFF36F8FBFF34F8FB4
:103B3000FEE723EA020340F8043C00F0FDFD54F8E0
:103B4000041C084A13680B4413602846FFF720FF43
:103B5000054A13680133136000F088FE38BD7047D2
:103B60003C570024405700244C57002410B504460D
:103B7000FFF788FDA26BE36B9A4204D00024FFF7A5
:103B8000A3FD204610BD0124F9E710B50446FFF758
:103B900079FDA36B23B90124FFF796FD204610BDE4
:103BA0000024F9E770B504461546866B026C5AB9D5
:103BB00003681BB100200136A66370BD806801F068
:103BC00025F80023A360F6E76DB9406804F080FE95
:103BD000226C636813446360A268934219D323681C
:103BE00063602846E7E7C06804F072FE226C514229
:103BF000E3689B1AE3602268934202D2A3680B44F5
:103C0000E360022D01D00020D5E726B1013E00205F
:103C1000D1E72846CFE70020CDE70346026C6AB122
:103C200010B50846D9681144D9609C68A14201D3F7
:103C30001968D960D96804F04BFE10BD704738B5DB
:103C40000546FFF71FFD95F8454064B201E0013CD1
:103C500064B2002C0ADD6B6A43B105F1240000F068
:103C60002BFF0028F3D000F0BBFFF0E7FF2385F81F
:103C70004530FFF729FDFFF705FD95F8444064B294
:103C800001E0013C64B2002C0ADD2B6943B105F16F
:103C9000100000F011FF0028F3D000F0A1FFF0E7C2
:103CA000FF2385F84430FFF70FFD38BD38B5E0B18C
:103CB0000D460446FFF7E6FC2368E26B216C01FB2E
:103CC0000230A0600020A0636360013A02FB013370
:103CD000E360FF2384F8443084F84530FDB923695C
:103CE00063B9FFF7F1FC012038BD4FF0500383F3B7
:103CF0001188BFF36F8FBFF34F8FFEE704F1100001
:103D000000F0DAFE0028ECD04FF0E0234FF08052B4
:103D1000C3F8042DBFF34F8FBFF36F8FE1E704F1BA
:103D20001000FFF7FFFB04F12400FFF7FBFBD8E7CF
:103D300038B51D46049C0B4649B92460E0632364F2
:103D400001212046FFF7B2FF84F84C5038BD2260B5
:103D5000F4E740B94FF0500383F31188BFF36F8F3E
:103D6000BFF34F8FFEE710B584B01C4683B10B1E26
:103D700018BF0123002A08BF43F001038BB94FF09D
:103D8000500383F31188BFF36F8FBFF34F8FFEE7AC
:103D90004FF0500383F31188BFF36F8FBFF34F8F42
:103DA000FEE7B1FA81F35B09002A18BF43F0010373
:103DB00043B94FF0500383F31188BFF36F8FBFF304
:103DC0004F8FFEE750230393039B502B08D04FF0F7
:103DD000500383F31188BFF36F8FBFF34F8FFEE75C
:103DE000039B012384F8463000949DF81830FFF7B8
:103DF0009FFF204604B010BDF0B585B0019288B198
:103E00000F461D460446B1B1022D20D1E36B012BB4
:103E10001DD04FF0500383F31188BFF36F8FBFF3B2
:103E20004F8FFEE74FF0500383F31188BFF36F8F7E
:103E3000BFF34F8FFEE7036C002BE5D04FF050032C
:103E400083F31188BFF36F8FBFF34F8FFEE700F04E
:103E5000CDFE064658B9019B002B48D04FF05003C9
:103E600083F31188BFF36F8FBFF34F8FFEE70026F8
:103E70003DE02A4639462046FFF794FE636A7BB947
:103E800048B14FF0E0234FF08052C3F8042DBFF348
:103E90004F8FBFF36F8FFFF717FC012005B0F0BD08
:103EA00004F1240000F008FE0028F4D04FF0E023D5
:103EB0004FF08052C3F8042DBFF34F8FBFF36F8FC5
:103EC000E9E7FFF701FC0020E8E702A800F03AFE6E
:103ED000012619E0002384F8443021E0002384F80F
:103EE000453023E02046FFF7AAFE00F0BFFCFFF7B5
:103EF000C9FBA26BE36B9A42BBD3022DB9D0019BE5
:103F0000002BDED0002EE0D0FFF7DEFB00F014FC2B
:103F1000FFF7B8FB94F8442052B2B2F1FF3FD9D07A
:103F200094F8452052B2B2F1FF3FD7D0FFF7CCFB57
:103F300001A902A800F012FED8B92046FFF716FE2C
:103F40000028CFD0019904F1100000F081FD204637
:103F5000FFF775FE00F08AFC0028C8D14FF0E0237F
:103F60004FF08052C3F8042DBFF34F8FBFF36F8F14
:103F7000BDE72046FFF763FE00F078FC00208DE7E8
:103F80002DE9F84390B10F4616461C460546B1B1DF
:103F9000022C20D1EB6B012B1DD04FF0500383F38B
:103FA0001188BFF36F8FBFF34F8FFEE74FF05003C1
:103FB00083F31188BFF36F8FBFF34F8FFEE7036C5E
:103FC000002BE5D04FF0500383F31188BFF36F8FC0
:103FD000BFF34F8FFEE7FFF77BFCEFF311894FF044
:103FE000500383F31188BFF36F8FBFF34F8FAA6B1A
:103FF000EB6B9A4206D3022C04D0002089F311887F
:10400000BDE8F88395F845804FFA88F8AB6B2246F7
:1040100039462846FFF7C6FDB8F1FF3F06D008F144
:1040200001035BB285F845300120E7E76B6A0BB905
:104030000120E3E705F1240000F03EFD18B126B1B0
:1040400001203060DAE70120D8E70120D6E7F0B59B
:1040500085B0019290B10F460446C1B100F0C6FD93
:10406000064600BB019B002B5ED04FF0500383F34C
:104070001188BFF36F8FBFF34F8FFEE74FF05003F0
:1040800083F31188BFF36F8FBFF34F8FFEE7036C8D
:10409000002BE3D04FF0500383F31188BFF36F8FF1
:1040A000BFF34F8FFEE700263EE039462046FFF77C
:1040B000B4FD013DA563236923B9FFF705FB01208A
:1040C00005B0F0BD04F1100000F0F6FC0028F4D0BB
:1040D0004FF0E0234FF08052C3F8042DBFF34F8F11
:1040E000BFF36F8FE9E7FFF7EFFA0020E8E702A8D8
:1040F00000F028FD012621E0002384F8443029E067
:10410000002384F845302BE02046FFF798FD00F0AF
:10411000ADFB09E02046FFF792FD00F0A7FB20462B
:10412000FFF733FD00283FD1FFF7ACFAA56B002D58
:10413000BBD1019B002BD6D0002ED8D0FFF7C4FAFC
:1041400000F0FAFAFFF79EFA94F844305BB2B3F14C
:10415000FF3FD1D094F845305BB2B3F1FF3FCFD0F1
:10416000FFF7B2FA01A902A800F0F8FC0028D1D1AB
:104170002046FFF70AFD0028C6D0019904F124006B
:1041800000F066FC2046FFF75AFD00F06FFB0028A8
:10419000CAD14FF0E0234FF08052C3F8042DBFF393
:1041A0004F8FBFF36F8FBFE7002089E70023072BF6
:1041B0000CD8074A52F833200AB10133F7E7044A12
:1041C00042F8331002EBC30358607047704700BFDA
:1041D0005857002470B504460D461646FFF752FAAC
:1041E00094F844305BB2B3F1FF3F0DD094F8453002
:1041F0005BB2B3F1FF3F0BD0FFF766FAA36B5BB185
:104200002046FFF71CFD70BD002384F84430EDE725
:10421000002384F84530EFE73246294604F12400B4
:1042200000F02EFCECE70000084B1B681B6823B96C
:10423000074B4FF0FF321A607047044B1B68DB6876
:10424000DB685A68024B1A60704700BF9C57002415
:10425000445C00242DE9F04780460D4617469946F8
:10426000089EDDF824A00A9C9200A521206B04F092
:104270003DFB236B6FF040423A4403EB820727F08B
:104280000707002D65D04FF0000CBCF10F0F0BD8C5
:1042900015F80C2004EB0C0383F8342015F80C30CF
:1042A00013B10CF1010CF0E7002384F84330372EF2
:1042B00000D93726E662E66400252565201DFFF754
:1042C0003CF904F11800FFF738F92461C6F138060B
:1042D000A6616462C4F8805484F884544FF4856203
:1042E000294604F1580004F001FB04F55173E3651D
:1042F00004F56B73236604F2144363660122002302
:10430000C4E9402343F20E33A4F808314AF6CD3312
:10431000A4F80A3141F23423A4F80C314EF26D6353
:10432000A4F80E314DF6EC63A4F810310523A4F87F
:1043300012310B23A4F814314A4641463846FFF7A0
:1043400075F92060BAF1000F01D0CAF80040BDE84D
:10435000F087002384F83430A9E7000038B5002442
:1043600007E004EB840293000E481844FFF7DAF8E4
:104370000134372CF5D90C4D2846FFF7D3F80B4CF8
:104380002046FFF7CFF80A48FFF7CCF80948FFF7B7
:10439000C9F80948FFF7C6F8084B1D60084B1C60B8
:1043A00038BD00BFA4570024185C00242C5C0024F6
:1043B000505C00247C5C0024685C00249C57002432
:1043C000A057002410B50446FFF75CF9224A136891
:1043D00001331360214B1B685BB1214B1B686BB928
:1043E0001E4B1B68DA6AE36A9A4207D81B4B1C60B3
:1043F00004E01A4B1C601368012B29D0194A13687A
:10440000013313606364E06A174B1B68984201D95B
:10441000154B186000EB8000211D144B03EB80004E
:10442000FFF78EF8FFF750F90D4B1B687BB10B4B74
:104430001B68DA6AE36A9A4209D24FF0E0234FF030
:104440008052C3F8042DBFF34F8FBFF36F8F10BDA1
:10445000FFF784FFD2E700BF045C002498570024D4
:10446000645C0024105C0024145C0024A457002425
:1044700010B50446583005F027F894F8853463B138
:10448000012B11D0022B0ED04FF0500383F3118873
:10449000BFF36F8FBFF34F8FFEE7206BFFF728FB53
:1044A0002046FFF725FB10BD2046FFF721FBFAE76A
:1044B0000F4B1B68D3B110B5FFF7E4F80D4BDB6869
:1044C000DC68201DFFF760F80B4A1368013B13609E
:1044D000074A1368013B1360FFF7F6F82046FFF721
:1044E000C7FF034B1B68002BE6D110BD704700BF10
:1044F000085C00247C5C0024045C002408B5FFF701
:10450000D7FF074B1B68012BF9D94FF0E0234FF081
:104510008052C3F8042DBFF34F8FBFF36F8FEEE7C8
:10452000A457002470B504460D46194B1E68194B5C
:1045300018680430FFF728F8B4F1FF3F14BF0023D8
:104540000123002D08BF00236BB93444114B1B68B5
:104550005C60A6420ED9104B18680E4B19680431E6
:10456000FEF7F9FF70BD0B4B196804310B48FEF7DD
:10457000E7FFF7E70A4B1868064B19680431FEF7A6
:10458000EAFF084B1B68A342ECD9064B1C60E9E725
:10459000905C002498570024A0570024685C0024F5
:1045A0009C570024445C002430B587B00B9C8CB130
:1045B0000C9DC5B14FF491650495049DB5F5916FBF
:1045C0001AD04FF0500383F31188BFF36F8FBFF3FE
:1045D0004F8FFEE74FF0500383F31188BFF36F8FC7
:1045E000BFF34F8FFEE74FF0500383F31188BFF303
:1045F0006F8FBFF34F8FFEE7049D0C9D2C63022449
:1046000085F8854400240394029505AC01940A9C26
:104610000094FFF71FFE0C98FFF7D4FE059807B033
:1046200030BD2DE9F04385B00746884614461E4646
:104630009000FFF7DFF908B381464FF49160FFF770
:10464000D9F90546B0B1C0F83090E5B1002385F83E
:104650008534039302950D9B01930C9B0093334685
:10466000224641463846FFF7F5FD2846FFF7AAFEE9
:10467000012005E04846FFF73BFAE6E74FF0FF3040
:1046800005B0BDE8F0834FF0FF30F9E710B588B012
:1046900000240594069407AA06A905A8FEF72AFF98
:1046A000059B0293069B019300942346079A1A499F
:1046B0001A48FFF779FF1A4B186040B100F05EFB13
:1046C000012806D0B0F1FF3F1DD008B010BD00207A
:1046D000F6E74FF0500383F31188BFF36F8FBFF3FA
:1046E0004F8F104B1B6858330F4A13600F4B4FF01E
:1046F000FF321A600E4B01221A600E4B00221A6024
:10470000FFF75AF8E1E74FF0500383F31188BFF346
:104710006F8FBFF34F8FFEE7F81E0108FD440008BE
:10472000405C00249857002464000024445C00246A
:10473000645C0024905C0024024A13680133136017
:10474000704700BF0C5C0024014B1868704700BF25
:10475000905C0024F8B53A4B1B68002B69D1394BAB
:104760001D6801351D60C5B9374B1B681B6843B117
:104770004FF0500383F31188BFF36F8FBFF34F8F58
:10478000FEE7314A1168314B186810601960304AF1
:10479000136801331360FFF747FD2E4B1B68AB42D4
:1047A0003DD900272C4B1B68DB6A03EB83039A007F
:1047B0002A4B9B58012B00D90127294B1B68002B42
:1047C0003CD001273AE001271F4B1B681B6843B30D
:1047D0001D4B1B68DB68DC6863689D4226D3261D81
:1047E0003046FEF7D1FEA36A1BB104F11800FEF7B4
:1047F000CBFEE36A1B4A1268934201D9194A13603F
:1048000003EB83039A00314614481044FEF798FEE8
:10481000E26A114B1B68DB6A9A42D4D2D4E70027C4
:10482000D2E70C4B4FF0FF321A60BBE7094A136026
:10483000B8E70D4A13680133136000273846F8BD06
:104840000C5C0024905C00249C570024A05700249A
:10485000485C0024445C002498570024A45700249A
:10486000945C0024145C00244C5C002438B5354B67
:104870001B6843B94FF0500383F31188BFF36F8F68
:10488000BFF34F8FFEE7FEF7FDFE2E4B1A68013A8D
:104890001A601B68002B4FD12B4B1B680BB90024EF
:1048A0004BE00024294B1B681BB3284BDB68DC68FA
:1048B00004F11800FEF768FE251D2846FEF764FE89
:1048C000E06A234B1B68984201D9214B186000EB2A
:1048D000800029461F4B03EB8000FEF731FEE26AA1
:1048E0001D4B1B68DB6A9A42DCD31C4B01221A6009
:1048F000D8E70CB1FFF798FC194B1C6884B9174B2B
:104900001C68D4B14FF0E0234FF08052C3F8042D5F
:10491000BFF34F8FBFF36F8F01240EE0013C07D030
:10492000FFF718FF0028F9D00C4B01221A60F5E7B9
:104930000B4B00221A60E2E70024FEF7C5FE20467A
:1049400038BD00BF0C5C0024045C0024505C0024D3
:10495000145C0024A457002498570024945C00247D
:104960004C5C002410B5A8B10446104B1B6843B141
:104970004FF0500383F31188BFF36F8FBFF34F8F56
:10498000FEE7FFF7D9FE00212046FFF7CBFDFFF73A
:104990006DFF48B94FF0E0234FF08052C3F8042D6B
:1049A000BFF34F8FBFF36F8F10BD00BF0C5C0024AF
:1049B000214B1B681BB1214B01221A6070471F4B12
:1049C00000221A601E4B1B6803EB83018A001D49FD
:1049D0008A585AB90BB1013BF6E74FF0500383F305
:1049E0001188BFF36F8FBFF34F8FFEE703EB830098
:1049F00082000A4450684068506003EB830C4FEA21
:104A00008C020832114488420FD003EB83029100DC
:104A10000C4A0A445268D1680B4A116008490B607D
:104A200013685833094A1360704740686246910022
:104A3000044A0A445060E8E70C5C0024945C0024BB
:104A4000145C0024A4570024985700246400002418
:104A500058B110B50C46094A11681831FEF77BFDB4
:104A600001212046FFF75EFD10BD4FF0500383F398
:104A70001188BFF36F8FBFF34F8FFEE79857002465
:104A800038B570B10D4614460A4A11681831FEF760
:104A900057FD0CB14FF0FF3521462846FFF742FD88
:104AA00038BD4FF0500383F31188BFF36F8FBFF30E
:104AB0004F8FFEE79857002438B5C368DC6824B3ED
:104AC00004F118052846FEF75FFD184B1B682BBB49
:104AD000251D2846FEF758FDE06A154B1B689842D5
:104AE00001D9134B186000EB80002946114B03EBF2
:104AF0008000FEF725FDE26A0F4B1B68DB6A9A42D5
:104B000011D901200D4B186038BD4FF0500383F3CD
:104B10001188BFF36F8FBFF34F8FFEE72946084818
:104B2000FEF70EFDE7E70020EEE700BF0C5C002477
:104B3000145C0024A457002498570024945C00249B
:104B4000505C0024034B1B680360034B1B684360ED
:104B5000704700BF485C0024905C0024F8B5C8B1E1
:104B60000C460546F9B1FEF78DFD1B4B19686B68C5
:104B7000C81A2268B2F1FF3F26D0184E36682F6857
:104B8000B74201D08B4224D9824215D8002323603A
:104B900001241AE04FF0500383F31188BFF36F8FA5
:104BA000BFF34F8FFEE74FF0500383F31188BFF33D
:104BB0006F8FBFF34F8FFEE75B1A134423602846C5
:104BC000FFF7C0FF002400E00024FEF77DFD204633
:104BD000F8BD0124F9E700BF905C0024485C002484
:104BE000014B01221A607047945C0024054B1B683E
:104BF00033B1054B1B680BB1002070470220704792
:104C000001207047645C00240C5C002400283BD029
:104C100038B504461E4B1B68834208D04FF0500342
:104C200083F31188BFF36F8FBFF34F8FFEE7036DE0
:104C300043B94FF0500383F31188BFF36F8FBFF375
:104C40004F8FFEE7013B0365C16AC26C91421DD0E4
:104C50000BB1002038BD051D2846FEF795FCE06C21
:104C6000E062C0F13803A3610A4B1B68984201D986
:104C7000084B186000EB80002946074B03EB8000CF
:104C8000FEF75EFC0120E5E7002070470020E1E729
:104C900098570024145C0024A4570024064B1A687B
:104CA00013682BB90123036023B9D36818687047D0
:104CB0000023F8E700207047985C002408B54160A5
:104CC000006191420CD8D21A83699A4201D3012023
:104CD00008BD011D0B4B1868FEF73DFC0020F7E7EF
:104CE0009A422CBF00220122994238BF00220AB109
:104CF0000120EDE7011D044B1868FEF72CFC002095
:104D0000E6E700BF9C5C0024985C002430B583B0CB
:104D1000FEF7B8FC114B1B681BB1FEF7D5FC03B0C6
:104D200030BD0F4D2846FEF7FDFB0E4C2046FEF72A
:104D3000F9FB0D4B1D600D4B1C60002300930C4BC9
:104D40000C4A10210A20FFF704F8044B18600028D1
:104D5000E3D00949FFF72AFADFE700BFBC5D002472
:104D6000405D0024545D0024985C00249C5C002479
:104D70006C5D0024A05C0024001F010810B588B001
:104D8000FFF7C4FF124B1B68CBB1002405940694B7
:104D900007AA06A905A8FEF7B9FB059B0293069B87
:104DA0000193022300932346079A0A490A48FFF712
:104DB000FBFB0A4B186010B1012008B010BD4FF08A
:104DC000500383F31188BFF36F8FBFF34F8FFEE75C
:104DD000BC5D0024081F0108E5500008C05D0024E8
:104DE000B8B19C4603461848006858B300B585B072
:104DF00000910192029305291CDCFFF7F7FE0228BF
:104E000010D000231A4669460F480068FEF7F4FFE9
:104E100015E04FF0500383F31188BFF36F8FBFF39A
:104E20004F8FFEE70023069A694607480068FEF7A1
:104E3000E3FF04E0002362466946FFF7A1F805B0EE
:104E40005DF804FB00207047BC5D002470B582B0A3
:104E50001B4B1B681A6862B3DB681E68DC68251D83
:104E60002846FEF791FB236A2046984794F828309D
:104E700013F0040FECD0A36933449E4207D2636061
:104E8000246129460E4B1868FEF765FBE0E7002118
:104E900000910B4632462046FFF7A2FF0028D7D1EB
:104EA0004FF0500383F31188BFF36F8FBFF34F8F21
:104EB000FEE7044A106802490860136002B070BD42
:104EC000985C00249C5C002438B50546FFF73CFC48
:104ED0000446074B1B68834205D800232B60044B14
:104EE0001C60204638BDFFF7B1FF01232B60F6E7B9
:104EF000685D002470B582B006460D461749096802
:104F0000C968CC68201DFEF73FFB94F828C01CF050
:104F1000040F08D12CF0010C84F828C0236A204625
:104F2000984702B070BDA16933462A4631442046F5
:104F3000FFF7C4FE0028F1D0002100910B46324655
:104F40002046FFF74DFF0028E8D14FF0500383F3D0
:104F50001188BFF36F8FBFF34F8FFEE7985C00247B
:104F600070B582B006460C46FFF7E6FB01A8FFF7D6
:104F7000ABFF019B3BBB0546B04228BF002C19D0BC
:104F800024B1134A12681268DAB901242246711B4F
:104F9000104B1868FFF71EF9FFF768FCA8B94FF02F
:104FA000E0234FF08052C3F8042DBFF34F8FBFF3BF
:104FB0006F8F0AE0FFF75AFC29463046FFF79AFF49
:104FC00003E01C46E2E7FFF751FC02B070BD00BFF2
:104FD0009C5C0024BC5D002410B588B002E0049BFA
:104FE000002B0FDA002204A93D4B1868FFF72FF8B9
:104FF000002873D0049B002BF1DA07990698059BD3
:105000009847ECE7069C636913B1201DFEF7BCFAD4
:1050100003A8FFF759FF049B092BE3D8DFE803F04F
:105020000505053037500505303794F8283043F032
:10503000010384F82830059BA169024619442046E3
:10504000FFF73CFE0028CDD0236A2046984794F80D
:10505000283013F0040FC5D0A269002100910B463F
:10506000059802442046FFF7BBFE0028BAD14FF056
:10507000500383F31188BFF36F8FBFF34F8FFEE7A9
:1050800094F8283023F0010384F82830AAE794F834
:10509000283043F0010384F828300599A16131B12B
:1050A0000346024601442046FFF708FE9AE74FF008
:1050B000500383F31188BFF36F8FBFF34F8FFEE769
:1050C00094F8283013F0020F04D023F0010384F881
:1050D000283087E72046FEF70BFD83E708B010BDB8
:1050E000BC5D002400B583B001A8FFF7D7FD01998E
:1050F000FFF736FFFFF770FFF6E7000010B503205B
:1051000000F050F800F0C6FD0F498B69C3F303238C
:105110000E4AD35C03F01F03D8408B6903F00F03E2
:10512000D35C03F01F0320FA03F3094A1360094B11
:1051300018600F20FCF7EAFD10B10124204610BDD5
:105140000446FDF7E3FFF9E700440258481F010851
:10515000600000245C000024034B1B78034A1168A4
:105160000B441360704700BF54000024C45D00244A
:10517000014B1868704700BFC45D002438B5044671
:10518000FFF7F6FF0546B4F1FF3F02D0044B1B7852
:105190001C44FFF7EDFF401BA042FAD338BD00BF0F
:1051A000540000240649CB6823F4E0631B041B0C65
:1051B000000200F4E0600343024A1A43CA607047E9
:1051C00000ED00E00000FA0500B5174BDB68C3F303
:1051D0000223C3F1070CBCF1040F28BF4FF0040CED
:1051E00003F1040EBEF1060F14D9033B4FF0FF3E4E
:1051F0000EFA0CFC21EA0C0199400EFA03F322EAA4
:1052000003031943002807DB0901C9B2074B1954EE
:105210005DF804FB0023E9E700F00F000901C9B2C3
:10522000034B1954F4E700BF00ED00E000E400E098
:1052300014ED00E0002807DB00F01F024009012305
:105240009340024A42F82030704700BF00E100E07E
:1052500000285AD010B5044690F82130002B42D0D7
:10526000022384F8213023681A69002A4FD09A68F3
:10527000002A4ED06268002A38D11A6822F400123F
:105280001A60A368B3F5801F39D02268136823F42D
:10529000801313602268136823F0FE43616943EAB8
:1052A000016313602268136823F4702321690B43A0
:1052B00013602268136823F47063E1680B43136082
:1052C000226853699BB2A16943EA01435361226892
:1052D0005169124B0B40E1690B435361012384F880
:1052E0002130002014E0FCF7F9FCB9E7A268B2F520
:1052F000801F10D11A6842F400121A60C1E72268B8
:10530000136843F480131360C4E701207047012041
:1053100010BD0120FCE70120FAE700BF0000FFFFFD
:1053200080B338B5044690F82130DBB2012B01D0B0
:10533000022038BD022380F821300268136843F050
:1053400001031360FFF714FF054623681A6A12F47D
:10535000004F06D1FFF70CFF401B0128F5D90320B1
:10536000E7E71A6812F4706F04D0012384F8213043
:105370000020DEE71A6842F010021A600520FFF7ED
:10538000FDFEF2E701207047F8B590F82150EDB22C
:10539000012D42D104460E46022380F821300368D5
:1053A000DF69BFB2036993B18FB18268B2F5801F24
:1053B00012D1FF031B0CB7FBF3F7226893681B0C99
:1053C00012D0012B23D0012384F8213002E00123E5
:1053D00084F821302846F8BD01F022FD638A03FBE2
:1053E00000F0B0FBF7F7E8E71E2093689BB264215A
:1053F00001FB03F3126992B25AB1FF1A97FBF2F75D
:1054000007443760012384F821300025E2E7822039
:10541000EBE7012384F82130DCE70225DAE700001E
:10542000F0B583B000236BE085685E000324B440D0
:1054300025EA0405CC68B4402C438460446824EA1F
:105440000C0C4C68C4F300149C4044EA0C04446007
:1054500068E0DD08083550F8256003F007044FEADE
:10546000840C0F2404FA0CF426EA040E0C6904FAE6
:105470000CF444EA0E0440F825406BE0092400E0F7
:10548000002404FA0EF42C430CF1020C664D45F88E
:105490002C404FF0B0442568D44325EA02064F68FB
:1054A00017F4801F01D042EA05064FF0B0452E6088
:1054B0006D6804EA05064F6817F4001F01D042EA40
:1054C00005064FF0B0456E60D5F8845004EA050635
:1054D0004F6817F4003F01D042EA05064FF0B0458F
:1054E000C5F88460D5F880502C404E6816F4803F93
:1054F00001D042EA05044FF0B042C2F880400133C7
:105500000A6832FA03F400F08C804FF0010C0CFAB8
:1055100003FC1CEA0202F2D04C6804F00304013CD4
:10552000012C81D94C6804F00304032C0CD0C4680E
:105530005D004FF0030C0CFA05FC24EA0C0C8C689F
:10554000AC4044EA0C04C4604C6804F00304022C30
:105550003FF47FAF04684FEA430E4FF0030C0CFAA0
:105560000EFC24EA0C0C4C6804F0030404FA0EF45C
:1055700044EA0C0404604C6814F4403FBFD02B4C48
:10558000D4F8F45045F00205C4F8F450D4F8F440CF
:1055900004F002040194019C4FEA930C0CF1020503
:1055A000214C54F8255003F003044FEA840E0F24D5
:1055B00004FA0EF425EA04051D4CA0423FF460AF46
:1055C00004F58064A0421ED004F58064A0421CD083
:1055D00004F58064A0421AD004F58064A04218D07B
:1055E00004F58064A04216D004F58064A04214D073
:1055F00004F58064A04212D004F50064A0423FF498
:105600003DAF0A243DE701243BE7022439E70324A8
:1056100037E7042435E7052433E7062431E7072478
:105620002FE703B0F0BD00BF00040058004402584B
:10563000000002580AB18161704709048161704716
:10564000436901EA030221EA030141EA024181615F
:1056500070470000134BDB6813F0040F07D1114BA8
:10566000DB6803F0070383421AD00120704710B5AE
:105670000C4AD36823F007031843D060FFF778FD86
:105680000446084B5B6813F4005F07D1FFF770FD19
:10569000001BB0F57A7FF4D9012000E0002010BD96
:1056A0000020704700480258002800F0D78238B523
:1056B0000446036813F0010F25D0A04A136903F0D4
:1056C0003803926A102B15D0182B0FD06368B3F5EE
:1056D000803F3FD0002B53D1984B1A6822F4803280
:1056E0001A601A6822F480221A6038E002F003027D
:1056F000022AEBD1914B1B6813F4003F03D063687F
:10570000002B00F0AD82236813F0020F00F08880B8
:105710008A4A1369926A13F038035AD0182B55D06D
:10572000E368002B00F0A98084490A6822F019027E
:1057300013430B60FFF71CFD0546804B1B6813F0FD
:10574000040F40F09180FFF713FD401B0228F4D9AD
:1057500003208CE2794A136843F480331360636852
:105760002BB3FFF705FD0546744B1B6813F4003F90
:10577000C9D1FFF7FDFC401B6428F5D9032076E270
:10578000B3F5A02F09D06D4B1A6822F480321A604D
:105790001A6822F480221A60E1E7684B1A6842F422
:1057A00080221A601A6842F480321A60D7E7FFF745
:1057B000DFFC0546614B1B6813F4003FA3D0FFF7E5
:1057C000D7FC401B6428F5D9032050E212F0030FE8
:1057D000A6D15A4B1B6813F0040F03D0E368002BCB
:1057E00000F04082554A136823F01903E1680B4327
:1057F0001360FFF7BDFC0546504B1B6813F0040F08
:1058000006D1FFF7B5FC401B0228F5D903202EE294
:105810004A4A536823F0FE43216943EA0163536017
:10582000236813F0100F51D0444A136903F0380372
:10583000926A082B39D0182B33D0E369002B69D03A
:105840003E4A136843F080031360FFF791FC05465E
:105850003A4B1B6813F4807F53D1FFF789FC401B40
:105860000228F5D9032002E2344A536823F0FE43AC
:10587000216943EA01635360D2E7304A136823F099
:1058800001031360FFF774FC05462C4B1B6813F0F3
:10589000040FC5D0FFF76CFC401B0228F5D903208C
:1058A000E5E102F00302012AC7D1244B1B6813F47F
:1058B000807F03D0E369802B40F0D6811F4AD368F4
:1058C00023F07C53216A43EA0163D360236813F019
:1058D000080F49D06369002B32D0184A536F43F048
:1058E00001035367FFF744FC0546144B5B6F13F04D
:1058F000020F39D1FFF73CFC401B0228F5D90320E9
:10590000B5E10E4AD36823F07C53216A43EA016370
:10591000D360DBE7094A136823F080031360FFF7C5
:1059200027FC0546054B1B6813F4807FCED0FFF79C
:105930001FFC401B0228F5D9032098E100440258BF
:105940009D4A536F23F001035367FFF711FC05468F
:10595000994B5B6F13F0020F06D0FFF709FC401B59
:105960000228F5D9032082E1236813F0200F29D003
:10597000A3699BB1904A136843F480531360FFF707
:10598000F7FB05468C4B1B6813F4005F1AD1FFF739
:10599000EFFB401B0228F5D9032068E1864A136813
:1059A00023F480531360FFF7E3FB0546824B1B682B
:1059B00013F4005F06D0FFF7DBFB401B0228F5D98C
:1059C000032054E1236813F0040F21D1636A002BF4
:1059D00000F04C81784A126902F03802182A00F06F
:1059E000F380022B75D0744A136823F08073136020
:1059F000FFF7BEFB0446704B1B6813F0007F00F0FE
:105A0000D880FFF7B5FB001B0228F4D903202EE154
:105A10006A4A136843F480731360FFF7A9FB0546D5
:105A2000664B1B6813F4807F06D1FFF7A1FB401B78
:105A30006428F5D903201AE1A368012B0AD00BBB17
:105A40005D4B1A6F22F001021A671A6F22F00402EE
:105A50001A6704E0584A136F43F001031367A36801
:105A600033B3FFF785FB0546534B1B6F13F0020F53
:105A7000ACD1FFF77DFB401B41F288339842F3D94C
:105A80000320F4E0052B09D04B4B1A6F22F00102E2
:105A90001A671A6F22F004021A67E0E7464B1A6F82
:105AA00042F004021A671A6F42F001021A67D6E741
:105AB000FFF75EFB0546404B1B6F13F0020F85D0CE
:105AC000FFF756FB401B41F288339842F3D903207D
:105AD000CDE0394A136823F080731360FFF748FB69
