:020000040800F2
:1000000000000524C5C1000805C3000807C3000897
:1000100009C300080BC300080DC30008000000005E
:10002000000000000000000000000000F164000873
:100030000FC3000800000000916500083562000849
:1000400015C2000815C2000815C2000815C2000834
:1000500015C2000815C2000815C2000815C2000824
:1000600015C2000815C2000815C2000815C2000814
:1000700015C2000815C2000815C2000815C2000804
:1000800015C2000815C2000815C2000815C20008F4
:1000900015C2000815C2000815C2000815C20008E4
:1000A00015C2000815C2000815C2000815C20008D4
:1000B00015C2000815C2000815C2000815C20008C4
:1000C00015C2000815C2000815C2000815C20008B4
:1000D00015C2000815C2000815C2000815C20008A4
:1000E00015C2000815C200080000000015C2000873
:1000F00015C2000815C2000815C2000815C2000884
:1001000015C2000815C2000815C2000815C2000873
:1001100015C2000815C20008694B000815C2000886
:1001200015C2000815C2000815C2000815C2000853
:1001300015C2000815C2000815C2000815C2000843
:1001400000000000000000000000000000000000AF
:1001500015C2000815C2000815C2000815C2000823
:1001600015C2000815C2000815C2000815C2000813
:1001700015C2000815C2000815C2000800000000E2
:1001800015C2000815C2000815C2000815C20008F3
:1001900015C2000815C2000815C2000815C20008E3
:1001A00015C2000815C2000815C2000800000000B2
:1001B00015C2000815C2000815C2000815C20008C3
:1001C00015C2000815C20008000000000000000071
:1001D000000000000000000015C200080000000040
:1001E000000000000000000000000000000000000F
:1001F000000000000000000015C2000815C2000841
:1002000015C2000815C200080000000015C2000851
:1002100015C2000815C2000815C2000815C2000862
:1002200015C200080000000015C200080000000010
:1002300015C2000815C200080000000015C2000821
:1002400015C2000815C2000815C2000815C2000832
:1002500015C2000815C2000815C2000815C2000822
:1002600015C2000815C2000815C2000815C2000812
:1002700015C2000815C2000815C2000800000000E1
:1002800015C2000815C2000815C2000815C20008F2
:100290000000000015C2000815C2000800000000A0
:1002A0000000000015C2000815C2000815C20008B1
:1002B00015C2000815C2000815C2000815C20008C2
:0C02C00015C2000815C2000815C2000895
:1002D00010B5054C237833B9044B13B10448AFF380
:1002E00000800123237010BD2802002400000000BC
:1002F0000405010808B5034B1BB103490348AFF3DC
:10030000008008BD000000002C0200240405010844
:1003100081F0004102E000BF83F0004330B54FEAB6
:1003200041044FEA430594EA050F08BF90EA020F23
:100330001FBF54EA000C55EA020C7FEA645C7FEAB6
:10034000655C00F0E2804FEA5454D4EB5555B8BFD9
:100350006D420CDD2C4480EA020281EA030382EA4A
:10036000000083EA010180EA020281EA0303362DDC
:1003700088BF30BD11F0004F4FEA01314FF4801CAF
:100380004CEA113102D0404261EB410113F0004FC1
:100390004FEA03334CEA133302D0524263EB430378
:1003A00094EA050F00F0A780A4F10104D5F1200E16
:1003B0000DDB02FA0EFC22FA05F2801841F1000171
:1003C00003FA0EF2801843FA05F359410EE0A5F145
:1003D00020050EF1200E012A03FA0EFC28BF4CF076
:1003E000020C43FA05F3C01851EBE37101F000452C
:1003F00007D54FF0000EDCF1000C7EEB00006EEB39
:100400000101B1F5801F1BD3B1F5001F0CD34908C2
:100410005FEA30004FEA3C0C04F101044FEA445219
:1004200012F5800F80F09A80BCF1004F08BF5FEAA0
:10043000500C50F1000041EB045141EA050130BD80
:100440005FEA4C0C404141EB0101013C28BFB1F592
:10045000801FE9D291F0000F04BF01460020B1FADD
:1004600081F308BF2033A3F10B03B3F120020CDAB0
:100470000C3208DD02F1140CC2F10C0201FA0CF08E
:1004800021FA02F10CE002F11402D8BFC2F1200CF3
:1004900001FA02F120FA0CFCDCBF41EA0C019040A9
:1004A000E41AA2BF01EB0451294330BD6FEA0404F2
:1004B0001F3C1CDA0C340EDC04F11404C4F12002DD
:1004C00020FA04F001FA02F340EA030021FA04F3EF
:1004D00045EA030130BDC4F10C04C4F1200220FA46
:1004E00002F001FA04F340EA0300294630BD21FA84
:1004F00004F0294630BD94F0000F83F4801306BF4A
:1005000081F480110134013D4EE77FEA645C18BF3D
:100510007FEA655C29D094EA050F08BF90EA020FD4
:1005200005D054EA000C04BF1946104630BD91EACC
:10053000030F1EBF0021002030BD5FEA545C05D1CF
:100540004000494128BF41F0004130BD14F580040E
:100550003CBF01F5801130BD01F0004545F0FE4182
:1005600041F470014FF0000030BD7FEA645C1ABFB7
:10057000194610467FEA655C1CBF0B46024650EAEE
:10058000013406BF52EA033591EA030F41F400211A
:1005900030BD00BF90F0000F04BF0021704730B5A0
:1005A0004FF4806404F132044FF000054FF0000175
:1005B00050E700BF90F0000F04BF0021704730B536
:1005C0004FF4806404F1320410F0004548BF40420B
:1005D0004FF000013EE700BF42004FEAE2014FEA60
:1005E00031014FEA02701FBF12F07F4393F07F4F3B
:1005F00081F06051704732F07F4208BF704793F03E
:100600007F4F04BF41F40021704730B54FF4607450
:1006100001F0004521F000411CE700BF50EA010253
:1006200008BF704730B54FF000050AE050EA0102FC
:1006300008BF704730B511F0004502D5404261EB6C
:1006400041014FF4806404F132045FEA915C3FF4AD
:10065000D8AE4FF003025FEADC0C18BF03325FEA4A
:10066000DC0C18BF033202EBDC02C2F1200300FAFB
:1006700003FC20FA02F001FA03FE40EA0E0021FA20
:1006800002F11444BDE600BF70B54FF0FF0C4CF40E
:10069000E06C1CEA11541DBF1CEA135594EA0C0FC0
:1006A00095EA0C0F00F0DEF82C4481EA030621EAFB
:1006B0004C5123EA4C5350EA013518BF52EA033536
:1006C00041F4801143F4801338D0A0FB02CE4FF0E8
:1006D0000005E1FB02E506F00042E0FB03E54FF018
:1006E0000006E1FB03569CF0000F18BF4EF0010E10
:1006F000A4F1FF04B6F5007F64F5407404D25FEA0C
:100700004E0E6D4146EB060642EAC62141EA5551BE
:100710004FEAC52040EA5E504FEACE2EB4F1FD0C00
:1007200088BFBCF5E06F1ED8BEF1004F08BF5FEA7E
:10073000500E50F1000041EB045170BD06F0004630
:1007400046EA010140EA020081EA0301B4EB5C04DD
:10075000C2BFD4EB0C0541EA045170BD41F48011D5
:100760004FF0000E013C00F3AB8014F1360FDEBFFA
:10077000002001F0004170BDC4F10004203C35DAD6
:100780000C341BDC04F11404C4F1200500FA05F359
:1007900020FA04F001FA05F240EA020001F00042FA
:1007A00021F0004110EBD37021FA04F642EB060170
:1007B0005EEA430E08BF20EAD37070BDC4F10C049A
:1007C000C4F1200500FA04F320FA05F001FA04F25E
:1007D00040EA020001F0004110EBD37041F100014A
:1007E0005EEA430E08BF20EAD37070BDC4F1200555
:1007F00000FA05F24EEA020E20FA04F301FA05F2BD
:1008000043EA020321FA04F001F0004121FA04F264
:1008100020EA020000EBD3705EEA430E08BF20EA34
:10082000D37070BD94F0000F0FD101F0004640006E
:1008300041EB010111F4801F08BF013CF7D041EAF0
:10084000060195F0000F18BF704703F000465200F4
:1008500043EB030313F4801F08BF013DF7D043EAC5
:100860000603704794EA0C0F0CEA135518BF95EA7B
:100870000C0F0CD050EA410618BF52EA4306D1D102
:1008800081EA030101F000414FF0000070BD50EA21
:10089000410606BF1046194652EA430619D094EAAB
:1008A0000C0F02D150EA013613D195EA0C0F05D195
:1008B00052EA03361CBF104619460AD181EA0301E9
:1008C00001F0004141F0FE4141F470014FF00000A1
:1008D00070BD41F0FE4141F4780170BD70B54FF03C
:1008E000FF0C4CF4E06C1CEA11541DBF1CEA1355BC
:1008F00094EA0C0F95EA0C0F00F0A7F8A4EB05049E
:1009000081EA030E52EA03354FEA013100F0888094
:100910004FEA03334FF0805545EA131343EA12635D
:100920004FEA022245EA111545EA10654FEA002612
:100930000EF000419D4208BF964244F1FD0404F5CB
:10094000407402D25B084FEA3202B61A65EB030527
:100950005B084FEA32024FF480104FF4002CB6EBE4
:10096000020E75EB030E22BFB61A754640EA0C0064
:100970005B084FEA3202B6EB020E75EB030E22BFA4
:10098000B61A754640EA5C005B084FEA3202B6EBE5
:10099000020E75EB030E22BFB61A754640EA9C00A4
:1009A0005B084FEA3202B6EB020E75EB030E22BF74
:1009B000B61A754640EADC0055EA060E18D04FEA32
:1009C000051545EA16754FEA06164FEAC30343EAD2
:1009D00052734FEAC2025FEA1C1CC0D111F4801F9F
:1009E0000BD141EA00014FF000004FF0004CB6E798
:1009F00011F4801F04BF01430020B4F1FD0C88BF37
:100A0000BCF5E06F3FF6AFAEB5EB030C04BFB6EB41
:100A1000020C5FEA500C50F1000041EB045170BD34
:100A20000EF0004E4EEA113114EB5C04C2BFD4EB61
:100A30000C0541EA045170BD41F480114FF0000EE5
:100A4000013C90E645EA060E8DE60CEA135594EA61
:100A50000C0F08BF95EA0C0F3FF43BAF94EA0C0F64
:100A60000AD150EA01347FF434AF95EA0C0F7FF4D9
:100A700025AF104619462CE795EA0C0F06D152EA2D
:100A800003353FF4FDAE1046194622E750EA410611
:100A900018BF52EA43067FF4C5AE50EA41047FF422
:100AA0000DAF52EA43057FF4EBAE12E74FF0FF3C87
:100AB00006E000BF4FF0010C02E000BF4FF0010C58
:100AC0004DF804CD4FEA410C7FEA6C5C4FEA430CD1
:100AD00018BF7FEA6C5C1BD001B050EA410C0CBF20
:100AE00052EA430C91EA030F02BF90EA020F002082
:100AF000704710F1000F91EA030F58BF994208BFE9
:100B000090422CBFD8176FEAE37040F001007047A5
:100B10004FEA410C7FEA6C5C02D150EA013C07D1FC
:100B20004FEA430C7FEA6C5CD6D152EA033CD3D047
:100B30005DF8040B704700BF8446104662468C4641
:100B40001946634600E000BF01B5FFF7B7FF002874
:100B500048BF10F1000F01BD4DF808EDFFF7F4FF9D
:100B60000CBF012000205DF808FB00BF4DF808ED28
:100B7000FFF7EAFF34BF012000205DF808FB00BF4B
:100B80004DF808EDFFF7E0FF94BF012000205DF86D
:100B900008FB00BF4DF808EDFFF7CEFF94BF012022
:100BA00000205DF808FB00BF4DF808EDFFF7C4FF1B
:100BB00034BF012000205DF808FB00BF4FEA41026E
:100BC00012F5001215D211D56FF47873B3EB62529F
:100BD00012D94FEAC12343F0004343EA505311F0C6
:100BE000004F23FA02F018BF404270474FF0000058
:100BF000704750EA013005D111F0004008BF6FF096
:100C0000004070474FF00000704700BF53B94AB929
:100C1000002908BF00281CBF4FF0FF314FF0FF3004
:100C200000F074B9ADF1080C6DE904CE00F006F8DF
:100C3000DDF804E0DDE9022304B070472DE9F04758
:100C4000089D04468E46002B4DD18A42944669D9B0
:100C5000B2FA82F252B101FA02F3C2F1200120FA93
:100C600001F10CFA02FC41EA030E94404FEA1C48E1
:100C7000210CBEFBF8F61FFA8CF708FB16E341EADD
:100C8000034306FB07F199420AD91CEB030306F163
:100C9000FF3080F01F81994240F21C81023E634484
:100CA0005B1AA4B2B3FBF8F008FB103344EA034428
:100CB00000FB07F7A7420AD91CEB040400F1FF333D
:100CC00080F00A81A74240F207816444023840EA7A
:100CD0000640E41B00261DB1D4400023C5E90043B3
:100CE0003146BDE8F0878B4209D9002D00F0EF8036
:100CF0000026C5E9000130463146BDE8F087B3FA69
:100D000083F6002E4AD18B4202D3824200F2F98050
:100D1000841A61EB030301209E46002DE0D0C5E953
:100D2000004EDDE702B9FFDEB2FA82F2002A40F09F
:100D30009280A1EB0C014FEA1C471FFA8CFE0126A2
:100D4000200CB1FBF7F307FB131140EA01410EFB46
:100D500003F0884208D91CEB010103F1FF3802D2ED
:100D6000884200F2CB804346091AA4B2B1FBF7F0E7
:100D700007FB101144EA01440EFB00FEA64508D90A
:100D80001CEB040400F1FF3102D2A64500F2BB8047
:100D90000846A4EB0E0440EA03409CE7C6F1200796
:100DA000B34022FA07FC4CEA030C20FA07F401FADC
:100DB00006F31C43F9404FEA1C4900FA06F3B1FB65
:100DC000F9F8200C1FFA8CFE09FB181140EA0141CA
:100DD00008FB0EF0884202FA06F20BD91CEB010167
:100DE00008F1FF3A80F08880884240F28580A8F1BF
:100DF00002086144091AA4B2B1FBF9F009FB101111
:100E000044EA014100FB0EFE8E4508D91CEB0101AE
:100E100000F1FF346CD28E456AD90238614440EA51
:100E20000840A0FB0294A1EB0E01A142C846A646D1
:100E300056D353D05DB1B3EB080261EB0E0101FA5A
:100E400007F722FA06F3F1401F43C5E900710026B7
:100E50003146BDE8F087C2F12003D8400CFA02FC0D
:100E600021FA03F3914001434FEA1C471FFA8CFE1D
:100E7000B3FBF7F007FB10360B0C43EA064300FB0D
:100E80000EF69E4204FA02F408D91CEB030300F1AB
:100E9000FF382FD29E422DD9023863449B1B89B262
:100EA000B3FBF7F607FB163341EA034106FB0EF3EB
:100EB0008B4208D91CEB010106F1FF3816D28B4298
:100EC00014D9023E6144C91A46EA004638E72E4664
:100ED000284605E70646E3E61846F8E64B45A9D25C
:100EE000B9EB020864EB0C0E0138A3E74646EAE7CB
:100EF000204694E74046D1E7D0467BE7023B614479
:100F000032E7304609E76444023842E7704700BFE1
:100F1000034613F8012B002AFBD1181A0138704739
:100F200001F0FF01102A2BDB10F0070F08D010F89A
:100F3000013B013A8B422DD010F0070F42B3F6D19E
:100F4000F0B441EA012141EA014122F007047FF0B7
:100F500000070023F0E80256083C85EA010586EA0E
:100F6000010685FA47F5A3FA87F586FA47F6A5FA4A
:100F700087F68EB9EED1F0BC01F0FF0102F0070256
:100F800032B110F8013B013A83EA010313B1F8D101
:100F90000020704701387047002D06BF35460338E2
:100FA000073815F0010F07D1013015F4807F02BF1B
:100FB000013015F4C03F0130F0BC0138704700BF6C
:100FC0004FEA410C7FEA6C5C02D150EA013C0AD145
:100FD0004FEA430C7FEA6C5C02D152EA033C02D137
:100FE0004FF0000070474FF00100704708B5012036
:100FF00005F0B9F9FBE708B54FF4FA7005F0B3F95D
:10100000FAE7000008B58021034807F061FA4FF4C1
:101010007A7005F0A8F9F6E70018025808B50449F7
:10102000044807F0F9F84FF4FA7005F09CF9F6E778
:101030000C000024941F0024F0B591B00025009509
:101040003C22294601A80BF001FA032000F082FAA5
:10105000284600F06DFA00F05BFD2A4800F0C2FA65
:1010600006F0BAFA074606F0B7FA274B9860C01B9D
:10107000B0F57A7F32D20135ADB2234C6268234994
:1010800068460CF03DF86A460A21084600F076FBF7
:1010900000268DF80060A2681D4968460CF030F803
:1010A0006A4616210A2000F069FB1A4B1A4A31469B
:1010B0008F2000F0B9F894F91130EBB1124B93F98D
:1010C0001230002BCFD1154A2E210A2000F056FBFA
:1010D000134A3A210A2000F051FBC4E72A4611497D
:1010E00068460CF00DF86A4622210A2000F046FB03
:1010F000054B9F680025C0E7084A2E210A2000F012
:101100003DFBDBE72000002408000024280501083F
:1011100034050108B41C0108400501084405010814
:10112000500501082005010838B5294804F058FE8B
:1011300004F02CFF0446274D2860274804F018FFD0
:1011400002462649204604F0EBFE2C689FED1E0B5C
:1011500004F0FCFE02462249204604F0E1FE2C6821
:1011600006F03AFAFFF716FA41EC100B04F0EEFE27
:1011700002461C49204604F0D3FE1B4A00211B48AE
:1011800005F092F81A4B18601A4A00211A4805F027
:101190008BF81A4B18601A4A00211A4805F084F897
:1011A000194B1860194C22460021194805F07CF8AB
:1011B000184B186022460021174805F075F8174BA8
:1011C000186038BDAFF30080000000000000000090
:1011D00000000024440200245C0501086C0501089D
:1011E0007405010880050108C8050108ED0F000815
:1011F00048020024EC050108051000084C020024F8
:10120000340601081D1000085402002410060108CD
:101210003910000850020024F70F0008580200247B
:1012200000487047080000242DE9F04186B00446CC
:101230000D4690461F460026029603960496059694
:101240004FF6FF7000F062F9164800F0CBF9222348
:1012500060222946204600F0FBFA4246124902A8C5
:101260000BF04EFF0534A4B202AA0521204600F07F
:1012700085FA8DF8086001220C4902A80BF040FFA6
:1012800005F10F0102AA89B2204600F077FA009713
:1012900020231A460121CE2000F0D8FD06B0BDE87B
:1012A000F08100BF200000245806010864060108F0
:1012B00070B58AB0002305930693079308930993AA
:1012C00002682E4B9A4201D00AB070BD03F50C3370
:1012D000D3F8F42042F02002C3F8F420D3F8F4202D
:1012E00002F020020192019AD3F8E02042F040027D
:1012F000C3F8E020D3F8E02002F040020292029A04
:10130000D3F8E02042F04002C3F8E020D3F8E02018
:1013100002F040020392039AD3F8E02042F0400228
:10132000C3F8E020D3F8E03003F040030493049BBB
:101330004FF4C24305930225069503230893052322
:1013400009930F4C05A9204606F0B2FF4FF48053D5
:1013500005930126069607950025089505A92046C0
:1013600006F0A6FF4FF400430593069607950895EF
:1013700005A9204606F09CFFA6E700BF0014005810
:101380000018025808B51248124B03604FF480034E
:1013900043604FF4C02383600723C36000230361CD
:1013A00043614FF000528261C36103624362836212
:1013B000C362436383632022C26303644364836420
:1013C000C36403654365836509F026FD08BD00BF5E
:1013D000740A00240014005800B583B08DF807008B
:1013E00000224FF40041074807F06CF84FF47A737D
:1013F00001220DF10701044809F0D6FD03B05DF8A4
:1014000004FB00BF00180258740A002400B583B022
:101410008DF8070001224FF40041074807F052F809
:101420004FF47A7301220DF10701044809F0BCFD65
:1014300003B05DF804FB00BF00180258740A0024D2
:1014400010B582B0044601224FF40041084807F06D
:1014500039F8230A8DF804308DF805404FF47A737B
:10146000022201A9034809F09FFD02B010BD00BF90
:1014700000180258740A002470B505460E46012271
:101480004FF400410A4807F01DF80A4C0F23E360AF
:10149000204609F0C1FC4FF47A73324629462046B3
:1014A00009F082FD0723E360204609F0B5FC70BD1A
:1014B00000180258740A00242DE9F04180460E46B7
:1014C00017461D462A20FFF787FF0F4CA37B03EB2F
:1014D000080080B2FFF7B4FFA07B384480B2FFF76A
:1014E000AFFF2B20FFF778FFE07B304480B2FFF79F
:1014F000A7FFE07B284480B2FFF7A2FF2C20FFF774
:101500006BFFBDE8F08100BF5C020024C0F30F2335
:1015100003F47843C0F34F1202F4FC62C0F3C4003A
:1015200013431843014B1860704700BF5C0200244E
:10153000C0F30F2303F47843C0F34F1202F4FC62AC
:10154000C0F3C40013431843014B5860704700BFF9
:101550005C02002408B5224B587230B1022812D028
:1015600001281ED003282BD008BD3620FFF734FFFA
:101570007020FFF74BFF1A4B00229A73DA73F022A8
:101580005A819A81F0E73620FFF726FF0020FFF707
:101590003DFF134B00229A73DA73F0225A819A812D
:1015A000E2E73620FFF718FFA020FFF72FFF0C4BD4
:1015B00050229A730022DA73F0225A819A81D3E77B
:1015C0003620FFF709FFC020FFF720FF044B002261
:1015D0009A735022DA73F0225A819A81C4E700BFCD
:1015E0005C020024014B1860704700BF6C020024AD
:1015F0002DE9F0418846A2F12007FFB200239E4664
:101600001E4621E0234A5168234A22F81E1064082E
:101610000EF1010E1FFA8EFE01339BB2AA889A4288
:101620000FD00CF1010C1FFA8CFCBCF1070F09D88C
:1016300014F0010FE6D0174A1168174A22F81E105D
:10164000E5E700230136B6B2144A15682C89B44286
:1016500006D92A6804FB0764145D4FF0000CE4E728
:10166000AA88024492B2EB8843449BB2013B013A00
:101670009BB292B24146FFF71FFF084B1B68998847
:10168000DB8811FB03F189B20348FFF7F5FEBDE8E3
:10169000F08100BF5C020024700200246C02002470
:1016A0002DE9F84380468946002604E00236B6B2AA
:1016B0006B89B34210D92E4B1D682C682B8906FB11
:1016C000033314F803C01778BC45EFD10133E45C51
:1016D00053789C42EAD100E0002600231F461A46B8
:1016E00020E024494868244921F81200013292B2CE
:1016F000640801339BB2B5F804C09C450FD00EF1CD
:10170000010E1FFA8EFEBEF1070F09D814F0010F6B
:10171000E7D018490868184921F81200E6E70023C5
:101720000137BFB2B5F808C0BC4507D92C680CFB1F
:10173000067C14F80C404FF0000EE4E7AA884244FF
:1017400092B2EB884B449BB2013B013A9BB292B2FE
:1017500049464046FFF7B0FE054B1B689988DB8879
:1017600011FB03F189B20448FFF786FEBDE8F88358
:10177000700A00245C0200247002002470B5054643
:101780000E46144609E031462846FFF731FF0C4B60
:101790001B6898880544ADB20134227872B112F00A
:1017A000800FF0D0224631462846FFF779FF054BDF
:1017B0001B6898880544ADB20334EEE770BD00BFE6
:1017C0006C020024700A0024014B1872704700BF9D
:1017D0005C02002470B51646002306E00A4C25681A
:1017E0000A4C24F8135001339BB2B342F6D373185A
:1017F0009BB2013B9BB20246FFF75EFE31460348B7
:10180000FFF73AFE70BD00BF5C02002470020024A6
:1018100070B516464FF0000C08E00B4C25680B4CD9
:1018200024F81C500CF1010C1FFA8CFCB445F4D3C5
:10183000321892B2013A0B4692B2FFF73DFE3146A2
:101840000248FFF719FE70BD5C02002470020024FC
:10185000F8B504460D4617461E46FFF7D9FFA919ED
:1018600089B201393A4689B22046FFF7D1FF3246A4
:1018700029462046FFF7AEFFE01980B20138324614
:10188000294680B2FFF7A6FFF8BD2DE9F0410746D3
:101890000E4615469846069C00E0C4B13B685B695D
:1018A00036EA03030CBF4FF0010C4FF0000CAC45BF
:1018B0000AD106F0A5FBA0EB0800A042EDD3B4F1DD
:1018C000FF3FEAD0032000E00020BDE8F0810320C4
:1018D000FBE7000010B402685369916941F0080108
:1018E000916101688A6942F010028A6101680A68A0
:1018F00022F001020A6001680C69294A22400A614B
:1019000001688A6822F440428A6090F88120D2B24D
:10191000042A0DD013F0200F0AD0D0F8842042F012
:101920008002C0F8842001688A6942F020028A613E
:1019300090F88120D2B2032A0DD013F0400F0AD0C4
:10194000D0F8842042F00402C0F8842001688A693B
:1019500042F040028A6113F4007F0AD0D0F884205C
:1019600042F00102C0F8842001688A6942F40072E2
:101970008A6113F4807F0AD0D0F8843043F00803E2
:10198000C0F884300268936943F480739361002344
:10199000A0F86230A0F86A305DF8044B704700BFD1
:1019A00090FCFFFF2DE9F04383B090F88030012BCD
:1019B00000F0A98004460E461546012380F88030C9
:1019C00006F01EFB074694F881805FFA88F8B8F1AC
:1019D000010F2CD1032384F881300023C4F8843014
:1019E000AAB2A4F86020A4F8622046EA0649636619
:1019F000A4F86830A4F86A30636723672268136824
:101A000043F40063136022685168404B0B405360FD
:101A10002268136843F0010313606368B3F5800F15
:101A200010D12268136843F4007313600AE00023A6
:101A300084F880304FF00208404603B0BDE8F083E0
:101A40001684013D1DB32268536913F0020F08D0BC
:101A5000012DF5D9E36B002BF2D0C2F82090023DA6
:101A6000F0E706F0CDFAC01BB0F57A7FEAD3204646
:101A7000FFF730FF002384F88030D4F8843043F43B
:101A80008073C4F88430012384F88130D4E74FF4A4
:101A90007A7300933B4600224FF480512046FFF7B3
:101AA000F4FE28B1D4F8843043F02003C4F8843025
:101AB0002268136843F4806313604FF47A730093D1
:101AC0003B4600224FF400612046FFF7DEFE28B1BE
:101AD000D4F8843043F02003C4F884302046FFF764
:101AE000F9FE2268936943F400639361002384F84C
:101AF0008030012384F88130D4F88430002B9BD1CE
:101B00004FF0000898E74FF0020895E70000FFFF4C
:101B100038B5124D6A89AB89013B013A9BB292B24A
:101B200000210846FFF7C8FC01224FF400410C4891
:101B300006F0C8FC0B4C0F23E360204609F06CF95B
:101B40006B89AA8903FB02F2A9882046FFF72AFFC6
:101B50000723E360204609F05FF938BD5C020024EA
:101B600000180258740A002408B5FFF70BFC0A207D
:101B700006F04CFA3620FFF72FFC0020FFF746FC5A
:101B80003A20FFF729FC0520FFF740FCB220FFF7C1
:101B900023FC0C20FFF73AFC0C20FFF737FC002059
:101BA000FFF734FC3320FFF731FC3320FFF72EFC26
:101BB000B720FFF711FC3520FFF728FCBB20FFF70B
:101BC0000BFC1920FFF722FCC020FFF705FC2C209E
:101BD000FFF71CFCC220FFF7FFFB0120FFF716FCFC
:101BE000C320FFF7F9FB1220FFF710FCC420FFF71A
:101BF000F3FB2020FFF70AFCC620FFF7EDFB0F20C8
:101C0000FFF704FCD020FFF7E7FBA420FFF7FEFB63
:101C1000A120FFF7FBFBE020FFF7DEFBD020FFF762
:101C2000F5FB0420FFF7F2FB0D20FFF7EFFB11207F
:101C3000FFF7ECFB1320FFF7E9FB2B20FFF7E6FB98
:101C40003F20FFF7E3FB5420FFF7E0FB4C20FFF7BA
:101C5000DDFB1820FFF7DAFB0D20FFF7D7FB0B2089
:101C6000FFF7D4FB1F20FFF7D1FB2320FFF7CEFBAC
:101C7000E120FFF7B1FBD020FFF7C8FB0420FFF7FE
:101C8000C5FB0C20FFF7C2FB1120FFF7BFFB1320A1
:101C9000FFF7BCFB2C20FFF7B9FB3F20FFF7B6FB9B
:101CA0004420FFF7B3FB5120FFF7B0FB2F20FFF7D5
:101CB000ADFB1F20FFF7AAFB1F20FFF7A7FB20208B
:101CC000FFF7A4FB2320FFF7A1FB2120FFF784FBF4
:101CD0001120FFF781FB782006F098F92920FFF703
:101CE0007BFB0220FFF736FC0020FFF721FC6FF0A2
:101CF0007F40FFF70BFCFFF70BFF0648FFF772FC76
:101D00000020FFF761FD01224FF48051024806F0E8
:101D1000D9FB08BD2C000024001802582DE9F04121
:101D200084B090F88030012B00F08C8004460E4681
:101D30009046012380F8803006F062F9074694F857
:101D40008150EDB2012D22D1032384F8813000238C
:101D5000C4F88430CDF80C80636723672268136869
:101D600043F40063136022685168374B0B405360A3
:101D70002268136843F0010313606368B3F5800FB2
:101D800010D12268136843F4007313600AE0002343
:101D900084F88030022551E036F8023B1384039B1F
:101DA000013B0393039A8AB12268536913F0020F2F
:101DB000F8D0039B012BEFD9E36B002BECD056F846
:101DC000043B1362039B023B0393EBE74FF47A73EC
:101DD00000933B464FF480512046FFF756FD28B153
:101DE000D4F8843043F02003C4F8843022681368A8
:101DF00043F4806313604FF47A7300933B460022F0
:101E00004FF400612046FFF740FD28B1D4F884303C
:101E100043F02003C4F884302046FFF75BFD2268BE
:101E2000936943F400639361002384F880300123B5
:101E300084F88130D4F8843003B90025284604B0F2
:101E4000BDE8F0810225F9E70000FFFF70B51446F8
:101E50001D4600EB020C1FFA8CFC01EB030E1FFA6F
:101E60008EFE0EF1FF3E0CF1FF3C1FFA8EF31FFABF
:101E70008CF2FFF721FB01224FF400410A4806F0E3
:101E800021FB0A4E0F23F360304608F0C5FF05FB27
:101E900004F204993046FFF741FF0723F360304610
:101EA00008F0BAFF70BD00BF00180258740A002481
:101EB00030B587B0002401940294039404940594EF
:101EC0000F4BD3F8E02042F04002C3F8E020D3F8F3
:101ED000E03003F040030093009B0A4D224680212E
:101EE000284606F0EFFA802301930123029303941E
:101EF000049401A9284606F0DBF907B030BD00BF05
:101F0000004402580018025800B5ADF5805D83B05A
:101F100001221349134801F027FE134B187038B9FA
:101F200012480BF06BF80DF5805D03B05DF804FB13
:101F30000F480BF063F84FF48053009302AB00227C
:101F40000121074802F0F6F9074B187018B9094843
:101F50000BF054F8E7E708480BF050F8E3E700BF50
:101F6000B4240108000B0024FC0A0024B824010852
:101F7000E0240108182501083825010830B583B090
:101F800001AA69460E4802F060F9019BDC69023C37
:101F90005B8903FB04F4009D03FB05F52403A40AFD
:101FA0002D03AD0A07480BF029F8214606480AF030
:101FB0009FFF294605480AF09BFF03B030BD00BFD4
:101FC000B42401086C250108AC250108C8250108C6
:101FD00030B5ADF5825D85B06C463F4D0FCD0FC479
:101FE0000FCD0FC42B6824F8023B1B0C23703B4819
:101FF0000BF004F80A223A490AA801F0DDFD394B3A
:102000001870002841D138480AF0F8FF09AB2322A4
:1020100069460AA801F0B4FF324B187068BB334818
:102020000AF0ECFF694632480AF062FF0AA802F0A3
:10203000FCF830480AF0E2FF012229490AA801F021
:10204000BBFD284D287009AB23222B490AA801F0BB
:10205000B1FE04462870002836D128480AF0CEFF89
:10206000222C25D814AB234413F8502C224B1B5D93
:102070009A4215D10134E4B2F2E721480AF0BEFFDA
:102080000AA802F0D2F8012006E01E480AF0B6FFC6
:102090000AA802F0CAF801200DF5825D05B030BD36
:1020A00019480AF0ABFF0AA802F0BFF80120F3E7D5
:1020B00016480AF0A3FF10490D480AF019FF0AA8B4
:1020C00002F0B3F80020E7E711480AF097FF0AA8EA
:1020D00002F0ABF80120DFE718280108E425010829
:1020E00024260108FC0A0024382601086C26010871
:1020F0009026010898260108381B00245027010863
:10210000D02601080C2701087C270108B427010804
:10211000DC2701082DE9F0418AB0002305930693DE
:102120000793089309930268324B9A4202D00AB08F
:10213000BDE8F081304BD3F8D42042F40012C3F84C
:10214000D420D3F8D42002F400120192019AD3F8DB
:10215000D42042F48042C3F8D420D3F8D42002F42F
:1021600080420292029ADA6F42F48042DA67DA6FB2
:1021700022F48042DA67D3F8E02042F02002C3F86C
:10218000E020D3F8E02002F020020392039AD3F873
:10219000E02042F04002C3F8E020D3F8E03003F042
:1021A00040030493049B4FF4707305930225069536
:1021B000032408940A260996DFF8448005A94046BE
:1021C00006F076F84FF4806305930695002707978D
:1021D00008940923099305A9404606F069F84023AD
:1021E0000593069507970894099605A9034806F0F4
:1021F0005FF89CE700500052004402580018025853
:102200000014025830B587B0002200920192029269
:102210000392049205921A4B03E0002103F8011B7C
:1022200001325B2AF9D9164C164D2560204606F07E
:10223000DCFA256002236362082262600023A36047
:10224000E3601721216101256561A361E5612362D6
:102250004FF08041A162E36223636263A363E3639F
:10226000204606F047FC009502954FF001130393BA
:1022700041F288326946204606F0C0FC07B030BD06
:10228000381F00240050005200B59BB00023069375
:102290000793012209920A930B930C930D934FF429
:1022A00000510E910F9311934FF08071149116937A
:1022B00015921793189319930523089341F28832C6
:1022C00006A90F4806F0A5FA98B9002301930393D5
:1022D000102305934FF4800304930123029341F2EA
:1022E000883201A9064806F0A5FB28B91BB05DF8A5
:1022F00004FB6FF00200F9E76FF00200F6E700BFA1
:10230000381F002410B596B00023029303930122D6
:1023100005920693079309934FF400520A920D9386
:102320004FF0807210921293032211921393149320
:1023300015939F2304930C4C41F2883202A9204646
:1023400006F067FA41F2883201A9204606F00FFB39
:102350009DF804009DF805301B0243EA00439DF8F8
:102360000600184316B010BD381F002408B5FFF74B
:1023700049FFFFF7C7FF0146064B984204D10648C4
:102380000AF0B6FD002008BD04480AF0B1FD4FF088
:10239000FF30F8E71740EF003C28010858280108F3
:1023A00000B59BB0002306930793012209920A937C
:1023B0000B930C930D934FF400520E920F931393C3
:1023C0001193149316931793189319930623089354
:1023D00041F2883206A91D4806F01BFA00282CD1CC
:1023E000002306930793012209920A930B930D93FE
:1023F00011931793189319934FF0807314931592B8
:102400000523089341F2883206A9104806F001FA24
:10241000B0B90223019300220392102205924FF4D7
:1024200080020492029341F2883201A9074806F023
:1024300001FB40B91BB05DF804FB6FF00100F9E748
:102440006FF00100F6E76FF00200F3E7381F002499
:1024500000B595B0002300930193012203920493E9
:10246000059306904FF4807207924FF40052089241
:1024700009930B930E9310931193129313932023AC
:102480000293FFF78DFF60B941F28832694609482F
:1024900006F0BFF940B9FFF7F7FE40B915B05DF897
:1024A00004FB6FF00100F9E76FF00200F6E76FF050
:1024B0000200F3E7381F002410B594B0044600234F
:1024C000009301933220029001200390049305931E
:1024D00006914FF4807107914FF4005108910993D0
:1024E0000B930D934FF040710E9110930F92119337
:1024F00012931393FFF754FF90B941F28832694663
:102500000D4806F086F970B941F2883221460A4832
:1025100006F0E0F950B9FFF7B7FE50B914B010BD9E
:102520006FF00100FAE76FF00400F7E76FF00400C6
:10253000F4E76FF00200F1E7381F0024F8B5064613
:102540000C46CDB2C5F58075954200D91546A71841
:1025500003E04FF48075A74210D9AAB22146304655
:10256000FFF7AAFF024638B92C442E4404F58073C5
:10257000BB42EED93D1BEEE76FF004021046F8BDFA
:1025800010B594B00446002300930193EB20029011
:10259000012003900493059306914FF44071079135
:1025A0004FF40051089109930B930D934FF0407134
:1025B0000E9110930F92062211921293139341F2EF
:1025C000883269460C4806F024F958B941F288323D
:1025D0002146094806F0CBF938B9FFF755FE38B95E
:1025E00014B010BD6FF00400FAE76FF00400F7E7D5
:1025F0006FF00200F4E700BF381F002472B6FEE758
:1026000000B59DB04C22002109A809F01FFF20222F
:10261000002101A809F01AFF022006F079FD00232D
:102620000093214B9A6922F440429A619B6903F41A
:1026300040430093009B1C4B9B6913F4005FFAD04E
:102640000223099301210C9140220D921293002242
:10265000139204201490222015901691179318932A
:102660000C2319931A924FF440631B9309A806F0A8
:1026700079FDA8B93F23019303210291002303931D
:10268000082304934023059306934FF48062079236
:10269000089301A807F056F920B91DB05DF804FBB6
:1026A000FFF7ACFFFFF7AAFF0048025808B50A4839
:1026B0000A4B0360002343608360C3604FF48032A1
:1026C000026143618361C36105F00AFD00B908BD81
:1026D000FFF794FFFBE700BF941F00240068005839
:1026E00002680A4B9A4200D0704782B003F5EE337D
:1026F000D3F8F42042F08062C3F8F420D3F8F43029
:1027000003F080630193019B02B07047006800589A
:10271000012801D00120704710B50446FFF7F2FDF3
:10272000034B984201D0204610BD0020FCE700BFBB
:102730001740EF00012801D00120704708B5FFF7CE
:1027400015FE002008BD012801D00420704708B5FF
:102750008C4611461A0309036046FFF711FF00205B
:1027600008BD012801D00420704770B50D461E46F3
:1027700014032046FFF76CFE320321462846FFF77C
:10278000DDFE002070BD012801D004207047022921
:102790000AD003290DD0012901D0002070474FF441
:1027A00000631360002070474FF4805313800020B3
:1027B00070474FF48033136000207047002070474B
:1027C0004278007840EA02207047C278837843EA72
:1027D0000222437843EA0223007840EA032070474C
:1027E0000170090A417070470170C1F307234370FB
:1027F000C1F307438370090EC1707047944632B12C
:102800000A78013102700130BCF1010CF8D1704737
:1028100001700130013AFBD1704784469CF80000FA
:102820000CF1010C0B780131C01A013A01D00028DB
:10283000F4D07047034600E00133187808B18842AD
:10284000FAD1704700207047002070470239C369F1
:10285000023B8B4204D9036B408901FB0030704777
:102860000020704770B506460D4601F11A00FFF7CB
:10287000A7FF3378032B00D070BD044605F1140088
:10288000FFF79EFF44EA0040F6E770B506460C46A7
:10289000154691B204F11A00FFF7A2FF3378032B1B
:1028A00000D070BD290C04F11400FFF799FFF8E780
:1028B0002DE9F84380460F4691464B730F23CB72A8
:1028C00000240C73214607F11A00FFF789FF09F174
:1028D000FF3606EB460306EB8306254602E001348D
:1028E0000C2C11D84FF6FF739D4202D038F81650C9
:1028F00001360C4B185D29463844FFF771FF002D57
:10290000EDD14FF6FF75EAE74FF6FF739D4202D017
:1029100038F816300BB949F0400987F80090BDE847
:10292000F88300BF48290108F0B583B00646154674
:102930001C460B22FFF762FF052C11D8072720E069
:1029400001310F290CD803F0010C0CEB44045B0897
:1029500014F4803FF4D084F4883484F02104EFE749
:102960002B88002BEAD002350021EAE77D1E07F113
:1029700008026A4402F8083C23090F2C0AD92F46A2
:102980001C4604F00F0202F13003392BEED902F19C
:102990003703EBE77E2205F108036B4403F8082CAC
:1029A000002400E00134AC4211D2305D20280ED06A
:1029B000FFF748FF0028F5D0BB1EA34207D0013423
:1029C000F0E72022631C3255072B09D81C46072D3F
:1029D000F7D805F108036B4413F8082C0135F1E72B
:1029E00003B0F0BD01464FF00B0C0020C30143EAD9
:1029F00050030878013150FA83F3D8B2BCF1010CCE
:102A0000F4D170478446016809B10A4603E04FF0EB
:102A1000FF307047013213783A2B18BF1F2BF9D8BB
:102A20003A2B01D00020704711F8010B30380928EB
:102A300007D88A4208D1012809D80132CCF80020F1
:102A400070474FF0FF3070474FF0FF3070474FF046
:102A5000FF30704738B50D46044698B103689BB106
:102A60001A78A2B18188DA88914203D00920002423
:102A70002C6038BD5878FFF74BFE10F0010009D1EB
:102A80002468F5E70920F3E71C460920F0E7092050
:102A90000024EDE709200024EAE770B5C5780DB9F8
:102AA000284670BD044600F138060123426B3146CA
:102AB0004078FFF756FE054688B90023E370616B46
:102AC000A36ACB1A226A9342EAD2A378022BE7D1F7
:102AD00001230A4431466078FFF743FEE0E7012511
:102AE000DEE770B5436B8B4202D10026304670BDE5
:102AF00004460D46FFF7D1FF06460028F6D1012314
:102B00002A4604F138016078FFF71DFE10B1012656
:102B10004FF0FF356563E9E738B504460023C3701D
:102B20004FF0FF334363FFF7DCFF20BB054604F2A1
:102B30003620FFF745FE4AF6552398421DD194F8FA
:102B40003830E92B07D0A36B03F0FF130C4A9342F4
:102B500001D0022512E003220A4904F16E00FFF7BA
:102B60005CFE58B10522084904F18A00FFF755FEC2
:102B700020B1022502E0042500E00325284638BDE7
:102B8000EB00900074280108782801082DE9F04F27
:102B900087B00D46164600230B60FFF733FF071E74
:102BA000C0F26C81BE4B53F82740002C00F06B81C3
:102BB0002C6006F0FE06237873B16078FFF7A8FD5D
:102BC00010F0010508D1002E00F0598110F0040F1B
:102BD00000F055810A2552E100232370F8B260709D
:102BE000FFF7A8FD10F0010F40F04F811EB110F06B
:102BF000040F40F04C8104F10C0202216078FFF7D1
:102C0000C2FD0546002840F04481A289A2F5007368
:102C10009BB2B3F5606F00F23E81531E1A4201D0A1
:102C200001252CE100212046FFF776FF022800F065
:102C300090800026042800F03081012800F23A81BB
:102C400004F14300FFF7BCFDB4F80C80404540F0B0
:102C5000338104F14E00FFF7B3FD074620B904F1BC
:102C60005C00FFF7B2FD0746276294F84820A27087
:102C7000531EDBB2012B00F2218107FB02F300930C
:102C800094F84590A4F80A90B9F1000F00F018816B
:102C900009F1FF3319EA030F40F0148104F14900F0
:102CA000FFF78EFD824620814FEA581BB0FBFBF3F5
:102CB0000BFB13039BB2002B40F0068104F14B0089
:102CC000FFF77EFD019020B904F15800FFF77DFD6C
:102CD000019004F14600FFF773FD0146002800F063
:102CE000F580009BC318BAFBFBFB5B44019A9A4238
:102CF000C0F0EE80D21AB2FBF9FB4A45C0F0EA8080
:102D0000684A93453DD9A9464FF6F572934501D8D7
:102D10004FF0020940F6F572934535D9B9F1000F2D
:102D200034D10D25ABE0002006AB03EB860343F85E
:102D3000100C0136032E0ED804F13800330103F5D0
:102D4000DF7318440379002BEDD00830FFF73DFD09
:102D5000EAE70026EEE700270AE031462046FFF7C3
:102D6000DBFE01287FF666AF0137032F3FF662AF27
:102D700006AB03EB870353F8106C002EEDD1032054
:102D8000F2E74FF00309BFE74FF001090BF1020B27
:102D9000C4F81CB066628A19A26233442363B9F195
:102DA000030F28D0BAF1000F00F09A80009B1A445C
:102DB000E262B9F1020F2FD00BEB4B020BF00103D3
:102DC00003EB52034344013BB3FBF8F8B84500F270
:102DD00089804FF0FF33A361636180232371B9F1D0
:102DE000030F1CD084F800902F4A138801339BB244
:102DF0001380E38043E004F16200FFF7E1FC002868
:102E00006AD1BAF1000F69D104F16400FFF7DDFC6B
:102E1000E0624FEA8B03D5E74FEA4B03D2E704F1B8
:102E20006800FFF7CDFC0128DCD1711C2046FFF7BC
:102E300058FE0028D6D10023237104F23620FFF774
:102E4000BFFC4AF655239842CCD104F13800FFF775
:102E5000BCFC164B9842C5D104F50770FFF7B5FCD2
:102E6000134B9842BED104F50870FFF7AEFCA06189
:102E700004F50970FFF7A9FC6061B3E70B2528464C
:102E800007B0BDE8F08F0C25F9E70325F7E70A2521
:102E9000F5E70125F3E70125F1E70125EFE700BF9D
:102EA000B81F0024F5FFFF0FC01F002452526141DC
:102EB000727241610D25E2E70D25E0E70D25DEE7A1
:102EC0000D25DCE70D25DAE70D25D8E70D25D6E73A
:102ED0000D25D4E70D25D2E70D25D0E70D25CEE74A
:102EE0000D25CCE70D25CAE72DE9F047012940F271
:102EF000968004460D461746C3698B4240F2918086
:102F00000378022B4FD0032B67D0012B03D002266E
:102F10003046BDE8F08701EB5108816A8389B8FB30
:102F2000F3F31944FFF7DDFD06460028F0D104F164
:102F3000380A08F10109A389B8FBF3F203FB1288F0
:102F400015F0010524D01AF9083003F00F033A01F7
:102F500002F47F621343DBB20AF808300123E37006
:102F6000A16AA389B9FBF3F319442046FFF7B9FD21
:102F700006460028CCD1A389B9FBF3F203FB1299D2
:102F800045B1C7F307120AF809200123E370BFE730
:102F9000FBB2E1E71AF9092022F00F02C7F3032779
:102FA0003A43D2B2EFE7816A83895B08B5FBF3F35A
:102FB0001944FFF796FD06460028A9D104F1380010
:102FC0006D00A389B5FBF3F203FB1255B9B2284497
:102FD000FFF706FC0123E3709AE7816A83899B0867
:102FE000B5FBF3F31944FFF77CFD064600288FD1AB
:102FF00027F0704704F13803AD00A289B5FBF2F168
:1030000002FB11551D442846FFF7DFFB00F070411D
:1030100039432846FFF7E8FB0123E37078E70226EF
:1030200076E7022674E7F8B5056801296CD90C46E5
:10303000EB698B426AD92B78022B37D0032B4BD00C
:10304000012B01D0012060E001EB5106A96AAB8998
:10305000B6FBF3F319442846FFF743FD10B14FF0D8
:10306000FF3052E0771CAB89B6FBF3F203FB12662C
:103070002E4496F83860A96AB7FBF3F31944284642
:10308000FFF72FFD002843D1AB89B7FBF3F203FB19
:1030900012773D4495F8380046EA002014F0010FFD
:1030A00001D0000931E0C0F30B002EE0A96AAB8922
:1030B0005B08B4FBF3F319442846FFF712FD50BB3D
:1030C00005F138006400AB89B4FBF3F203FB124452
:1030D0002044FFF775FB18E0A96AAB899B08B4FB95
:1030E000F3F319442846FFF7FCFCB8B905F13800A2
:1030F000A400AB89B4FBF3F203FB12442044FFF7B6
:1031000064FB20F0704000E00120F8BD0120FCE7E6
:103110004FF0FF30F9E74FF0FF30F6E74FF0FF30A8
:10312000F3E72DE9F041D0F80080B1F5001F4AD255
:1031300007460E4611F01F0F47D1016184682CB974
:1031400098F80030022B01D9D8F82C40ECB9B8F827
:103150000830B3EB561F3AD9D8F82C30BB617C61EC
:10316000BB69E3B3B8F80C20B6FBF2F21344BB61C1
:1031700008F13803B8F80C10B6FBF1F201FB12614C
:103180001944F9610020BDE8F081B8F80A50B8F898
:103190000C3003FB05F5AE420FD321463846FFF74E
:1031A00042FF0446B0F1FF3F13D0012813D9D8F8ED
:1031B0001C30834211D9761BEDE721464046FFF7CC
:1031C00045FBB861CBE70220DDE70220DBE7022008
:1031D000D9E70120D7E70220D5E70220D3E7022074
:1031E000D1E72DE9F041054606680F4651B9D6F8FA
:1031F0001480B8F1000F12D0F369434511D84FF095
:1032000001080EE0FFF70FFF034601286DD9B0F16A
:10321000FF3F6FD0F26982426CD8B84601E04FF0B0
:103220000108B369002B65D0B84501D0444645E09C
:1032300008F10104F369A34200D80224214628467C
:10324000FFF7F1FE0346B0F1FF3F18BF012851D050
:1032500038B17369012BE9D9F2699A42E6D99846E7
:10326000E4E7002CE2D04FF0FF3221463046FFF772
:103270003BFE0346B0FA80F04009002F08BF002053
:1032800028BB5BBB7461B269F369023B9A4201D807
:10329000013AB261337943F001033371234629E0E7
:1032A00021462846FFF7BFFE03460028DBD0B0F1D9
:1032B000FF3F18BF01281DD044451AD00134F369DF
:1032C000A342EDD8B8F1010F11D90224E8E7224654
:1032D00039463046FFF708FE0346D2E7012B01D0FE
:1032E000012307E04FF0FF3304E0012302E0002355
:1032F00000E000231846BDE8F081F8B50C460568EB
:1033000001292ED906461146EB69A3422BD94AB1B1
:103310004FF0FF322846FFF7E7FD074610B123E0E4
:10332000A24221D9274621463046FFF77CFE0446BB
:10333000E0B101281CD0B0F1FF3F1BD0002239467C
:103340002846FFF7D1FD074670B9AB69EA69911EBF
:103350008B42E5D20133AB612B7943F001032B7132
:10336000DEE7022700E002273846F8BD0027FBE72A
:103370000227F9E70127F7E7F8B505460C46FFF7FE
:103380008CFB08B10120F8BD21462846FFF75EFA04
:103390000646686305F13807AA8900213846FFF719
:1033A00037FA002400E001346B89A34207D90123D6
:1033B000A21939466878FFF7D4F90028F3D0688954
:1033C000001B18BF0120DEE72DE9F0410668046903
:1033D0008369002B53D005460F462034B4F5001FF7
:1033E0004FD2B189B4FBF1F201FB12423AB9013379
:1033F00083614169A1B93389B3EB541F0CD92C61A6
:1034000006F13803B289B4FBF2F102FB11441C440B
:10341000EC610020BDE8F081002383610420F9E71E
:10342000B289B4FBF2F27389013B1A42E7D1FFF78C
:10343000FAFD8046012826D9B0F1FF3F25D0F36977
:10344000834210D8BFB169692846FFF7CAFE80469B
:10345000E8B101281DD0B0F1FF3F1CD00146304635
:10346000FFF78AFFC8B9C5F8148041463046FFF718
:10347000EDF9A861C3E70023AB610420CAE704208B
:10348000C8E70420C6E70220C4E70120C2E70720FE
:10349000C0E70220BEE70120BCE70120BAE7F8B58B
:1034A00004460E4607680021FFF73BFE0246B8B906
:1034B000002506E0002501212046FFF785FF024692
:1034C00070B9A1693846FFF70CFB024640B9E369C1
:1034D0001B78002B18BFE52BECD10135B542EAD1A2
:1034E000042A01D01046F8BD0722FBE770B5044658
:1034F000FFF7D3FA054648B92378032B08D00022FA
:1035000011466078FFF73FF900B10125284670BDEC
:103510002379012BF3D104F13806A289002130462A
:10352000FFF776F94AF6552104F23620FFF758F9ED
:103530000E493046FFF758F90D4904F50770FFF7BB
:1035400053F9A16904F50870FFF74EF9616904F5B4
:103550000970FFF749F9626A01326263012331465B
:103560006078FFF7FEF800232371C8E752526141EB
:10357000727241612DE9F04F83B007468A46D1F857
:10358000009003681D690024A04621E00BF1010BA7
:1035900019F80B305C2B18BF2F2BF7D009EB0B035E
:1035A000CAF800301F2E45D84FF00409002C44D033
:1035B0006FF00043234435F81330202B18BF2E2B17
:1035C0003BD1013CF2E7D84621E025F814600134F4
:1035D00008F1010B19F8080086B21F2EDED95C2E07
:1035E00018BF2F2ED4D0FE2C00F20481FFF72AF949
:1035F0000028E8D008F1020819F80B003602B6B22C
:103600000644B6B2FFF720F9002800F0F58040F23A
:10361000B511304601F0EEF90646002800F0EE80C4
:103620007F28D2D801467748FFF704F90028CCD08C
:1036300006206FE04FF00009B8E7002325F81430AA
:10364000002C00F0DD800B2220217818FFF7E0F835
:10365000002300E0013335F813202E2A18BF202A5A
:10366000F8D01BB149F0030900E0013C6CB16FF0E8
:103670000042224435F812202E2AF6D14FF0080BD2
:103680004FF0000ACDF804A008E0A2464FF0080B66
:103690000022019202E049F00309434603F10108C8
:1036A00035F81360BEB1202EF5D02E2E14BF0023A6
:1036B0000123444508BF0023002BECD1444518BF2B
:1036C000DA4537D3BBF10B0F27D0444501D049F081
:1036D0000309444524D297F82030E52B7BD0BBF179
:1036E000080F7CD0019B03F00C020C2A03D003F0DE
:1036F0000303032B01D149F0020919F0020F06D18F
:10370000019B03F00303012B6ED0042A6FD087F8CE
:103710002B90002003B0BDE8F08F49F00309DAE7F1
:10372000019B9B00DBB2019323464FF00B0B4FF044
:10373000080AB3E77F2E0DD8FF2E20D90BF1FF33F7
:10374000534517D90AF10103C6F30722BA448AF890
:10375000202019E049F0020940F2B511304601F08D
:103760002FF9064610F0800FE6D000F07F06264BBA
:103770009E5DE1E749F003094346DA468EE756B914
:1037800049F0030953465F2603F1010A3B4483F8DD
:103790002060434682E731461C48FFF74BF800287B
:1037A000EED1A6F141039BB2192B05D8019B43F042
:1037B000020301935346E7E7A6F161039BB2192B7D
:1037C00007D8019B43F001030193203EB6B2534654
:1037D000DAE75346D8E7052387F820307FE7019BD7
:1037E0009B00DBB201937DE749F010098DE749F0BA
:1037F00008098CE706208DE706208BE7062089E77D
:10380000062087E780280108C82801088C280108BD
:103810002DE9F04781460F4601F11A00FEF7D0FF6F
:10382000C8BB3E7806F03F06013E06EB460306EBBA
:1038300083064FF00108002506E000202CE04FF63B
:10384000FF7398422AD101350C2D18D8174B585DBB
:103850003844FEF7B5FF0446B8F1000FEFD0FE2E56
:10386000EBD801F0DDF8804606F1010A39F81600C0
:1038700001F0D6F88045E0D1A0465646E3E73B7814
:1038800013F0400F0CD0B8F1000F0BD039F8163000
:1038900053B9012000E00020BDE8F0870020FBE7DD
:1038A0000120F9E70120F7E70020F5E748290108A2
:1038B0002DE9F8430446D0F800800021FFF731FCE1
:1038C0000646002864D14FF0FF33E3624FF0FF0952
:1038D0004F460AE04FF0FF33E362FF270021204606
:1038E000FFF772FD0646002852D1A1694046FFF756
:1038F000F8F8064600284BD1E5692B78002B46D016
:10390000E97A01F03F02A271E52BE3D011F0080F34
:1039100001D00F2ADED10F2A16D027B92846FFF78B
:1039200061F8484534D094F82B3013F0010F06D1DC
:103930000B2204F120012846FEF76FFF40B34FF041
:10394000FF33E362FF27C9E794F82B2012F0400F02
:10395000C4D113F0400F06D095F80D9003F0BF03CB
:103960002269E2621F46BB4201D0FF27B6E76B7BAC
:103970004B4501D0FF27B1E72946D8F81000FFF7E3
:1039800047FF10B1013FFFB2A8E7FF27A6E70426D3
:103990003046BDE8F88330B583B004460191056830
:1039A00001E001330193019B1A785C2A18BF2F2A8A
:1039B000F7D00022A2601B781F2B21D901A9204635
:1039C000FFF7D8FD034618BB2046FFF771FF94F8B8
:1039D0002B200346F8B912F0040F19D1A37913F084
:1039E000100F1FD005F138032169AA89B1FBF2F04D
:1039F00002FB101119442846FEF734FFA060DDE7F2
:103A0000802384F82B3011462046FFF78AFB0346BB
:103A1000184603B030BD0428FAD112F0040FF7D1D4
:103A20000523F5E70523F3E72DE9F04385B00668A4
:103A300090F82B3013F0A00F40F08E800746002442
:103A400000E00134336933F81430002BF9D107F169
:103A500020080C22414601A8FEF7D0FE9DF80F3049
:103A600013F0010F1CD0402387F82B30012500E014
:103A70000135632D0BD82B46326901A94046FEF76C
:103A800053FF3846FFF714FF81460028F0D0642D1D
:103A900065D0B9F1040F1BD19DF80F3087F82B309A
:103AA0009DF80F3013F0020F06D00C342D4BA3FB02
:103AB0000434A408013400E0012421463846FFF70D
:103AC000EEFC814608B9013C06D1B9F1000F29D0BE
:103AD000484605B0BDE8F0833969A1EB441138468A
:103AE000FFF71FFB81460028EFD14046FEF77AFF23
:103AF0000546B9693046FEF7F4FF81460028E4D157
:103B00002B46E2B2F9693069FEF7D2FE0123F37069
:103B100000213846FFF758FC81460028D5D1013CEA
:103B2000E7D1D2E7B9693046FEF7DBFF81460028CE
:103B3000CED120220021F869FEF76AFE0B22414611
:103B4000F869FEF75BFE97F82B30FA6903F018036B
:103B500013730123F370BBE74FF00609B8E74FF08A
:103B60000709B5E74FECC44E10B584B00190009141
:103B70001446039103A8FEF745FF002817DB0D4B01
:103B800053F820300BB100221A70019B0BB10022B8
:103B90001A70084B019A43F8202014B9204604B04B
:103BA00010BD002201A96846FEF7F0FFF7E70B20E1
:103BB000F5E700BFB81F00242DE9F043ADF5117DF6
:103BC0000191002800F0F4801546074602F03F06F8
:103BD000324683A901A8FEF7D9FF044638B10CB1DB
:103BE00000233B6020460DF5117DBDE8F083839BEB
:103BF000849303AA1A61019984A8FFF7CCFE0446B6
:103C000018B99DF93B32002B3FDB15F01C0F4DD04E
:103C1000002C41D0042C3AD046F00806002C54D198
:103C200016F0080F51D0DDF82C8241468398FEF73C
:103C300019FE0546FEF7C2FD014608F10E00FEF72B
:103C4000D3FD8B9B2022DA7200228B998398FEF79A
:103C50001CFE00218B981C30FEF7C6FD839B0122C1
:103C6000DA7095B3839BD3F834800022294684A868
:103C7000FFF743FB044640BB41468398FEF731FF04
:103C80000446013D839B5D611FE00624BDE784A8D7
:103C9000FFF7CAFE0446BFE79DF8163213F0110F76
:103CA00012D115F0040FB9D008240EE06CB99DF8BC
:103CB000163213F0100F42D115F0020F05D013F099
:103CC000010F02D007240BE007244CB916F0080FAF
:103CD00001D046F04006839B5B6B3B628B9B7B6213
:103CE000002C7FF47CAF839DDDF82C824146284672
:103CF000FEF7B8FDB86008F11C00FEF766FDF8603D
:103D00003D60EB88BB803E7400217974F961796174
:103D100007F128084FF480524046FEF779FD16F06F
:103D2000200F3FF45CAFFD68002D3FF458AF7D617C
:103D3000839B5E899B8903FB06F6B96805E0042432
:103D4000CEE7B1F1FF3F0FD0AD1BB4FA84F35B09AE
:103D5000B54298BF00234BB13846FFF764F90146DE
:103D60000128EED80224ECE70124EDE7B961002C2C
:103D70007FF435AF839EB6F80C90B5FBF9F309FBE1
:103D80001353002B3FF42BAF3046FEF75FFD08B90D
:103D9000022425E7B5FBF9F20244FA61012341460A
:103DA0007078FEF7D0FC00283FF419AF012417E724
:103DB000092417E72DE9F04F85B004460F46154654
:103DC00098460023C8F8003003A9FEF743FE01908F
:103DD000002840F0B380637C0193002B40F0AE805C
:103DE000237C13F0010F00F0C880E6686369F61ABF
:103DF000AE4261D32E465FE0A1692046FFF713F97A
:103E00006EE04FF0020A84F811A0CDF804A095E00E
:103E10004FF0010A84F811A0CDF804A08EE04FF015
:103E2000020A84F811A0CDF804A087E094F91030BC
:103E3000002B04DB039B9D890AFB05F532E0E0695A
:103E4000A0EB09005045F5D2039B9A8904F12801A3
:103E500002FB0070FEF7D2FCECE7E2694A450DD0A8
:103E600094F91030002B6DDB01234A4604F1280140
:103E700003984078FEF767FC002877D1C4F81C90BF
:103E8000039B9D896369B3FBF5F105FB1133ED1AC3
:103E9000AE4200D2354604F128012A46194438467C
:103EA000FEF7ACFC761BD8F800302B44C8F8003085
:103EB0002F4463692B446361002E3FD062690399EC
:103EC0008D89B2FBF5F305FB1323002BD8D1B2FB90
:103ED000F5F54B89013B1D4008D1002A8CD1A06823
:103EE00001288ED9B0F1FF3F92D0A061DDF80CB06F
:103EF000A1695846FEF7AAFC814600288FD0A94444
:103F0000BBF80C30B6FBF3FAB342A6D805EB0A03B4
:103F1000BBF80A20934201D9A2EB050A53464A4650
:103F200039469BF80100FEF70EFC00283FF47EAFF7
:103F30004FF0010A84F811A0CDF804A0019805B053
:103F4000BDE8F08F012304F128019BF80100FEF782
:103F500008FC20B9237C03F07F03237484E74FF02F
:103F6000010A84F811A0CDF804A0E7E74FF0010A98
:103F700084F811A0CDF804A0E0E707230193DDE762
:103F80002DE9F04F85B004460F46154698460023AC
:103F9000C8F8003003A9FEF75DFD0190002840F04D
:103FA000DA80637C0193002B40F0D580237C13F0F2
:103FB000020F00F0EB806369EB427AD3DD4378E0D7
:103FC00000212046FFF70DF98BE0A1692046FFF79D
:103FD00008F986E04FF0020A84F811A0CDF804A099
:103FE000B9E04FF0010A84F811A0CDF804A0B2E0C6
:103FF0000123E26904F1280103984078FEF7B1FB40
:1040000020B9237C03F07F0323747CE04FF0010A86
:1040100084F811A0CDF804A09DE04FF0020A84F8C6
:1040200011A0CDF804A096E0E169A1EB090151458A
:1040300004D3039B9E890AFB06F62BE0039B9A8917
:1040400002FB017104F12800FEF7D8FB237C03F08A
:104050007F032374EDE7E3694B4503D06269E368AE
:104060009A427CD3C4F81C90039B9E896369B3FB7E
:10407000F6F006FB1033F61AB54200D22E4604F1D4
:104080002800324639461844FEF7B8FB237C63F01B
:104090007F032374AD1BD8F800303344C8F80030D8
:1040A000374463691E446661E3689E4238BF1E461A
:1040B000E660002D65D0626903998E89B2FBF6F344
:1040C00006FB1323002BCFD1B2FBF6F64B89013B45
:1040D0001E4013D1002A7FF478AFA06800283FF477
:1040E0006FAF00284DD001283FF474AFB0F1FF3F0F
:1040F0003FF477AFA061A36803B9A06094F91030D2
:10410000002BFFF675AFDDF80CB0A1695846FEF73D
:104110009DFB8146002880D0B144BBF80C30B5FB34
:10412000F3FAAB4297D806EB0A03BBF80A20934296
:1041300001D9A2EB060A53464A4639469BF80100CC
:10414000FEF70FFB00283FF46FAF4FF0010A84F831
:1041500011A0CDF804A0019805B0BDE8F08F0123AF
:104160004A4604F128019BF80100FEF7ECFA00280A
:104170003FF478AF4FF0010A84F811A0CDF804A005
:10418000E9E7237C43F040032374E4E7072301932A
:10419000E1E770B582B0044601A9FEF75BFC70B997
:1041A000237C13F0400F0AD013F0800F09D1FEF7E3
:1041B00005FB0546216A0198FEF793FC78B102B031
:1041C00070BD0123E26904F1280101984078FEF7EF
:1041D000C8FA40BB237C03F07F032374E7E7666AD9
:1041E000F37A43F02003F372A26831462068FEF7A9
:1041F0004CFBE16806F11C00FEF7F6FA294606F1D1
:104200001600FEF7F1FA002106F11200FEF7E8FAB7
:10421000019B0122DA700198FFF768F9237C23F0F3
:1042200040032374CBE70120C9E710B582B00446F0
:10423000FFF7AFFF08B102B010BD01A92046FEF79D
:1042400009FC0028F7D12060F5E72DE9F04788B098
:1042500001900F461446002207A901A8FEF796FC1C
:10426000804600285ED1079B23609A69DD69A91EFC
:104270008A4201D83A6055E093F80090B9F1010FF5
:1042800004D0D3F828900024264631E0039302247A
:10429000002604E00134079BDB69A3423BD9214699
:1042A00003A8FEF7C0FEB0F1FF3F33D001283DD098
:1042B0000028EFD10136EDE709F1010A49460798D8
:1042C000FEF70FFC804630BBD14613E00AF1380000
:1042D0002044FEF775FA00B90136023400E00434D8
:1042E000BAF80C30B4FBF3F203FB1244013D12D0D8
:1042F000002CE1D0DDF81CA09AF80030022BE5D0AC
:104300000AF138002044FEF760FA30F07043E6D13D
:104310000136E4E7C8463E60079B9E611A7942F089
:1043200001021A71404608B0BDE8F0874FF002085C
:10433000F1E700002DE9F04F8DB007908846154653
:104340001E4607A8FEF75EFB0028C0F2F982A74BC5
:1043500053F820300BB100221A70C4B22046FEF789
:10436000E9F910F0010F40F0ED8210F0040F40F079
:10437000EB820AAA03212046FEF705FA38B90A9B08
:104380002BB1B3F5004F02D85A1E134201D00123BE
:104390000A930DF12E0202212046FEF7F4F90028BF
:1043A00040F0D682BDF82E70A7F500739BB2B3F52E
:1043B000606F00F2CF827B1E1F4240F0CD8215B1AC
:1043C000AF4200F2CB82B5F1807F00F2C9826B1E52
:1043D0002B40019340F0C682B5FBF7F5169BB3FB6B
:1043E000F7F909FB07F7002F00F0BE8209AA0121A7
:1043F0002046FEF7C8F9002840F0B88218F00802FD
:1044000002927AD0019B0093099A009B9A42C0F0D5
:10441000AF82D21A09927F2A40F2AC82802D00F23C
:10442000AB8218F0020106D008F00703022B67D018
:1044300018F0010F6AD018F0010F00F09F824FF0C2
:10444000020B0394CDF81090BBF1030F68D0002D40
:1044500000F08F80AA46B2FBFAF340F6F570834273
:1044600040F2988003F102084FEA4808BDF82E3068
:10447000984408F1FF38B8FBF3F84FF4804CBCFBCC
:10448000F3FC4FF0010E009B0EEB030908EB090350
:1044900063440A9CE018013864420440E41ABBF10A
:1044A000030F00F08280A04403EB0A1300981B1A4C
:1044B0009A42C0F07382A2EB0E03A3EB0803A3EBB6
:1044C0000C03B3FBFAF3BBF1030F71D0BBF1020F86
:1044D00040F096804FF6F570834278D91DB94FEAC7
:1044E0004A03402B18D9C9B9002D40F05B824FEA2E
:1044F0004A05802DA8D90E2027E23F23009383E7A9
:104500004FF0030B0394CDF810909DE74FF0030B91
:104510000394CDF8109097E71D4695E74FF0030BF5
:10452000BDB1AA46B2FBFAF303F10208BDF82E00B2
:1045300000EB880808F1FF38B8FBF0F82C48184465
:104540002C4B984200F22882DDF804C04FF0200E78
:1045500099E7540C28464FF0010A02E001304FEA77
:104560004A0A254B33F81030002BDBD0A342F5D993
:10457000D8E7140B28464FF0010A02E001304FEA59
:104580004A0A1E4B33F81030002B3FF464AFA342AD
:10459000F4D960E703EB430303F101084FEA58083D
:1045A00008F103084FF0010B60E7A644A1447BE744
:1045B0004FF6F570834289D8002D40F0F1814FEA23
:1045C0005A05BAF1010F3FF63FAF0E20BDE140F6AC
:1045D000F570834214D8002D40F0E6814FEA4A0579
:1045E000802D7FF631AF0E20AFE100BFB81F002451
:1045F0000A00FFFFFFFFFE0F682901085829010884
:10460000CDF818C07546CDF81490039CDDF81090D5
:10461000049340F6F5721946BBF1010F14BF002355
:104620000123914298BF0023002B40F0BF81BDF8C9
:104630002E2000213046FEF7EBF80B22D049304601
:10464000FEF7DCF8BDF82E1006F10B00FEF7C8F8F7
:1046500086F80DA0A9B206F10E00FEF7C1F80123FD
:10466000337406F11100BBF1030F7DD04FF40071DC
:10467000FEF7B6F80999B1F5803F77D289B206F115
:104680001300FEF7ADF8F82373753F2106F118000B
:10469000FEF7A6F8FF2106F11A00FEF7A1F800992F
:1046A00006F11C00FEF7A0F8BBF1030F63D0FEF784
:1046B00085F8014606F12700FEF796F81FFA88F103
:1046C00006F11600FEF78CF8802386F824302923A3
:1046D00086F826301322AB4906F12B00FEF78EF840
:1046E00006F5FF7303934AF655211846FEF778F84E
:1046F0000123009A31462046FEF733F8002840F0A7
:104700005781BBF1030F5ED03A4600213046FEF7D9
:104710007FF8019B002B00F08980BBF1030F00F0B4
:10472000C080069FDDF814803D464F4528BF4D46AA
:104730002B46424631462046FEF713F8002840F04B
:104740003B81A8447F1BEFD1BBF1030F00F0B08089
:10475000099BB3F5803F80F0F080BBF1020F00F0C1
:10476000A4804FF00108A5E0002181E706F12000B8
:10477000FEF73AF887E7FEF721F8014606F1430015
:10478000FEF732F8414606F12400FEF72DF802212B
:1047900006F12C00FEF728F8012106F13000FEF7A3
:1047A0001FF8062106F13200FEF71AF8802386F87A
:1047B0004030292386F842301322734906F147001E
:1047C000FEF71CF88CE70123009DAA1D3146204608
:1047D000FDF7C7FFBDF82E2000213046FEF718F880
:1047E0006A493046FEF700F8694906F5F270FDF7B0
:1047F000FBFF049B591E06F5F470FDF7F5FF02213F
:1048000006F5F670FDF7F0FF4AF655210398FDF71F
:10481000E7FF0123EA1D31462046FDF7A2FF0123F1
:10482000EA1831462046FDF79CFF6DE7BBF1030F08
:1048300024D0BBF1010F32D06FF007013046FDF7F5
:10484000D3FF45462F464D4528BF4F463B46059A68
:1048500031462046FDF785FF002840F0AB80BDF8CB
:104860002E2000213046FDF7D3FF059B3B440593E6
:10487000ED1BE7D1019B013301934AE76FF007017C
:104880003046FDF7B1FF4FF0FF31301DFDF7ACFFB3
:104890006FF0704106F10800FDF7A6FFD1E73D4932
:1048A000CCE75746DDF814803EE74FF0040801E0FE
:1048B0004FF00C08029BC3BBBDF82E2000213046F0
:1048C000FDF7A6FF4AF655210398FDF789FF00255D
:1048D00086F8BE51012786F8BF7186F8C07186F848
:1048E000C15186F8C281099B00990B4443F6C1620D
:1048F000B3FBF2F3FE2286F8C3219A0842F03F028E
:1049000086F8C42186F8C53106F5E370FDF76CFF23
:10491000099906F5E570FDF767FF3B462A463146E3
:104920002046FDF71EFF002848D1002211462046F0
:10493000FDF729FF48B1012007E04FF00608B9E76D
:104940000B2002E0032000E00A200DB0BDE8F08F4C
:104950000120FAE70120F8E70120F6E71320F4E749
:104960001320F2E71320F0E70E20EEE70120ECE73A
:104970000E20EAE70E20E8E71320E6E71320E4E73D
:1049800094280108B4280108A02801085252614166
:1049900072724161F8FFFF000E20D6E70E20D4E7C7
:1049A0000E20D2E70E20D0E70E20CEE70E20CCE777
:1049B0000120CAE70120C8E70120C6E70120C4E7BB
:1049C0007F2811D940F2B51399420ED000207047CC
:1049D00001339BB27F2B04D8054A32F81320824260
:1049E000F6D103F18000C0B270470023F2E700BFA8
:1049F000282C01087F280ED940F2B513994201D026
:104A000000207047FF2805D8034B0344034A32F8BF
:104A1000130070470020704780FFFF7F282C01089B
:104A200010B5B0F5805F01D2224B02E0224B00E0CE
:104A30007346198888422CBF00220122002908BF32
:104A400042F00102CAB903F1040E5B881A0ADBB214
:104A500003EB010C604504DB002AE9D10EEB4303B4
:104A6000E7E7082A09D8DFE802F005090F12151850
:104A70001B1E2100411A3EF8110010BD431A03F01D
:104A80000103C01A80B2F8E7103880B2F5E7203889
:104A900080B2F2E7303880B2EFE71A3880B2ECE744
:104AA000083080B2E9E7503880B2E6E7A0F5E3507D
:104AB00080B2E2E7782901086C2B010830B58BB091
:104AC0000446224BD3F8E82042F01002C3F8E82055
:104AD000D3F8E83003F010030093009B01A902A86B
:104AE00005F0C0F8079BC3B905F098F803461848CD
:104AF000A0FB03239B0C013B1648174A026040F2BF
:104B0000E732C260436000230361836006F052FD18
:104B1000054630B128460BB030BD05F07FF84300A4
:104B2000E5E70C4806F0A4FB05460028F2D1362044
:104B300003F0C8FA0F2C01D90125EBE7002221462A
:104B4000362003F089FA054B1C60E3E70044025865
:104B500083DE1B43C41F00240010004048000024D3
:104B600008B503F041FA08BD08B5024806F0D4FBC9
:104B700008BD00BFC41F0024844610B121B300B596
:104B80000DE0401A18BF0120704702F1200E0FE01F
:104B90002030864514D1CAB10CF1010C01319CF8CA
:104BA00000200B4BD35C03F00303012BEDD09646A2
:104BB0000878074BC35C03F00303012BE9D1E7E757
:104BC000AEEB00005DF804FB012070470020F9E720
:104BD000092E0108013840EA600040EAA00040EADE
:104BE000201040EA202040EA20400130704703783E
:104BF000A3F13002D2B2092A1DD8303B1A01437802
:104C0000A3F13001C9B2092923D81344303B1B0159
:104C10008278A2F13001C9B209292AD81344303B65
:104C20001B01C078A0F13002D2B2092A31D8034466
:104C3000A3F130007047A3F14102D2B2052A01D896
:104C4000373BDBE7A3F16102D2B2052A33D8573BE9
:104C5000D4E7A3F14101C9B2052902D81344373B77
:104C6000D5E7A3F16101C9B2052926D81344573B02
:104C7000CDE7A2F14101C9B2052902D81344373B5F
:104C8000CEE7A2F16101C9B2052918D81344573BF8
:104C9000C6E7A0F14102D2B2052A03D80344A3F12A
:104CA00037007047A0F16102D2B2052A09D8034447
:104CB000A3F1570070470020704700207047002084
:104CC00070470020704700002DE9F0410C4614F8B1
:104CD000013B222B03D105462246002004E06B4B0A
:104CE00019600024CAE062461378222B18BF002BFB
:104CF00008D0013006D002F1010C5C2BF3D102F197
:104D0000020CF0E7624B1B68013098470746002809
:104D100000F0B980064618E0611C6078A0F16203DB
:104D2000132B00F29E80DFE803F00A9C9C9C1E9CE3
:104D30009C9C9C9C9C9C249C9C9C2A9C303632462F
:104D4000082302F8013B16464C1C2378222B18BF7F
:104D5000002B00F08B805C2BDED00134324602F851
:104D6000013B1646F1E732460C2302F8013B16469A
:104D7000EAE732460A2302F8013B1646E4E73246E8
:104D80000D2302F8013B1646DEE73246092302F8FE
:104D9000013B1646D8E7A01CFFF729FF8046611D9E
:104DA000A0F55C42B0FA80F35B09B2F5806F38BFC2
:104DB00043F00103002BC7D1A0F55843B3F5806F32
:104DC00019D2A3795C2BBFD1E379752BBCD104F147
:104DD0000800FFF70CFF04F10B01A0F55C42B2F5EF
:104DE000806FB1D22B4A02EA8828C0F3090348EA4F
:104DF000030303F58038B8F17F0F0AD8741C012033
:104E0000254B1B5C621E43EA080804F8018C161847
:104E10009AE7B8F5006F18D3B8F5803F0BD2F31CB2
:104E200003205A1E08F03F0444F0800403F8014CAC
:104E30004FEA98180BE0F31C08F03F0242F08002A2
:104E4000F2704FEA98180420EBE7B21C0220541EBF
:104E500008F03F0343F0800302F8013C4FEA981842
:104E6000CEE7324602F8010B16466DE70023337099
:104E70002378222B05D02F610423EB602046BDE868
:104E8000F0810134F7E70446F8E700BF1020002462
:104E90003C00002400FC0F006C2D010800E00130F4
:104EA00018B103780BB1202BF9D970470160486025
:104EB0007047000010B5064B1B6828209847044631
:104EC00018B12822002107F0C1FA204610BD00BF0A
:104ED0003C000024000000002DE9F04F83B0824622
:104EE0000C460B782D2B3FD09FED637B8DED007B27
:104EF0002378302B3ED02378313BDBB2082B3BD8D4
:104F0000002600270022624B30463946FBF7BCFBE7
:104F100006460F4620783038FBF74CFB02460B461E
:104F200030463946FBF7FAF906460F4614F8013FBA
:104F3000303BDBB2092BE5D923782E2B1FD04FF065
:104F400000084FF000092378452B18BF652B40F06F
:104F50008C80621C63782B2B48D02D2B4AD01446B2
:104F60004FF0010B00254FE001349FED457B8DEDA7
:104F7000007BBDE70134BEE700260027DCE763784D
:104F80002F2B29D9392B2CD801344FF000084FF0A2
:104F9000000900223E4B30463946FBF775FB0646BA
:104FA0000F4620783038FBF705FB02460B463046AB
:104FB0003946FBF7B3F906460F460022354B40460B
:104FC0004946FBF7A9F98046894614F8013F303B72
:104FD000DBB2092BDDD9B6E74FF000084FF000092E
:104FE000B1E74FF000084FF00009ACE702344FF092
:104FF000010BB7E702344FF0FF3BB3E705EB850544
:105000000134303B03EB45052378A3F13002D2B2E3
:10501000092AF3D9DDE9002330463946FBF734FB92
:1050200006460F460BFB05F0FBF7C4FA42464B461B
:10503000FBF774F941EC110B9FED130B0AF084FAA6
:1050400053EC102B30463946FBF71EFB02460B464D
:10505000CAE90623FBF7B2FDCAF814000323CAF815
:105060000C30204603B0BDE8F08F4FF0010B002557
:10507000D0E700BFAFF30080000000000000F03F69
:10508000000000000000F0BF00000000000024400D
:10509000000024400000F03F38B50C46002945D000
:1050A000054604222249204608F05FF8E8B10522AF
:1050B0002049204608F059F8D8B104221E4920465C
:1050C00008F053F8C8B12378222B1BD0A3F130028B
:1050D000D2B22D2B18BF092A19D95B2B1CD07B2BE0
:1050E0001FD0164B1C60002002E00223EB60201D45
:1050F00038BD0023EB60601DFAE70123EB606B61B4
:10510000201DF5E721462846FFF7DEFDF0E72146A2
:105110002846FFF7E1FEEBE72146284600F010F8AD
:10512000E6E72146284600F057F8E1E70846DFE7C2
:10513000282D0108302D0108382D010810200024E9
:1051400070B50B785B2B2FD106460523C360481C36
:10515000FFF7A4FE044603785D2B2AD0FFF7AAFED2
:105160000546B06078B32046FFF798FE0146284612
:10517000FFF792FFFFF792FE064630B333782C2BF1
:1051800019D1FFF797FE044688B128604560701C6E
:10519000FFF784FE01462046FFF77EFFFFF77EFE05
:1051A0000646A0B12546E9E70A4B196000242046CF
:1051B00070BD0134FBE75D2B03D0064B1E6000245D
:1051C000F5E7741CF3E70446F1E70446EFE704460D
:1051D000EDE700BF1020002470B50B787B2B56D173
:1051E00005460623C360481CFFF758FE06460378B1
:1051F0007D2B51D0FFF75EFE0446A860002849D001
:105200003046FFF74BFE01462046FFF75DFDFFF7F6
:1052100045FE002852D022692262002222610278D3
:105220003A2A3BD10130FFF739FE01462046FFF70D
:1052300033FFFFF733FE0646002841D033782C2B8E
:1052400034D1FFF737FE054600283BD0206044608C
:10525000701CFFF723FE01462846FFF735FDFFF7D8
:105260001DFE0446B0B12B692B6200232B6103782D
:105270003A2B17D10130FFF711FE01462846FFF700
:105280000BFFFFF70BFE0646F0B12C46D6E70F4B9F
:1052900019600024204670BD441CFBE70B4A1060D7
:1052A0000024F7E7094B18600024F3E77D2B03D0B7
:1052B000064B1E600024EDE7741CEBE70446E9E7AB
:1052C0000446E7E70446E5E70446E3E71020002448
:1052D00070B5044630B30568C5B183685818626874
:1052E000824215DAFFF776FC06460F4B1B6898479B
:1052F000054678B16268216807F09AF80B4B1B6885
:105300002068984766602560A3681D44284670BDE4
:105310001D44FBE7054B1B6820689847002363602A
:105320002360F3E70546F1E73C0000243800002441
:1053300070B50546FBF7ECFD441C064B1B68204688
:105340009847064618B12246294607F071F83046BC
:1053500070BD00BF3C00002448B10346006840B166
:1053600010B59C682044FBF7D3FD204410BD0020FD
:1053700070470020704700002DE9F84305460C46B1
:10538000D0E906670022002330463946FBF7E4FBEC
:1053900090B15CB102212046FFF79AFF044614B198
:1053A0004F4B1B8823802046BDE8F8834D4B1B687C
:1053B000022098470446F2E76869FBF7FBF832469B
:1053C0003B46FAF7A9FF21F000410022464BFBF7CC
:1053D000D7FB10B33AA3D3E9002330463946FBF795
:1053E000CFFBD0B10022414B30463946FBF7D2FB10
:1053F00098B164B115212046FFF76AFF0446002CDE
:10540000D1D06A693A49204607F07AFECBE7354B9E
:105410001B68152098470446F1E7002C39D040213D
:105420002046FFF755FF0446002CBCD047EC106B1C
:105430000AF006F851EC100B32463B46FAF76CFFC7
:1054400021F000410022284BFBF79AFB40B1304687
:1054500027F000411CA3D3E90023FBF787FBF0B939
:1054600027F000491AA3D3E9002330464946FBF749
:105470007DFB38B918A3D3E9002330464946FBF732
:1054800093FB98B132463B461A49204607F038FE56
:1054900089E7144B1B68402098470446C4E732460E
:1054A0003B461549204607F02BFE7CE732463B463B
:1054B0001249204607F024FE75E700BFAFF30080D5
:1054C0000000C0FFFFFFDF4144F3C2E4E4E9634CA6
:1054D0008DEDB5A0F7C6B03E0000000065CDCD4112
:1054E000402D01083C0000240000B03C0000E0C159
:1054F000442D0108502D0108482D0108542D0108A4
:105500002DE9F84305460E468446002405E00123B4
:1055100000E001231C430CF1010C9CF800304BB15E
:105520005A1ED2B2222B18BF1E2AF2D95C2BEED003
:105530000023EFE70CBBACEB0504C6B1E11C304621
:10554000FFF7C6FE06467EB137464FF0220807F841
:10555000018B2946384607F000FE07F8048004F165
:10556000010C002307F80C303046BDE8F8834C4BA3
:105570001B68E01C98470646E5E715B1A8460024DD
:1055800018E066B103213046FFF7A2FE0646002E62
:10559000EAD0444B1A889B783280B370E4E7404BE2
:1055A0001B68032098470646F1E71F2F10D80634E2
:1055B00008F1010898F800706FB114F1010909D0E1
:1055C0003946394807F0BCFD0028EED00234EFE739
:1055D0004C46EDE74C46BEB1E11C3046FFF778FE85
:1055E0000646002EC0D03446222304F8013B2B7817
:1055F000002B50D0222B18BF1F2B0BD95C2B09D0AE
:10560000013504F8013BF2E7254B1B68E01C984785
:105610000646E6E720465C2300F8013B15F8012B1F
:10562000222A15D8082A31D3A2F108031A2B2DD823
:10563000DFE803F01828202C1C242C2C2C2C2C2CDC
:105640002C2C2C2C2C2C2C2C2C2C2C2C2C2C1400DE
:105650005C2A1BD15C2363700234C8E72223637089
:105660000234C4E7622363700234C0E766236370C8
:105670000234BCE76E2363700234B8E772236370B0
:105680000234B4E7742363700234B0E7074907F0CB
:1056900037FD0634ABE7222323700023637063E7F2
:1056A0003C000024582D01085C2D0108642D0108E0
:1056B00008B50069FFF724FF08BD00002DE9F04F91
:1056C00087B08046009116461D468368002701E09A
:1056D00001371B68002BFBD16FBB9DB186B1009BCE
:1056E000191D2846FFF7F4FD044604B323467B2228
:1056F00003F8012BBEB1A31C0A22627000990FE0CF
:105700000321EEE7AB4B1B6826B1009A101D9847AA
:105710000446EAE70320FAE7092203F8012B0137E0
:105720004A1EBA42F8DC7D221A7000225A702046C6
:1057300007B0BDE8F08F002D00F09E80D5F808B0CE
:10574000E6B14FF0020A0AF101012846FFF7C0FD59
:1057500004460028EBD003467B2203F8012B16B148
:10576000831C0A22427000221A70AB685344AB605B
:10577000D8F80870009B03F101091BE04FF0010A03
:10578000E1E749462846FFF7A3FD04460028CED0AE
:10579000002303E0092204F8012B01334B45F9DB18
:1057A000AB684B44AB6009E000232370AB68434413
:1057B000AB603F68002F3FD0002EE2D12946386A07
:1057C000FFF79EFE2846FFF7C7FDA8605146284612
:1057D000FFF77EFD04460028A9D03A2303700EB1DE
:1057E00009234370AB685344AB602B4632464946AD
:1057F000384600F04BF92846FFF7AEFDA8603B683D
:10580000B3F1000818BF4FF00108002E18BF08F1CF
:10581000010808F101012846FFF75AFD0446002857
:1058200085D03B6813B12C2304F8013B002EBBD07C
:105830000A2304F8013BB7E716B1009B991C00E06E
:1058400002212846FFF744FD044600283FF46FAFCD
:1058500076B97D232370002363702C685C4466E76F
:10586000092304F8013B0BF1010B9345F8DBF0E74A
:105870004FF0000B009AF8E7BC004E4B1B68204627
:1058800098470590002800F0FD804A4B1B68204691
:1058900098470190D8B122460021059806F0D6FD20
:1058A00022460021019806F0D1FDD8F80850009B4F
:1058B0005A1C0392002E3DD003F1080A00230493E2
:1058C00099460297DDF81480DDF804B00BE03A4BFE
:1058D0001B6805989847019C29E700231F44BA4498
:1058E0000AF1020A2D6845B30021286AFFF708FE75
:1058F00004464FEA89074BF82900002332460399F2
:10590000284600F0C3F848F8070009F10109002C07
:1059100018BF00280BD0FBF7FBFA07462046FBF721
:10592000F7FA0744002ED8D0009B0333D6E70123B3
:105930000493D7E74FF0070AC0E7029F049B4BBBD5
:105940001C4B1B6850469847044618B305467B23FA
:1059500005F8013B16B1851C0A23437000232B7008
:10596000DDF810800297DDF814B0039F03943CE04B
:105970000134BC4214DAA60059F8240010B10E4BD1
:105980001B68984758F806000028F1D00A4B1B689E
:105990009847EDE70024DDF81480DDF80490E8E78F
:1059A000054C2368019898472368059898472C462A
:1059B000BDE600BF3C00002438000024092205F8A1
:1059C000012B0133BB42F9DB14E0049BFAE700230F
:1059D0002B702D4C2368019A52F8090098472368D0
:1059E0005BF80900984708F10108029B984532DAF4
:1059F000002EEAD14FEA8809019B53F828A05046AF
:105A0000FBF786FA044602465146284606F010FD8A
:105A10002B1903F1010A3A222A551EB103F1020A99
:105A200009225A705BF80910504607F096FB5BF8A4
:105A30000900FBF76DFA0AEB0005029B013B4345A9
:105A400003D001352C230AF80030002EBFD00A23E2
:105A500005F8013BBBE7039C0B4F3B680198984757
:105A60003B680598984726B97D232B7000236B70FF
:105A70005DE6049B00998B42F6DA092205F8012BBA
:105A80000133F8E7059C52E63800002484460028DC
:105A900000F0828008B5002B49D0007B062876D81C
:105AA000DFE800F01220042E353B400005211846A7
:105AB000FFF70EFC844640B3384B1868CCF8000062
:105AC0001B798CF8043020E006211846FFF700FC13
:105AD0008446D0B1324B1868CCF800009B88ACF8F3
