:020000040800F2
:1000000000000524C5650008596600085D66000803
:100010006166000865660008696600080000000067
:10002000000000000000000000000000E1170008D0
:100030006D66000800000000711800083515000802
:1000400015660008156600081566000815660008A4
:100050001566000815660008156600081566000894
:100060001566000815660008156600081566000884
:100070001566000815660008156600081566000874
:100080001566000815660008156600081566000864
:100090001566000815660008156600081566000854
:1000A0001566000815660008156600081566000844
:1000B0001566000815660008156600081566000834
:1000C0001566000815660008156600081566000824
:1000D0001566000815660008156600081566000814
:1000E0001566000815660008000000001566000887
:1000F00015660008156600081566000815660008F4
:1001000015660008156600081566000815660008E3
:100110001566000815660008E1120008156600085B
:1001200015660008156600081566000815660008C3
:1001300015660008156600081566000815660008B3
:1001400000000000000000000000000000000000AF
:100150001566000815660008156600081566000893
:100160001566000815660008156600081566000883
:1001700015660008156600081566000800000000F6
:100180001566000815660008156600081566000863
:100190001566000815660008156600081566000853
:1001A00015660008156600081566000800000000C6
:1001B0001566000815660008156600081566000833
:1001C0001566000815660008000000000000000029
:1001D000000000000000000015660008000000009C
:1001E000000000000000000000000000000000000F
:1001F00000000000000000001566000815660008F9
:100200001566000815660008000000001566000865
:1002100015660008156600081566000815660008D2
:1002200015660008000000001566000800000000C8
:100230001566000815660008000000001566000835
:1002400015660008156600081566000815660008A2
:100250001566000815660008156600081566000892
:100260001566000815660008156600081566000882
:1002700015660008156600081566000800000000F5
:100280001566000815660008156600081566000862
:100290000000000015660008156600080000000058
:1002A00000000000156600081566000815660008C5
:1002B0001566000815660008156600081566000832
:0C02C000156600081566000815660008A9
:1002D00010B5054C237833B9044B13B10448AFF380
:1002E00000800123237010BDE801002400000000FD
:1002F000B492000808B5034B1BB103490348AFF3A0
:10030000008008BD00000000EC010024B492000849
:1003100053B94AB9002908BF00281CBF4FF0FF316C
:100320004FF0FF3000F074B9ADF1080C6DE904CE68
:1003300000F006F8DDF804E0DDE9022304B07047C0
:100340002DE9F047089D04468E46002B4DD18A4288
:10035000944669D9B2FA82F252B101FA02F3C2F1BB
:10036000200120FA01F10CFA02FC41EA030E94404C
:100370004FEA1C48210CBEFBF8F61FFA8CF708FB6D
:1003800016E341EA034306FB07F199420AD91CEB45
:10039000030306F1FF3080F01F81994240F21C8177
:1003A000023E63445B1AA4B2B3FBF8F008FB1033BF
:1003B00044EA034400FB07F7A7420AD91CEB0404F4
:1003C00000F1FF3380F00A81A74240F207816444C4
:1003D000023840EA0640E41B00261DB1D440002349
:1003E000C5E900433146BDE8F0878B4209D9002DAD
:1003F00000F0EF800026C5E9000130463146BDE837
:10040000F087B3FA83F6002E4AD18B4202D38242A0
:1004100000F2F980841A61EB030301209E46002D4F
:10042000E0D0C5E9004EDDE702B9FFDEB2FA82F2A4
:10043000002A40F09280A1EB0C014FEA1C471FFA02
:100440008CFE0126200CB1FBF7F307FB131140EAE9
:1004500001410EFB03F0884208D91CEB010103F1B6
:10046000FF3802D2884200F2CB804346091AA4B278
:10047000B1FBF7F007FB101144EA01440EFB00FE4C
:10048000A64508D91CEB040400F1FF3102D2A645B1
:1004900000F2BB800846A4EB0E0440EA03409CE750
:1004A000C6F12007B34022FA07FC4CEA030C20FAFD
:1004B00007F401FA06F31C43F9404FEA1C4900FA1D
:1004C00006F3B1FBF9F8200C1FFA8CFE09FB18119A
:1004D00040EA014108FB0EF0884202FA06F20BD90D
:1004E0001CEB010108F1FF3A80F08880884240F25D
:1004F0008580A8F102086144091AA4B2B1FBF9F0A1
:1005000009FB101144EA014100FB0EFE8E4508D99B
:100510001CEB010100F1FF346CD28E456AD9023820
:10052000614440EA0840A0FB0294A1EB0E01A14205
:10053000C846A64656D353D05DB1B3EB080261EB73
:100540000E0101FA07F722FA06F3F1401F43C5E94D
:10055000007100263146BDE8F087C2F12003D84083
:100560000CFA02FC21FA03F3914001434FEA1C47C5
:100570001FFA8CFEB3FBF7F007FB10360B0C43EAB7
:10058000064300FB0EF69E4204FA02F408D91CEB67
:10059000030300F1FF382FD29E422DD90238634465
:1005A0009B1B89B2B3FBF7F607FB163341EA034105
:1005B00006FB0EF38B4208D91CEB010106F1FF3854
:1005C00016D28B4214D9023E6144C91A46EA00464B
:1005D00038E72E46284605E70646E3E61846F8E6DD
:1005E0004B45A9D2B9EB020864EB0C0E0138A3E726
:1005F0004646EAE7204694E74046D1E7D0467BE707
:10060000023B614432E7304609E76444023842E77E
:10061000704700BF034613F8012B002AFBD1181ABC
:1006200001387047000000000000000000000000DA
:1006300001F0FF01102A2BDB10F0070F08D010F893
:10064000013B013A8B422DD010F0070F42B3F6D197
:10065000F0B441EA012141EA014122F007047FF0B0
:1006600000070023F0E80256083C85EA010586EA07
:10067000010685FA47F5A3FA87F586FA47F6A5FA43
:1006800087F68EB9EED1F0BC01F0FF0102F007024F
:1006900032B110F8013B013A83EA010313B1F8D1FA
:1006A0000020704701387047002D06BF35460338DB
:1006B000073815F0010F07D1013015F4807F02BF14
:1006C000013015F4C03F0130F0BC0138704700BF65
:1006D00081F0004102E000BF83F0004330B54FEAF3
:1006E00041044FEA430594EA050F08BF90EA020F60
:1006F0001FBF54EA000C55EA020C7FEA645C7FEAF3
:10070000655C00F0E2804FEA5454D4EB5555B8BF15
:100710006D420CDD2C4480EA020281EA030382EA86
:10072000000083EA010180EA020281EA0303362D18
:1007300088BF30BD11F0004F4FEA01314FF4801CEB
:100740004CEA113102D0404261EB410113F0004FFD
:100750004FEA03334CEA133302D0524263EB4303B4
:1007600094EA050F00F0A780A4F10104D5F1200E52
:100770000DDB02FA0EFC22FA05F2801841F10001AD
:1007800003FA0EF2801843FA05F359410EE0A5F181
:1007900020050EF1200E012A03FA0EFC28BF4CF0B2
:1007A000020C43FA05F3C01851EBE37101F0004568
:1007B00007D54FF0000EDCF1000C7EEB00006EEB75
:1007C0000101B1F5801F1BD3B1F5001F0CD34908FF
:1007D0005FEA30004FEA3C0C04F101044FEA445256
:1007E00012F5800F80F09A80BCF1004F08BF5FEADD
:1007F000500C50F1000041EB045141EA050130BDBD
:100800005FEA4C0C404141EB0101013C28BFB1F5CE
:10081000801FE9D291F0000F04BF01460020B1FA19
:1008200081F308BF2033A3F10B03B3F120020CDAEC
:100830000C3208DD02F1140CC2F10C0201FA0CF0CA
:1008400021FA02F10CE002F11402D8BFC2F1200C2F
:1008500001FA02F120FA0CFCDCBF41EA0C019040E5
:10086000E41AA2BF01EB0451294330BD6FEA04042E
:100870001F3C1CDA0C340EDC04F11404C4F1200219
:1008800020FA04F001FA02F340EA030021FA04F32B
:1008900045EA030130BDC4F10C04C4F1200220FA82
:1008A00002F001FA04F340EA0300294630BD21FAC0
:1008B00004F0294630BD94F0000F83F4801306BF86
:1008C00081F480110134013D4EE77FEA645C18BF7A
:1008D0007FEA655C29D094EA050F08BF90EA020F11
:1008E00005D054EA000C04BF1946104630BD91EA09
:1008F000030F1EBF0021002030BD5FEA545C05D10C
:100900004000494128BF41F0004130BD14F580044A
:100910003CBF01F5801130BD01F0004545F0FE41BE
:1009200041F470014FF0000030BD7FEA645C1ABFF3
:10093000194610467FEA655C1CBF0B46024650EA2A
:10094000013406BF52EA033591EA030F41F4002156
:1009500030BD00BF90F0000F04BF0021704730B5DC
:100960004FF4806404F132044FF000054FF00001B1
:1009700050E700BF90F0000F04BF0021704730B572
:100980004FF4806404F1320410F0004548BF404247
:100990004FF000013EE700BF42004FEAE2014FEA9C
:1009A00031014FEA02701FBF12F07F4393F07F4F77
:1009B00081F06051704732F07F4208BF704793F07A
:1009C0007F4F04BF41F40021704730B54FF460748D
:1009D00001F0004521F000411CE700BF50EA010290
:1009E00008BF704730B54FF000050AE050EA010239
:1009F00008BF704730B511F0004502D5404261EBA9
:100A000041014FF4806404F132045FEA915C3FF4E9
:100A1000D8AE4FF003025FEADC0C18BF03325FEA86
:100A2000DC0C18BF033202EBDC02C2F1200300FA37
:100A300003FC20FA02F001FA03FE40EA0E0021FA5C
:100A400002F11444BDE600BF70B54FF0FF0C4CF44A
:100A5000E06C1CEA11541DBF1CEA135594EA0C0FFC
:100A600095EA0C0F00F0DEF82C4481EA030621EA37
:100A70004C5123EA4C5350EA013518BF52EA033572
:100A800041F4801143F4801338D0A0FB02CE4FF024
:100A90000005E1FB02E506F00042E0FB03E54FF054
:100AA0000006E1FB03569CF0000F18BF4EF0010E4C
:100AB000A4F1FF04B6F5007F64F5407404D25FEA48
:100AC0004E0E6D4146EB060642EAC62141EA5551FB
:100AD0004FEAC52040EA5E504FEACE2EB4F1FD0C3D
:100AE00088BFBCF5E06F1ED8BEF1004F08BF5FEABB
:100AF000500E50F1000041EB045170BD06F000466D
:100B000046EA010140EA020081EA0301B4EB5C0419
:100B1000C2BFD4EB0C0541EA045170BD41F4801111
:100B20004FF0000E013C00F3AB8014F1360FDEBF36
:100B3000002001F0004170BDC4F10004203C35DA12
:100B40000C341BDC04F11404C4F1200500FA05F395
:100B500020FA04F001FA05F240EA020001F0004236
:100B600021F0004110EBD37021FA04F642EB0601AC
:100B70005EEA430E08BF20EAD37070BDC4F10C04D6
:100B8000C4F1200500FA04F320FA05F001FA04F29A
:100B900040EA020001F0004110EBD37041F1000186
:100BA0005EEA430E08BF20EAD37070BDC4F1200591
:100BB00000FA05F24EEA020E20FA04F301FA05F2F9
:100BC00043EA020321FA04F001F0004121FA04F2A1
:100BD00020EA020000EBD3705EEA430E08BF20EA71
:100BE000D37070BD94F0000F0FD101F000464000AB
:100BF00041EB010111F4801F08BF013CF7D041EA2D
:100C0000060195F0000F18BF704703F00046520030
:100C100043EB030313F4801F08BF013DF7D043EA01
:100C20000603704794EA0C0F0CEA135518BF95EAB7
:100C30000C0F0CD050EA410618BF52EA4306D1D13E
:100C400081EA030101F000414FF0000070BD50EA5D
:100C5000410606BF1046194652EA430619D094EAE7
:100C60000C0F02D150EA013613D195EA0C0F05D1D1
:100C700052EA03361CBF104619460AD181EA030125
:100C800001F0004141F0FE4141F470014FF00000DD
:100C900070BD41F0FE4141F4780170BD70B54FF078
:100CA000FF0C4CF4E06C1CEA11541DBF1CEA1355F8
:100CB00094EA0C0F95EA0C0F00F0A7F8A4EB0504DA
:100CC00081EA030E52EA03354FEA013100F08880D1
:100CD0004FEA03334FF0805545EA131343EA12639A
:100CE0004FEA022245EA111545EA10654FEA00264F
:100CF0000EF000419D4208BF964244F1FD0404F508
:100D0000407402D25B084FEA3202B61A65EB030563
:100D10005B084FEA32024FF480104FF4002CB6EB20
:100D2000020E75EB030E22BFB61A754640EA0C00A0
:100D30005B084FEA3202B6EB020E75EB030E22BFE0
:100D4000B61A754640EA5C005B084FEA3202B6EB21
:100D5000020E75EB030E22BFB61A754640EA9C00E0
:100D60005B084FEA3202B6EB020E75EB030E22BFB0
:100D7000B61A754640EADC0055EA060E18D04FEA6E
:100D8000051545EA16754FEA06164FEAC30343EA0E
:100D900052734FEAC2025FEA1C1CC0D111F4801FDB
:100DA0000BD141EA00014FF000004FF0004CB6E7D4
:100DB00011F4801F04BF01430020B4F1FD0C88BF73
:100DC000BCF5E06F3FF6AFAEB5EB030C04BFB6EB7E
:100DD000020C5FEA500C50F1000041EB045170BD71
:100DE0000EF0004E4EEA113114EB5C04C2BFD4EB9E
:100DF0000C0541EA045170BD41F480114FF0000E22
:100E0000013C90E645EA060E8DE60CEA135594EA9D
:100E10000C0F08BF95EA0C0F3FF43BAF94EA0C0FA0
:100E20000AD150EA01347FF434AF95EA0C0F7FF415
:100E300025AF104619462CE795EA0C0F06D152EA69
:100E400003353FF4FDAE1046194622E750EA41064D
:100E500018BF52EA43067FF4C5AE50EA41047FF45E
:100E60000DAF52EA43057FF4EBAE12E74FF0FF3CC3
:100E700006E000BF4FF0010C02E000BF4FF0010C94
:100E80004DF804CD4FEA410C7FEA6C5C4FEA430C0D
:100E900018BF7FEA6C5C1BD001B050EA410C0CBF5C
:100EA00052EA430C91EA030F02BF90EA020F0020BE
:100EB000704710F1000F91EA030F58BF994208BF25
:100EC00090422CBFD8176FEAE37040F001007047E2
:100ED0004FEA410C7FEA6C5C02D150EA013C07D139
:100EE0004FEA430C7FEA6C5CD6D152EA033CD3D084
:100EF0005DF8040B704700BF8446104662468C467E
:100F00001946634600E000BF01B5FFF7B7FF0028B0
:100F100048BF10F1000F01BD4DF808EDFFF7F4FFD9
:100F20000CBF012000205DF808FB00BF4DF808ED64
:100F3000FFF7EAFF34BF012000205DF808FB00BF87
:100F40004DF808EDFFF7E0FF94BF012000205DF8A9
:100F500008FB00BF4DF808EDFFF7CEFF94BF01205E
:100F600000205DF808FB00BF4DF808EDFFF7C4FF57
:100F700034BF012000205DF808FB00BF4FEA410CA0
:100F80007FEA6C5C02D150EA013C0AD14FEA430C83
:100F90007FEA6C5C02D152EA033C02D14FF00000C0
:100FA00070474FF0010070474FEA410212F50012FE
:100FB00015D211D56FF47873B3EB625212D94FEAA0
:100FC000C12343F0004343EA505311F0004F23FA8A
:100FD00002F018BF404270474FF00000704750EADF
:100FE000013005D111F0004008BF6FF0004070479C
:100FF0004FF00000704700BF08B5012000F01EFB55
:10100000FBE700BF054C08B52046802102F054FDE7
:1010100041F2883000F012FBF6E700BF00180258DA
:101020000B4C0C4E0C4D08B52146304602F0CCFB63
:101030002168284606F01CF801F0A6FE0146074884
:1010400006F016F84FF47A7000F0F8FAECE700BFFB
:101050000C02002414020024D0920008E892000838
:1010600010B50C4A00210C4800F09EFA0B4B0446C8
:101070000B4A00210B481C6000F096FA0A4B04460C
:101080000A4A00210A481C6000F08EFA094B1860D9
:1010900010BD00BF1C930008F90F000804020024D3
:1010A000409300080510000808020024649300081B
:1010B000211000081002002400B5002289B0124B54
:1010C00006921248CDE90222CDE90422D3F8E010BD
:1010D00041F04001C3F8E0108021D3F8E03003F084
:1010E00040030193019B02F0E3FC8022012302A94B
:1010F0000648CDE9022300220023CDE9042302F0B3
:10110000A9FB09B05DF804FB00440258001802581E
:1011100010B59EB04C2200210BA805F037FB202211
:10112000002102A805F032FB022002F0CFFC264A83
:1011300000230193936923F440439361936903F47B
:1011400040430193019B93699B04FCD50223012238
:101150000C2140240B930BA80E921892002214939A
:10116000199315920F94CDE91A314FF44063CDE9EC
:101170001C2304222223CDE9162302F04FFD08B1DF
:1011800072B6FEE79FED0C7B0022082302A8032124
:101190008DED027B9FED0A7BCDE904234FF4806245
:1011A00040238DED067BCDE9082303F083F808B1D9
:1011B00072B6FEE71EB010BD3F0000000300000045
:1011C00040000000400000000048025872B6FEE7F0
:1011D00008B50A4800230A494FF48032C0E90013D9
:1011E000C0E90233C0E90423C0E9063302F05CFA27
:1011F00000B908BDBDE80840FFF7E8BF14020024AD
:10120000006800580A4B02689A4200D0704703F504
:10121000EE3382B0D3F8F42042F08062C3F8F420B9
:10122000D3F8F43003F080630193019B02B0704760
:1012300000680058244BD3F8E82042F0100270B543
:10124000C3F8E8208AB0D3F8E8300546694602A81A
:1012500003F010030193019B03F024FA079BCBB921
:1012600003F090F903461948194CA0FB03231949D0
:10127000002220469B0C216040F2E731A260013B36
:10128000C4E90312636004F04BFA064630B13046FD
:101290000AB070BD03F076F94300E4E7204604F09D
:1012A00003FB06460028F2D1362002F0EFF90F2D9D
:1012B00001D90126EBE732462946362002F0A8F98B
:1012C000054B1D60E3E700BF0044025883DE1B436B
:1012D00038020024001000400800002402F062B927
:1012E000014804F051BB00BF380200240B4B002220
:1012F0000F216FF0010010B4D3F8F44083B044F034
:101300000204C3F8F440D3F8F43003F0020301936D
:10131000019B03B05DF8044B02F07AB90044025817
:101320000120704708B505F0F9F9162203464FF081
:10133000FF301A6008BD00BF08B505F0EFF91623AD
:101340000360FEE770B5161E07DD0C468D19AFF37E
:10135000008004F8010BA542F9D1304670BD00BFF2
:1013600070B5161E07DD0C468D1914F8010B00F040
:10137000D1F8AC42F9D1304670BD00BF4FF0FF301C
:10138000704700BF4FF4005300204B60704700BF10
:10139000012070470020704738B50D4C03460D49B9
:1013A0000D4D2268491B2AB113448B4208D81046C0
:1013B000236038BD09480246206013448B42F6D9A9
:1013C00005F0ACF90C234FF0FF320360104638BD36
:1013D000840200240000052400040000E0540024DE
:1013E00010B51F4800231F4C4FF4E1310C228360DD
:1013F000C0E90041C0E90333C0E90523C0E9073370
:10140000C0E9093305F008F870B90021144805F067
:1014100055F888B90021124805F092F8A0B9104893
:1014200005F02EF8B8B910BDFFF7D0FE00210C482A
:1014300005F044F80028EDD0FFF7C8FE0021084869
:1014400005F07EF80028EAD0FFF7C0FE044805F05A
:1014500017F80028E7D0BDE81040FFF7B7BE00BF7F
:10146000880200240010014010B5B6B000210446E7
:10147000B82208A80691CDE90211CDE9041105F0C2
:1014800085F9214B22689A4201D036B010BD012265
:10149000002308A8CDE9082303F024FA40BB1B4B26
:1014A000072402A91A48D3F8F02042F01002C3F82A
:1014B000F020D3F8F02002F010020092009AD3F846
:1014C000E02042F00102C3F8E020D3F8E0300694B7
:1014D00003F001039FED087B0193019B8DED027BDF
:1014E0009FED077B8DED047B02F0B4F936B010BDA3
:1014F000FFF76CFED3E700BF00060000020000000B
:1015000000000000000000000010014000440258EC
:101510000000025800B583B04FF0FF330122019064
:1015200001A9034804F0E0FA019803B05DF804FB58
:101530008802002408B54FF0E0231B6901F0B6FDD6
:10154000012800D108BDBDE8084000F0C3B900BFC4
:10155000EFF305832BB9064B186828B901221A60EE
:1015600070476FF0050070474FF0FF30704700BFC5
:10157000A809002410B5EFF3058474B9084B1A6864
:10158000012A07D107490222CC771A6001F066FBD5
:10159000204610BD4FF0FF3010BD6FF0050010BDAC
:1015A000A809002400ED00E0F0B5002587B014463E
:1015B0000595EFF3058252BB48B3ECB1A66956BB63
:1015C00018266368DB0722D4636943B34FEA930CA0
:1015D000A568276845B3E268B2F5916F17D324690F
:1015E000ABB1A4B10B46624639460096CDE9014540
:1015F00001F06EFA05460BE0802218260B462146C4
:1016000005AC0096019401F09FFA01280AD000254C
:10161000284607B0F0BD721E372AD2D9F8E74FF03E
:10162000800CD5E7059DF3E7E368002BF0D1236933
:10163000002BEDD11FFA8CF23C46DFE710B5EFF33B
:1016400005842CB900B910BD01F0B2FA204610BDD6
:101650006FF0050010BD00BF044B10B40360802381
:10166000034C0C605DF8044B1360704720050024A8
:101670001C030024054B10B403604FF48073044C2A
:101680000C605DF8044B1360704700BFB00D002480
:10169000AC09002400F108034FF0FF310022816003
:1016A00002604360C0E90333704700BF0023036159
:1016B000704700BF4368026810B49C6801324B60F9
:1016C0008C609C68616099605DF8044B0861026001
:1016D000704700BF30B40D686B1C10D000F10803D8
:1016E0001C465B681A68AA42FAD902684B6001324C
:1016F00099608C6061600861026030BC7047046969
:101700006368F2E7036910B45C68D0E901128442AF
:101710005DF8044B8A6051604FF0000108BF5A60C9
:101720001A680161013A1A60186870470848006831
:10173000006880F308884FF0000080F3148862B6D8
:1017400061B6BFF34F8FBFF36F8F00DF00BF0000A4
:1017500008ED00E0DFF80C00016841F47001016061
:101760007047000088ED00E00E4B82B000221B683D
:101770000192013308D04FF0500383F31188BFF377
:101780006F8FBFF34F8FFEE74FF0500383F3118845
:10179000BFF36F8FBFF34F8F019B002BFCD002B0C4
:1017A000704700BF00000024034621F001010948F2
:1017B00010B44FF0807443F80C0C43F8202CA3F1C4
:1017C000440043E902146FF002015DF8044B43F852
:1017D000241C70476917000800000000000000008A
:1017E000074B19680868B0E8F04F80F30988BFF329
:1017F0006F8F4FF0000080F311887047AFF30080C7
:10180000A04E00244FF0500383F31188BFF36F8F75
:10181000BFF34F8F0B4A13680133012B136000D0C5
:1018200070474FF0E023D3F8043DDBB2002BF7D034
:101830004FF0500383F31188BFF36F8FBFF34F8FC7
:10184000FEE700BF00000024084A136843B94FF0C8
:10185000500383F31188BFF36F8FBFF34F8FFEE701
:10186000013B13600BB983F311887047000000241B
:10187000EFF30980BFF36F8F154B1A681EF0100F3E
:1018800008BF20ED108A20E9F04F10602DE9090013
:101890004FF0500080F31188BFF34F8FBFF36F8F6D
:1018A00001F088FA4FF0000080F3118809BC196834
:1018B0000868B0E8F04F1EF0100F08BFB0EC108AB7
:1018C00080F30988BFF36F8F704700BFAFF30080CC
:1018D000A04E002408B54FF0500383F31188BFF3E6
:1018E0006F8FBFF34F8F01F055FA28B14FF0E0230F
:1018F0004FF08052C3F8042D002383F3118808BDF4
:101900004FF0E0220021064B11610648916107214A
:101910001B68A0FB03039B09013B536111617047E6
:101920000C000024D34D62104FF0E023484AD3F856
:10193000001D914241D0D3F8002D464B9A4233D03E
:10194000454B4FF0FF0C4548454970B51A7884B0B7
:10195000D2B20292072283F800C01B780260DBB289
:101960008DF807309DF807309DF8072003F05003ED
:1019700012060B700FD506229DF807301146013A6A
:101980005B00DBB28DF807309DF807301B06F3D4FF
:1019900003291BD001604FF0500383F31188BFF37C
:1019A0006F8FBFF34F8FFEE74FF0500383F3118823
:1019B000BFF36F8FBFF34F8FFEE74FF0500383F3FA
:1019C0001188BFF36F8FBFF34F8FFEE7029B4FF07D
:1019D000E0244FF44071204ADBB2224E0160002522
:1019E0001370D4F8203D43F47003C4F8203DD4F8BC
:1019F000203D43F07043C4F8203DFFF781FF356080
:101A0000FFF7A8FED4F8343F43F04043C4F8343F16
:101A1000FFF78CFE01F0CEF933680395013308D04F
:101A20004FF0500383F31188BFF36F8FBFF34F8FD5
:101A3000FEE74FF0500383F31188BFF36F8FBFF3BE
:101A40004F8F039B002BFCD0002004B070BD00BF63
:101A500071C20F4170C20F4100E400E03C1200244B
:101A600038120024000000242DE9F041064601F060
:101A700073F9544B1D68002D6FD0534B1F683E42C5
:101A80002ED16EB306F10804760702D024F00704C5
:101A900008342CB3DFF844C1DCF80060A6421FD341
:101AA0004A48036803E01A6822B118461346596889
:101AB000A142F8D3AB4213D098460A1B58F808EB62
:101AC000102AC0F800E029D9191948070FD04FF0A3
:101AD000500383F31188BFF36F8FBFF34F8FFEE77F
:101AE0004FF0000801F040F94046BDE8F0814A603F
:101AF000364A5C60144612689142FBD8606804EB79
:101B0000000E71454ED0D1F804E001EB0E00824288
:101B10004FD00A608C4218BF216059682C4A761A4F
:101B200039431068CCF8006086424FF0000038BF9F
:101B30001660284AC3E9000113680133136001F0FD
:101B400013F918F0070FCFD04FF0500383F311882B
:101B5000BFF36F8FBFF34F8FFEE71F494F071AD1B7
:101B60000A4601F570511046A1F108054FF00047F3
:101B7000164925F007051D60AB1A154A1360174A70
:101B80001360114A17600022C1E90002C5E9002272
:101B9000C0E9005373E7CA1D01F5705122F0070236
:101BA0001046E1E7496800EB010E2146C4F804E065
:101BB000ABE7AA42ADD05068126870440A60486032
:101BC000A8E700BF40120024444E0024584E0024D1
:101BD0004C4E0024504E002444120024484E002451
:101BE000D0B12B4A50F8043C126813420BD050F885
:101BF000081C91B14FF0500383F31188BFF36F8F2E
:101C0000BFF34F8FFEE74FF0500383F31188BFF30C
:101C10006F8FBFF34F8FFEE7704723EA020330B5A3
:101C200083B040F8043CA0F108041A4D019001F083
:101C300093F801982A6850F8041C174B0A442A604C
:101C40001A461B689C42FBD8506802EB000C6445A6
:101C500019D0601883420CD02360A24218BF1460D0
:101C60000E4A13680133136003B0BDE8304001F041
:101C70007BB80B4800688342EED0D3E900300144C2
:101C8000C4E90031E9E7014414465160E1E700BFCF
:101C9000444E0024484E0024584E0024544E002444
:101CA0004012002470B51546026C0446866B2AB9B2
:101CB000056865B301361046A66370BD7DB94068FE
:101CC00004F056FD6368226C1344A268934263607B
:101CD00019D32268013628466260A66370BDC068C9
:101CE00004F046FD226CE36851429B1A226893423D
:101CF000E36002D2A3680B44E360022D0DD00136ED
:101D00000020A66370BD01362846A66370BD8068BA
:101D1000013601F0DBF9A560CEE7012E4FF000009F
:101D200038BF0126C8E700BF30B583B09DF8184022
:101D300040B94FF0500383F31188BFF36F8FBFF3A7
:101D40004F8FFEE71D4653B10AB389B94FF05003D8
:101D500083F31188BFF36F8FBFF34F8FFEE74FF010
:101D6000500383F31188BFF36F8FBFF34F8FFEE7EC
:101D70006AB150230193019B502B13D04FF05003B5
:101D800083F31188BFF36F8FBFF34F8FFEE70029F6
:101D9000EFD04FF0500383F31188BFF36F8FBFF381
:101DA0004F8FFEE7002908BF2A46E86329642A60AE
:101DB000019A012285F84620FFF724FD29680023B7
:101DC0006960AB63D5E90F2000FB02F2101A0A44E8
:101DD0000144AA60FF2205F11000E96085F8442063
:101DE00085F84520FFF756FC05F12400FFF752FC6B
:101DF000FFF72AFD284685F84C4003B030BD00BFF0
:101E00002DE9F04784B00192002800F00381884654
:101E100004461F46002900F09780022F0BD1E36B88
:101E2000012B08D04FF0500383F31188BFF36F8F5D
:101E3000BFF34F8FFEE701F039F9002800F0F3807F
:101E4000A7F10209002504F12406B9FA89F94FEA3D
:101E50005919FFF7D7FCA26BE36B9A42C0F0F080F0
:101E6000B9F1000F40F0EC80019B002B00F00181E4
:101E7000002D00F0CB80FFF7E7FC00F06DFFFFF7CF
:101E8000C1FC94F84430FF2B02D1002384F8443085
:101E900094F84530FF2B02D1002384F84530FFF73A
:101EA000D3FC01A902A801F0B3F8002840F0E580B6
:101EB000FFF7A8FCA26BE36B9A4252D0FFF7C4FC79
:101EC000FFF7A0FC94F8452055B2002D04DC11E08A
:101ED0006A1ED3B255B26BB1636A304653B101F09A
:101EE00041F80028F4D001F0DBF86A1ED3B255B2F5
:101EF000002BF1D1FF2384F84530FFF7A5FCFFF755
:101F000081FC94F8442055B2002D14DD04F1100A30
:101F100003E06A1ED3B255B26BB12369504653B188
:101F200001F020F80028F4D001F0BAF86A1ED3B20C
:101F300055B2002BF1D1FF2384F84430FFF784FC25
:101F400000F012FF012584E7036C002B3FF465AF1E
:101F50004FF0500383F31188BFF36F8FBFF34F8FA0
:101F6000FEE704F1100AFFF76FFC0199504600F0FC
:101F70006BFFFFF747FC94F845305DB2002D04DCA1
:101F800011E06B1EDAB25DB26AB1636A304653B1DA
:101F900000F0E8FF0028F4D001F082F86B1EDAB2FE
:101FA0005DB2002AF1D1FF2384F84530FFF74CFCE5
:101FB000FFF728FC94F844305DB2002D04DC11E0FA
:101FC0006B1EDAB25DB26AB12369504653B100F0BC
:101FD000C9FF0028F4D001F063F86B1EDAB25DB2DD
:101FE000002AF1D1FF2384F84430FFF72DFC00F0E4
:101FF000BBFE0028A6D14FF0E0234FF08052C3F87B
:10200000042DBFF34F8FBFF36F8F9BE702A800F043
:10201000F3FF30E74FF0500383F31188BFF36F8F66
:10202000BFF34F8FFEE7019B002B3FF409AF4FF04A
:10203000500383F31188BFF36F8FBFF34F8FFEE719
:102040003A4641462046FFF72DFE636A002B52D1E7
:1020500048B14FF0E0234FF08052C3F8042DBFF396
:102060004F8FBFF36F8FFFF7EFFB012004B0BDE888
:10207000F087FFF7E9FB4846F8E7FFF7C3FB94F862
:1020800045305DB2002D10DD04F1240603E06B1E27
:10209000DAB25DB24AB1636A304633B100F062FF32
:1020A0000028F4D000F0FCFFF1E7FF2384F845306E
:1020B000FFF7CAFBFFF7A6FB94F844305DB2002D92
:1020C00010DD04F1100603E06B1EDAB25DB24AB116
:1020D0002369304633B100F045FF0028F4D000F00A
:1020E000DFFFF1E7FF2384F84430FFF7ADFB00F09A
:1020F0003BFE0020BAE704F1240000F033FF002883
:10210000B1D0A6E72DE9F04385B00192002800F098
:102110005F810F460446002900F0948000F0C6FF5E
:10212000002800F09C80FFF76DFBA56B002D72D19D
:10213000019B002B00F0F180A84604F1240602A8C0
:1021400000F05AFFFFF780FB00F006FEFFF75AFB96
:1021500094F84430FF2B01D184F8448094F8453042
:10216000FF2B01D184F84580FFF76EFB01A902A87F
:1021700000F04EFF00287FD1FFF744FBA36B002B3C
:1021800000F0D180FFF760FBFFF73CFB94F845308F
:102190005DB2002D04DC11E06B1EDAB25DB26AB1F3
:1021A000636A304653B100F0DDFE0028F4D000F041
:1021B00077FF6B1EDAB25DB2002AF1D1FF2384F8FB
:1021C0004530FFF741FBFFF71DFB94F844305DB24B
:1021D000002D14DD04F1100903E06B1EDAB25DB2CC
:1021E0006AB12369484653B100F0BCFE0028F4D020
:1021F00000F056FF6B1EDAB25DB2002AF1D1FF2368
:1022000084F84430FFF720FB00F0AEFDFFF7FAFA48
:10221000A56B002D7DD0226C52B1E168A3681144FA
:102220009942E16001D32168E160384604F0A0FAE8
:10223000013DA5632369002B40F0D380FFF704FB29
:1022400001206DE0036C002B3FF468AF4FF05003AA
:1022500083F31188BFF36F8FBFF34F8FFEE7019BAE
:10226000002B3FF460AF4FF0500383F31188BFF3AE
:102270006F8FBFF34F8FFEE7FFF7C4FA94F8453036
:102280005DB2002D04DC11E06B1EDAB25DB26AB102
:10229000636A304653B100F065FE0028F4D000F0C8
:1022A000FFFE6B1EDAB25DB2002AF1D1FF2384F883
:1022B0004530FFF7C9FAFFF7A5FA94F844305DB24C
:1022C000002D14DD04F1100903E06B1EDAB25DB2DB
:1022D0006AB12369484653B100F044FE0028F4D0A7
:1022E00000F0DEFE6B1EDAB25DB2002AF1D1FF23F0
:1022F00084F84430FFF7A8FA00F036FDFFF782FAC1
:10230000A36B53B1FFF7A0FAFFF77CFAA56B002D82
:1023100081D1019B002B7FF415AFFFF795FA0020C8
:1023200005B0BDE8F083FFF78FFA0199304600F061
:102330008BFDFFF767FA94F845305DB2002D04DCA1
:1023400011E06B1EDAB25DB26AB1636A304653B116
:1023500000F008FE0028F4D000F0A2FE6B1EDAB2F6
:102360005DB2002AF1D1FF2384F84530FFF76CFA03
:10237000FFF748FA94F844305DB2002D14DD04F103
:10238000100903E06B1EDAB25DB26AB123694846F8
:1023900053B100F0E7FD0028F4D000F081FE6B1E81
:1023A000DAB25DB2002AF1D1FF2384F84430FFF79E
:1023B0004BFA00F0D9FC0028A6D14FF0E0234FF0F3
:1023C0008052C3F8042DBFF34F8FBFF36F8F9BE78D
:1023D0004FF0500383F31188BFF36F8FBFF34F8F1C
:1023E000FEE704F1100000F0BDFD00283FF426AF29
:1023F0004FF0E0234FF08052C3F8042DBFF34F8F0E
:10240000BFF36F8F1AE700BF124B1A687AB19A6850
:1024100062B11A6992B19A6992B11A6A92B19A6AD2
:1024200092B11A6B92B19A6B92B17047012203EB91
:10243000C20C43F83210CCF8040070470222F6E7D1
:102440000322F4E70422F2E70522F0E70622EEE792
:102450000722ECE7604E002470B505460E46144690
:10246000FFF7D0F995F84430FF2B02D1002385F80F
:10247000443095F84530FF2B02D1002385F84530D4
:10248000FFF7E2F9AB6B002B43D0FFF7BBF995F8F0
:1024900045305CB2002C14DD05F1240603E0631E18
:1024A000DAB25CB26AB16B6A304653B100F05AFDE1
:1024B0000028F4D000F0F4FD631EDAB25CB2002A0A
:1024C000F1D1FF2385F84530FFF7BEF9FFF79AF900
:1024D00095F844305CB2002C14DD05F1100603E0E1
:1024E000631EDAB25CB26AB12B69304653B100F0B8
:1024F00039FD0028F4D000F0D3FD631EDAB25CB2DF
:10250000002AF1D1FF2385F84430BDE87040FFF781
:102510009BB92246314605F1240000F0D9FCB4E70E
:102520002DE9F8430546FFF76DF9344A344E136838
:10253000013313603368002B32D0324C23683BB335
:10254000E86A314F314A32491368013313606B64D2
:102550000B68834200D2086000EB8000291D07EB66
:102560008000FFF7A7F8FFF76FF9236873B13268AF
:10257000EB6AD26A9A4209D24FF0E0234FF08052C0
:10258000C3F8042DBFF34F8FBFF36F8FBDE8F883FF
:102590003368E86ADB6A1C4F8342D3D83560D1E7E1
:1025A00035601368012B03D0E86A174F154CC9E753
:1025B000154F3C4607F58C6820461434FFF76AF83F
:1025C000A045F9D1DFF86090DFF8608048460D4CF7
:1025D000FFF760F84046FFF75DF80E48FFF75AF83E
:1025E0000D48FFF757F80D48FFF754F80C4BE86A11
:1025F000C3F800900B4BC3F80080A3E70C530024F2
:10260000A04E002468530024AC4E0024185300242C
:102610001C53002454530024805300246C53002482
:10262000A44E0024A84E0024205300243453002438
:102630002DE9F0470A9C4FEA820906460D464A46B4
:10264000A521206B1F46DDF82480A9F1040904F0C0
:102650009DF8236B994429F00709002D00F09D8017
:102660002B7884F834302B78002B4DD06B7884F89D
:1026700035306B78002B47D0AB7884F83630AB78A8
:10268000002B41D0EB7884F83730EB78002B3BD02F
:102690002B7984F838302B79002B35D06B7984F87E
:1026A00039306B79002B2FD0AB7984F83A30AB7985
:1026B00053B3EB7984F83B30EB792BB32B7A84F866
:1026C0003C302B7A03B36B7A84F83D306B7ADBB104
:1026D000AB7A84F83E30AB7AB3B1EB7A84F83F3012
:1026E000EB7A8BB12B7B84F840302B7B63B16B7B17
:1026F00084F841306B7B3BB1AB7B84F84230AB7BE1
:1027000013B1EB7B84F84330002384F84330089DF9
:102710004FF0000A201D372DC4F850A028BF3725E0
:10272000E562E564C5F13805FEF7C0FF04F1180065
:10273000FEF7BCFF51464FF48562C4F880A404F153
:102740005800A5612461646284F884A404F01EF832
:1027500004F551733A463146E36504F56B7301267F
:102760000027236604F21443484663660E4BC4E90F
:102770004067C4F810310B2309A7D7E90067A4F814
:102780001431C4E94267FFF70FF82060B8F1000F79
:1027900001D0C8F80040BDE8F08784F83450B6E7AF
:1027A0000E33CDAB34126DE6ECDE050080B5234D63
:1027B0004FF0E02A224F4FF08059224EDFF88880F8
:1027C0002B685BB3FFF71EF8FB68DC68201DFEF783
:1027D00099FF3368013B33602B68013B2B60FFF7A7
:1027E00033F804F1580004F069FC94F8853463B1BF
:1027F000012B1ED0022BE3D04FF0500383F311883E
:10280000BFF36F8FBFF34F8FFEE7206BFFF7E8F941
:102810002046FFF7E5F92B68002BD3D1D8F800301C
:10282000012BCDD9CAF8049DBFF34F8FBFF36F8F33
:10283000C6E72046FFF7D4F9C2E700BF10530024D3
:10284000805300240C530024AC4E00244A4B2DE945
:10285000F04F1E6883B001361E60002E40D0DFF8B6
:102860002CB1DBF800309E4247D3444F3B681D68D3
:10287000002D77D00025DFF81891DFF818A1DFF8D8
:10288000188122E00191FEF73DFFA36A04F11800D0
:10289000019913B1FEF736FF0199E36AD8F80020D9
:1028A00003EB8300934209EB800001D9C8F80030A4
:1028B000FEF700FFDAF800203B68E16AD26A1B6885
:1028C000914228BF0125002B50D03B68DB68DC68B3
:1028D0006368211D9E420846D4D2CBF8003011E037
:1028E000264B1A6812680AB34FF0500383F311881D
:1028F000BFF36F8FBFF34F8FFEE70025DFF8909097
:10290000DFF890A0DAF800301D49DB6A03EB83039F
:102910009B0059F803200B68022A28BF0125002BD1
:102920000CBF2846012003B0BDE8F08F154A186897
:1029300011681960144910600A6801320A601A6847
:10294000126832B9DFF844B04FF0FF33CBF80030F3
:1029500087E71B68DFF834B0DB68DB685B68CBF8BF
:1029600000307EE7DFF82890DFF828A04FF0FF3333
:10297000CBF80030C6E700BF94530024A44E0024D7
:1029800098530024A84E00244C530024485300249C
:10299000AC4E0024A04E00241C5300242DE9F04F1F
:1029A000414D83B0FEF72EFF2B68013B2B602B6857
:1029B000002B61D13D4B1B68002B5DD03C4E336832
:1029C000002B6ED03B4FDFF8FC90DFF8FC80DFF887
:1029D000FCA0F368DC6804F1040B04F11800FEF7B6
:1029E00091FE5846FEF78EFEE36A3A68594603EBBD
:1029F0008300934209EB800000D93B60FEF75AFE4A
:102A0000D8F80030E26ADB6A9A423DD30123CAF863
:102A100000303368002BDCD1274B1A681268002A7B
:102A20003AD01A68254BD268D26852681A60244E90
:102A3000346894B1012706E0FFF708FF08B1CAF82F
:102A40000070013C08D02B68002BF5D03368013CA6
:102A500003F101033360F6D13460DAF800305BB182
:102A60004FF0E0234FF08052C3F8042DBFF34F8F97
:102A7000BFF36F8F012000E000200190FEF7E4FE1D
:102A8000019803B0BDE8F08F3368002BA1D10A4B49
:102A90001A681268002AC4D1084B4FF0FF321A603E
:102AA000C5E7DFF828A0C2E7145300240C53002424
:102AB000545300241C530024A44E002448530024E3
:102AC00050530024AC4E0024A04E00249853002400
:102AD00030B587B00B9CD4B10C9D7DB14FF491659E
:102AE0000595059DB5F5916F1AD04FF0500383F30E
:102AF0001188BFF36F8FBFF34F8FFEE74FF0500386
:102B000083F31188BFF36F8FBFF34F8FFEE74FF052
:102B1000500383F31188BFF36F8FBFF34F8FFEE72E
:102B20000C9D2C63022402950A9D00950C9D85F84E
:102B3000854404AC059D0194FFF77AFD0C98FFF7DE
:102B4000EFFC049807B030BD2DE9F043074685B08F
:102B50009000154688469946FEF786FFE0B1044688
:102B60004FF49160FEF780FF0646D0B10463002465
:102B70004B462A4686F8854441460D9C38460296C7
:102B800001940C9C0094FFF753FD3046FFF7C8FCFE
:102B9000012005B0BDE8F0834FF0FF3005B0BDE87F
:102BA000F0832046FFF71CF84FF0FF30F1E700BF3D
:102BB000F8B550B94FF0E0234FF08052C3F8042D20
:102BC000BFF34F8FBFF36F8FF8BD1E4D2B6843B11E
:102BD0004FF0500383F31188BFF36F8FBFF34F8F14
:102BE000FEE72B68044601332B60174B174E1F6816
:102BF00030680430FEF786FDE41933685C6015D355
:102C0000134B186831680431FEF764FD2B6843B933
:102C10004FF0500383F31188BFF36F8FBFF34F8FD3
:102C2000FEE7FFF7BBFE0028C4D0F8BD094B1868CB
:102C300031680431FEF74EFD074B1A689442E5D225
:102C40001C60E3E71453002494530024A04E002496
:102C5000A84E0024A44E00244853002430B58BB065
:102C6000002407AA06A905A8CDE90544FEF7F4FC4F
:102C7000069BDBB1059D85B14FF49161079A0991DF
:102C80000999B1F5916F1AD04FF0500383F3118871
:102C9000BFF36F8FBFF34F8FFEE74FF0500383F307
:102CA0001188BFF36F8FBFF34F8FFEE74FF05003D4
:102CB00083F31188BFF36F8FBFF34F8FFEE70221BD
:102CC0002B631E4885F8851408A9099B23460094A8
:102CD000CDE901151A49FFF7ABFC2846FFF720FCA8
:102CE000089BEBB100F0D0FB01281BD14FF0500343
:102CF00083F31188BFF36F8FBFF34F8F114B124ACD
:102D00001B681249583313604FF0FF33104A0B60B1
:102D1000104B10601C600BB0BDE83040FEF704BEE5
:102D20000BB030BD0130FBD14FF0500383F311885D
:102D3000BFF36F8FBFF34F8FFEE700BFAD270008D3
:102D400088930008A04E0024140000244853002457
:102D50006853002494530024024A1368013313601B
:102D6000704700BF14530024064B1B6843B94FF053
:102D7000500383F31188BFF36F8FBFF34F8FFEE7CC
:102D8000FFF70CBE14530024014B1868704700BFB6
:102D900094530024054B1B680BB9FFF757BD044A39
:102DA0000020136801331360704700BF14530024E0
:102DB000505300241E4B1B681BB11E4B01221A608E
:102DC00070471C4A1C4910B41C4C1360236803EB69
:102DD0008302980092008A5842B9E3B1013B03EBA9
:102DE0008302980051F82220002AF6D0C21801EB85
:102DF000820041680246496808329142416013D01E
:102E00000F4AC8680F491060236013685DF8044BCF
:102E100058330B6070474FF0500383F31188BFF3B2
:102E20006F8FBFF34F8FFEE749684160E8E700BF4F
:102E30001453002498530024AC4E00241C53002447
:102E4000A04E002414000024F0B170B51A4D0C46B9
:102E500029681831FEF73EFC184B1E6828680430BC
:102E6000FEF750FC631C20D0A4192B685C6014D2C0
:102E7000134B186829680431FEF72CFC114B1A68B3
:102E8000944200D21C6070BD4FF0500383F3118850
:102E9000BFF36F8FBFF34F8FFEE70B4B18682968A6
:102EA000BDE870400431FEF715BC296807480431BD
:102EB000BDE87040FEF7FEBBA04E002494530024F2
:102EC000A44E002448530024A84E00246C53002430
:102ED00058B370B51D4E0C46154631681831FEF7D3
:102EE000E9FB65B11A4B1B6830680430FEF70AFC39
:102EF000316818480431BDE87040FEF7DBBB144B65
:102F00001D6830680430FEF7FDFB641933685C60AF
:102F100014D2114B186831680431FEF7DBFB0F4BFC
:102F20001A68944200D21C6070BD4FF0500383F3C6
:102F30001188BFF36F8FBFF34F8FFEE7084B186800
:102F40003168BDE870400431FEF7C4BBA04E0024D8
:102F5000945300246C530024A44E002448530024AE
:102F6000A84E0024C36830B5DC6883B05CB304F1BC
:102F700018052846FEF7C6FB194B1B687BB129468E
:102F80001848FEF797FB184BE26A1B68DB6A9A4207
:102F900022D90123154A1846136003B030BD211D04
:102FA00008460191FEF7AEFB114AE36A10680199E9
:102FB000834200D9136003EB83030E4800EB8300C8
:102FC000FEF778FBDFE74FF0500383F31188BFF380
:102FD0006F8FBFF34F8FFEE7002003B030BD00BFFF
:102FE0001453002454530024A04E0024985300246A
:102FF0001C530024AC4E0024034A044B12681B6887
:10300000C0E90023704700BF4C53002494530024B0
:1030100028B3F0B50D4683B0C1B10446FEF7F2FB0C
:103020002B681D4A581C116830D0DFF870C0266824
:10303000DCF800706068BE421AD0884218D80120BF
:103040000190FEF701FC019803B0F0BD4FF0500372
:1030500083F31188BFF36F8FBFF34F8FFEE74FF0FD
:10306000500383F31188BFF36F8FBFF34F8FFEE7D9
:10307000A1EB000E73450BD95B1ADCF80010126847
:10308000034400202B60C4E90012D9E70020D7E7F1
:10309000002301202B60D3E7945300244C530024D9
:1030A000014B01221A60704798530024054B1B689E
:1030B00033B1054B1B68002B0CBF0220002070476A
:1030C00001207047685300241453002418B31F4B89
:1030D00010B51C6882B0844208D04FF0500383F3CF
:1030E0001188BFF36F8FBFF34F8FFEE7236D4BB196
:1030F000E16A013BE26C2365914200D06BB1002094
:1031000002B010BD4FF0500383F31188BFF36F8FEF
:10311000BFF34F8FFEE700207047211D0846019145
:10312000FEF7F0FAE06C0A4BC0F138020199E06258
:10313000A2611A68904200D91860064B00EB80002B
:1031400003EB8000FEF7B6FA0120D9E7A04E002479
:103150001C530024AC4E00242DE9F043224E85B0D0
:10316000DFF88C904FF000080DE0DB68DC681F682A
:10317000251D2846FEF7C6FA236A2046984794F88C
:1031800028305B070AD433681A68002AEDD1174A41
:1031900011681360316005B0BDE8F083A36929466A
:1031A0003B449F4205D2306863602461FEF792FA87
:1031B000E9E7D9F800306BB10294CDE90087FFF759
:1031C00075FF00236946D9F800001A46FEF718FE7D
:1031D0000028D8D14FF0500383F31188BFF36F8FCD
:1031E000BFF34F8FFEE700BF9C530024A053002481
:1031F000C05400242DE9F04F9F4E89B09F4D4FF0F1
:10320000E0299F4C33681F68002F00F0B280DB6814
:103210001F68FFF7A1FDFFF7B7FD2A6882469042BD
:10322000C0F0AF808742286000F2D080FFF79CFD9D
:103230003268D268D2F80CB00BF104084046FEF7B1
:1032400061FA9BF82800410700F1D08020F00100CE
:103250008BF82800DBF82030584698470022694652
:103260002068FEF74FFF0028CCD0009B002B77DBB7
:10327000029F7B6913B1381DFEF744FAFFF784FD06
:103280002B6880469842C0F08380009BC5F8008080
:10329000092BE3D8DFE803F0050505543E5B05057F
:1032A000543E97F82830BA6943F001033F6187F82C
:1032B0002830019B99182CBF0120002041457960DE
:1032C00000F28680A8EB03039A4200F2C0803B6ABA
:1032D0003846984797F828305B07BFD5236883B1F5
:1032E0000022BB6906970492019A13440593FFF7E5
:1032F000DDFE002304A920681A46FEF781FD0028A0
:10330000ACD14FF0500383F31188BFF36F8FBFF33D
:103310004F8FFEE797F8283043F0010387F82830F5
:10332000019BBB61002B00F09E804344391D3F612F
:1033300043457B6056D8534B1868FEF7CBF98DE7B1
:1033400097F8283023F0010387F8283086E797F8AC
:1033500028309A0772D523F0010387F828307DE7DB
:10336000019BDDE902019847009B002BFFF676AF39
:103370007EE7FFF7F1FCFFF707FD2A6882468242ED
:1033800009D9FFF7E9FEC5F800A0FFF7EDFC65E7F6
:10339000FFF7E2FE79E73B4BC5F800A01A68126818
:1033A000B2FA82F25209A7EB0A012068FFF754F83B
:1033B000FFF7DAFC00287FF451AF4FF08053C9F8D3
:1033C000043DBFF34F8FBFF36F8F47E70022EAE75B
:1033D000434502D900283FF47AAF391D3068FEF723
:1033E00079F93BE73068FEF775F937E7DBF8182025
:1033F000CBF810B0B8188245CBF8040022D3AAEB62
:1034000007039A4229D823687BB100230597CDF89A
:1034100018B00493FFF74AFE002304A920681A4657
:10342000FEF7EEFC00287FF415AF4FF0500383F356
:103430001188BFF36F8FBFF34F8FFEE73846FEF75B
:10344000CFFB0BE741463068FEF744F902E70D4B2E
:10345000391D1868FEF73EF900E70A4B4146186827
:10346000FEF738F9F6E64FF0500383F31188BFF307
:103470006F8FBFF34F8FFEE79C5300246C540024E2
:10348000C0540024A0530024F0B5234C89B0FEF7AB
:10349000B9F9256835B3FEF7D7F92368CBB1002415
:1034A00007AA06A905A80225CDE90544FEF7E2F81A
:1034B0002346079A0095DDE90501CDE9011017497A
:1034C0001748FFF705FB174B186010B1012009B032
:1034D000F0BD4FF0500383F31188BFF36F8FBFF33C
:1034E0004F8FFEE7104F114E3846FEF7D3F83046A7
:1034F000FEF7D0F80E4A0095102117600A200D4AF9
:103500000D4B16600D4AFEF70FFC20600028C2D05C
:103510000B49FEF779FFBEE7C054002498930008DA
:10352000F5310008C45400244454002458540024A5
:103530009C530024A053002470540024A45300245E
:103540009093000810B50320124C00F04FF800F0E3
:1035500011FE114B11499A699B69C2F3032203F0D2
:103560000F038A5CCB5C02F01F020D4903F01F03BE
:10357000D04020FA03F308600F202360FDF75AFEC5
:1035800010B10124204610BD0446FDF7AFFE2046D1
:1035900010BD00BF1000002400440258149400081D
:1035A0000C000024034A044B11681B780B44136081
:1035B000704700BFC854002404000024014B186861
:1035C000704700BFC854002438B50446FFF7F6FF23
:1035D0000546631C02D0044B1B781C44FFF7EEFF2A
:1035E000431BA342FAD338BD0400002406494FF61A
:1035F000FF0C0002054BCA6800F4E06002EA0C020E
:1036000010430343CB60704700ED00E00000FA0573
:103610001B4BDB68C3F3022300B5C3F1070E03F1B4
:10362000040CBEF1040F28BF4FF0040EBCF1060FCE
:103630001AD9033B4FF0FF3C0CFA03FC22EA0C02C0
:103640004FF0FF3C00280CFA0EFC21EA0C0101FAB5
:1036500003F141EA02010ADB09010A4BC9B2034442
:1036600083F800135DF804FB00221346E8E700F03E
:103670000F000901044BC9B2034419765DF804FB3D
:1036800000ED00E000E100E0FCEC00E0002807DBDA
:10369000012300F01F01034A40098B4042F820300B
:1036A000704700BF00E100E0002854D038B590F822
:1036B00021300446002B3ED00222236884F82120CA
:1036C0001A69002A35D09A68002A32D06268002A26
:1036D00034D0A268B2F5801F2BD11A6842F40012D0
:1036E0001A601A6842F480121A601968A56921F0FC
:1036F000FE41D4E9040241EA026119601A68E168F6
:1037000022F4702202431A601868144A20F4706090
:10371000084318605969E06989B241EA0541596175
:1037200059690A400121024300205A6184F821109E
:1037300038BD012038BDFDF765FDBDE71A68A168F9
:1037400022F40012B1F5801F1A60CAD01A6822F460
:1037500080121A60C9E70120704700BF0000FFFF18
:1037600078B338B590F821300446012B01D00220FF
:1037700038BD0268022380F82130136843F001034A
:103780001360FFF71BFF054604E0FFF717FF431B1D
:10379000012B14D823681A6A1204F6D51A6812F499
:1037A000706F04D00123002084F8213038BD1A68DE
:1037B000052042F010021A60FFF706FFF2E703202F
:1037C00038BD0120704700BFF8B590F82130012BBB
:1037D00030D10222DEB20368044680F8212002695B
:1037E000DD69ADB20AB305B380680F46B0F5801F3E
:1037F00023D1120CED03B5FBF2F59A68120C27D019
:10380000012A12D182209A681B699BB26BB192B2D5
:10381000642606FB1255002695FBF3F501230544AB
:1038200030463D6084F82130F8BD0123304684F8ED
:103830002130F8BD02263046F8BD01F005FE638A4E
:1038400003FB00F023689A68120CB0FBF5F5D7D1A2
:103850001E20D8E72DE9F04F0C6883B0002C00F053
:10386000A2804FF0000C894F634601229A4012EA71
:10387000040E00F091804D6805F0030909F1FF3650
:10388000012E40F29380B9F1030F40F0CD8009FA88
:103890000CF26FEA0208066815F4403F06EA0808D1
:1038A00042EA0802026077D0D7F8F42023F0030838
:1038B00003F0030942F0020208F1B0484FEA890917
:1038C000C7F8F42008F58068D7F8F42002F0020267
:1038D0000192019A0F22D8F8086002FA09F226EA4A
:1038E00002026B4EB04225D006F58066B04200F071
:1038F000A880684EB04200F0AA80674EB04200F047
:103900009A80664EB04200F0AE80654EB04200F044
:10391000B080644EB04200F0A080634EB04200F030
:10392000AE80624EB0420CBF09260A2606FA09F99B
:1039300042EA0902C8F808204FF0B042EE026FEAEE
:103940000E0812684FF0B04654BF08EA02024EEA71
:1039500002023260AA0276684FF0B04254BF08EA11
:1039600006064EEA06065660D2F88460AA034FF0B7
:10397000B04254BF08EA06064EEA0606ED034FF0D1
:10398000B045C2F88460D2F8802054BF08EA020231
:103990004EEA0202C5F8802001330CF1020C34FA21
:1039A00003F27FF462AF03B0BDE8F08F4FF003087D
:1039B000866808FA0CF826EA080ACE686FEA080852
:1039C00006FA0CF646EA0A068660C5F30016D0F839
:1039D00004A09E402AEA020232434260C268B9F162
:1039E000020F8E6802EA080206FA0CF646EA0206A0
:1039F00009FA0CF2C6607FF44EAF03F007064FEAF7
:103A0000D3094FEA860B0F2600EB890906FA0BF65D
:103A1000D9F820A02AEA060A0E6906FA0BF646EA49
:103A20000A06C9F8206036E74FF0030808FA0CF8D8
:103A30006FEA0808D2E7032606FA09F942EA090202
:103A400078E7012606FA09F942EA090272E7022636
:103A500006FA09F942EA09026CE7062606FA09F9AC
:103A600042EA090266E7042606FA09F942EA09026F
:103A700060E7052606FA09F942EA09025AE707262D
:103A800006FA09F942EA090254E700BF0044025865
:103A90000000025800080258000C0258001002589A
:103AA0000014025800180258001C02580024025842
:103AB00002B9090481617047436901EA030221EAFE
:103AC000030141EA02418161704700BF38B5104CE3
:103AD000E36813F0040FE36805D103F00703181A35
:103AE00018BF012038BD23F007031843E060FFF73B
:103AF00065FD054605E0FFF761FD401BB0F57A7FE7
:103B000004D863689B04F6D5002038BD012038BD79
:103B1000004802583B4B30B49A6A9C6ADD6A14F440
:103B20007C7F596BC4F3051038D0C1F3CC0105F08C
:103B3000010502F0030205FB01F1012A07EE901ACC
:103B4000B8EEE77A02D0022A4ED04AB307EE900AC6
:103B5000DFED2D6AF8EEE77A1B6B86EEA76ADFEDE4
:103B60002B5AC3F3080306EE903AB7EE005AF8EE6C
:103B7000E66A76EE856AE7EE256A66EE266A214BEE
:103B80001B6BC3F34623013307EE903AB8EEE77A96
:103B9000C6EE877AFCEEE77A17EE900A30BC7047E3
:103BA0001A68920627D5196807EE900A184AB7EEE8
:103BB000006A1B6BC1F3C101F8EEE77A9FED135A5F
:103BC000C3F30803CA4006EE903A05EE902AF8EED9
:103BD000E66AF8EEE55A76EE866A85EEA76AE7EEC3
:103BE000056A66EE266ACAE707EE900ADFED096A03
:103BF000F8EEE77AB0E707EE900ADFED076AF8EE35
:103C0000E77AA9E7004402580024744A000000390A
:103C10000090D00320BCBE4B0024744C002800F060
:103C2000BD81F8B503680446D9072ED593490A69C2
:103C3000896A02F03802102A00F0F080182A00F099
:103C4000E8806368B3F5803F00F00881002B00F046
:103C50004681B3F5A02F894B1A6800F0548222F4F4
:103C600080321A601A6822F480221A60FFF7A6FCDC
:103C7000824E054605E0FFF7A1FC401B642800F2D8
:103C80002C8133689B03F6D523689D077ED4D90623
:103C900028D57A490A69896A02F03802082A00F0B0
:103CA000CD80182A00F0C580E369744D002B00F028
:103CB0004E812B6843F080032B60FFF77FFC0646A4
:103CC00005E0FFF77BFC801B022800F206812B68D1
:103CD000DB05F6D5EB68226A23F07C5343EA0263E6
:103CE000EB6023681D0716D56369644D002B00F057
:103CF0000C816B6F43F001036B67FFF75FFC0646B7
:103D000005E0FFF75BFC801B022800F2E6806B6F8A
:103D10009807F6D523689A0616D5A369574D002B48
:103D200000F004812B6843F480532B60FFF746FCBE
:103D3000064605E0FFF742FC801B022800F2CD801A
:103D40002B689F04F6D52368590700F18D80606ABF
:103D5000D0B14A4D2B6903F03803182B00F0858150
:103D60002B68022823F080732B6000F01981FFF785
:103D700025FC044605E0FFF721FC001B022800F2A9
:103D8000AC802B689B01F6D40020F8BD3B4A136938
:103D9000926A13F0380322D1384BE2681B68590746
:103DA00001D5002A43D0354D2B6823F01903134366
:103DB0002B60FFF703FC064605E0FFF7FFFB801BC7
:103DC000022800F28A802B685B07F6D56B682269AF
:103DD00023F0FE4343EA02636B60236857E7182B26
:103DE00000F0D880254DE2682B68002A00F0C180E1
:103DF00023F0190313432B60FFF7E0FB064604E0B2
:103E0000FFF7DCFB801B022867D82B685F07F7D51C
:103E1000DCE701F0030102297FF413AF174A1268AF
:103E200092037FF532AF6268002A7FF42EAF012043
:103E3000F8BD01F0030101297FF436AF0F4A126883
:103E4000D20502D5E269802AF1D10C49206ACA68FC
:103E500022F07C5242EA0062CA6043E7074A1368D4
:103E600043F48033136001E7054D2B6843F48073FE
:103E70002B60FFF7A3FB064609E000BF0044025891
:103E800000480258FFF79AFB801B642825D82B684E
:103E9000DA05F7D5A368012B00F05C81002B00F058
:103EA0003A81052BA84B1A6F00F05A8122F00102CB
:103EB0001A671A6F22F004021A67FFF77FFBA24EFF
:103EC00041F28837054604E0FFF778FB401BB84213
:103ED00003D8336F9B07F7D539E70320F8BD9A4D18
:103EE0002B6823F480332B602B6823F480232B6012
:103EF000FFF764FB064604E0FFF760FB801B6428C5
:103F0000EBD82B689F03F7D4BEE66B6F23F0010359
:103F10006B67FFF753FB064604E0FFF74FFB801B80
:103F20000228DAD86B6F9907F7D4F3E62B6823F4ED
:103F300080532B60FFF742FB064604E0FFF73EFB91
:103F4000801B0228C9D82B689804F7D4FBE62B689D
:103F500023F080032B60FFF731FB064604E0FFF7F8
:103F60002DFB801B0228B8D82B68DF05F7D4236807
:103F7000B8E623F001032B60FFF720FB064604E0C0
:103F8000FFF71CFB801B0228A7D82B685807F7D423
:103F900023687CE690077FF425AFFDE6012070479B
:103FA000FFF70CFB064604E0FFF708FB801B022826
:103FB00093D82B689901F7D4A96A644BA26A0B4085
:103FC0006349614E1343E26A43EA0213AB62D4E9E8
:103FD0000D32013B013A5B0212049BB202F4FE0275
:103FE0001343226B013AC2F308021343E26B013A16
:103FF000120602F0FE4213432B63EB6A23F0010327
:10400000EB626A6BA36C114041EAC3016963EB6A1E
:10401000226C23F00C031343EB62EB6A626C23F017
:1040200002031343EB62EB6A43F48033EB62EB6A07
:1040300043F40033EB62EB6A43F48023EB62EB6AF8
:1040400043F00103EB622B6843F080732B60FFF7B2
:10405000B5FA044605E0FFF7B1FA001B02283FF667
:104060003CAF33689A01F6D58EE60128AA6A2E6B1A
:104070003FF48BAE02F00303A16A8B427FF4D7AE0C
:10408000C2F30512E36A9A427FF4D1AE236BC6F302
:104090000802013B9A427FF4CAAE636BC6F3462224
:1040A000013B9A427FF4C3AEA36BC6F30642013BC9
:1040B0009A427FF4BCAEE36BC6F30666013B9E42B8
:1040C0007FF4B5AE6B6BA26CC3F3CC039A423FF4A2
:1040D0005BAE1D4AD36A23F00103D362FFF76EFA89
:1040E0000546FFF76BFAA842FBD0174A0020A16CE7
:1040F000174B546B234043EAC1035363D36A43F025
:104100000103D362F8BD42F480221A601A6842F4B7
:1041100080321A60AAE50C4D41F288372B6F23F0EC
:1041200001032B672B6F23F004032B67FFF746FA7D
:10413000064605E0FFF742FA801BB8423FF6CDAED7
:104140002B6F9807F6D402E6004402580CFCFFFFE0
:104150000700FFFF064A136F43F001031367ACE645
:1041600042F004021A671A6F42F001021A67A4E6CD
:1041700000440258474A136903F03803102B04D057
:10418000182B0DD01BB14448704744487047136842
:1041900099064AD513684248C3F3C103D840704713
:1041A000936A30B4946AD56A14F47C7F516BC4F37B
:1041B000051038D0C1F3CC0105F0010503F003036D
:1041C00005FB01F1012B07EE901AB8EEE77A02D059
:1041D000022B2CD093B307EE900ADFED326AF8EE93
:1041E000E77A136B86EEA76ADFED2F5AC3F3080355
:1041F00006EE903AB7EE005AF8EEE66A76EE856A79
:10420000E7EE256A66EE266A224B1B6BC3F3462354
:10421000013307EE903AB8EEE77AC6EE877AFCEE05
:10422000E77A17EE900A30BC70471D48704707EEDA
:10423000900ADFED1E6AF8EEE77AD2E713689B0674
:1042400020D5146807EE900A1549B7EE006A136B83
:10425000C4F3C104F8EEE77A9FED135AC3F30803E1
:10426000E14006EE903A05EE901AF8EEE66AF8EEB6
:10427000E55A76EE866A85EEA76AE7EE056A66EE8F
:10428000266AC1E707EE900ADFED096AF8EEE77AE1
:10429000A7E700BF0044025800093D0040787D01B7
:1042A0000090D0030024744A0000003920BCBE4BAB
:1042B0000024744C002800F00C818C4A136803F031
:1042C0000F038B422DE9F04104460D460CD21368D2
:1042D00023F00F030B431360136803F00F038B42AB
:1042E00002D00120BDE8F08123685F070BD580492B
:1042F00020698A6902F07002904204D98A6922F02A
:10430000700202438A611E070BD579496069CA6948
:1043100002F07002904204D9CA6922F0700202438E
:10432000CA61D8060BD57249A069CA6902F4E06275
:10433000904204D9CA6922F4E0620243CA61990634
:104340000BD56B49E0690A6A02F07002904204D909
:104350000A6A22F0700202430A629A0740F1AB80B7
:104360006348E168826902F00F02914204D98269D0
:1043700022F00F020A438261D80730D55C4AA16857
:10438000936923F470630B43936161681368022996
:1043900000F0A180032900F09880012900F0A1809D
:1043A00058079ED5524E41F28838336923F00703EF
:1043B0000B433361FFF702F9074605E0FFF7FEF80C
:1043C000C01B404500F28B803369626803F03803FC
:1043D000B3EBC20FF2D12368990706D5E1684448D0
:1043E000826902F00F028A4269D840490A6802F0E5
:1043F0000F02AA420AD90A6822F00F022A430A6071
:104400000A6802F00F02AA427FF46BAF5A070BD57D
:10441000374920698A6902F07002904204D28A69A1
:1044200022F0700202438A611F070BD53049606990
:10443000CA6902F07002904204D2CA6922F0700286
:104440000243CA61DE060BD52949A069CA6902F494
:10445000E062904204D2CA6922F4E0620243CA6177
:104460009D060BD5224AE169136A03F07003994255
:1044700004D2136A23F070030B431362FFF77AFE32
:104480001B4A03461B4891699269C1F303211A4DE7
:1044900002F00F02194C415C825C01F01F011848C8
:1044A00002F01F02CB4000682B60D3402360BDE8C0
:1044B000F041FCF7BFBEDA073FF560AF95E78269D0
:1044C00022F00F02114381618FE79F013FF56AAF30
:1044D00007E7012070479B033FF564AF01E7032026
:1044E00000E7DE053FF55EAFFBE600BF00200052AF
:1044F00000440258149400080C000024100000240A
:1045000008000024184A38B5136903F03803102B4B
:104510001AD0182B23D0CBB11448134B14499A69E5
:104520009B69C2F30322134C03F00F03124D8A5C04
:10453000CB5C02F01F0220FA02F203F01F0022FA05
:1045400000F02A60206038BD0C48E6E713689B063F
:1045500008D512680A48C2F3C102D040DDE7FFF770
:10456000D9FADAE70648D8E70044025800093D00C6
:1045700014940008100000240C00002440787D01F1
:104580000090D0031C4A38B5136903F03803102B90
:1045900021D0182B2BD003B31848174A1849936918
:1045A000184DC3F30323184CCB5C03F01F0320FA10
:1045B00003F3906900F00F002B60085C00F01F000F
:1045C000C3402360D269C2F30212885C00F01F006E
:1045D00023FA00F038BD0D48DFE713689B0609D5C4
:1045E00010680B4BC0F3C10023FA00F0D5E7FFF7CA
:1045F00091FAD2E70648D0E70044025800093D008E
:10460000149400080C0000241000002440787D0160
:104610000090D0031C4A38B5136903F03803102BFF
:1046200021D0182B2BD003B31848174A1849936987
:10463000184DC3F30323184CCB5C03F01F0320FA7F
:1046400003F3906900F00F002B60085C00F01F007E
:10465000C3402360D269C2F30222885C00F01F00CD
:1046600023FA00F038BD0D48DFE713689B0609D533
:1046700010680B4BC0F3C10023FA00F0D5E7FFF739
:1046800049FAD2E70648D0E70044025800093D0045
:10469000149400080C0000241000002440787D01D0
:1046A0000090D003134B3F2202601A6902F0070208
:1046B00042609A6902F4706282609A6902F00F02A5
:1046C000C2609A6902F070020261DA6902F0700257
:1046D0004261DA6902F4E06282611B6A10B403F09D
:1046E0007003054CC36123685DF8044B03F00F03AE
:1046F0000B6070470044025800200052F8B53A4C55
:10470000A36A03F00303032B67D0236806460F4612
:1047100023F080632360FEF751FF054604E0FEF7B7
:104720004DFF431B022B56D823681A01F7D4A36A06
:10473000326823F47C3343EA0233A362D6E90232BF
:10474000013B013A5B0212049BB202F4FE021343E6
:104750007268013AC2F3080213433269013A120641
:1047600002F0FE421343A363E36A726923F0C003BD
:104770001343E362E26AB36922F020021A431B4B3F
:10478000E262E26A22F01002E262E16BF2690B403F
:1047900043EAC203E363E36A43F01003E362E36ABC
:1047A000EFB1012F0CBF43F4801343F40013E36215
:1047B0000D4C236843F080632360FEF7FFFE05463F
:1047C00004E0FEF7FBFE401B022804D823681B010F
:1047D000F7D50020F8BD0320F8BD0120F8BD43F453
:1047E0000023E362E4E700BF004402580700FFFF34
:1047F000F8B53A4CA36A03F00303032B67D0236890
:1048000006460F4623F080532360FEF7D7FE054689
:1048100004E0FEF7D3FE431B022B56D823689A0010
:10482000F7D4A36A326823F07C7343EA0253A3628D
:10483000D6E90232013B013A5B0212049BB202F458
:10484000FE0213437268013AC2F30802134332694D
:10485000013A120602F0FE4213432364E36A7269CE
:1048600023F440631343E362E26AB36922F4007203
:104870001A431B4BE262E26A22F48072E262616CCC
:10488000F2690B4043EAC2036364E36A43F4807352
:10489000E362E36AEFB1012F0CBF43F4000343F07E
:1048A0008073E3620D4C236843F080532360FEF76E
:1048B00085FE054604E0FEF781FE401B022804D871
:1048C00023689B00F7D50020F8BD0320F8BD012028
:1048D000F8BD43F48003E362E4E700BF00440258FC
:1048E0000700FFFF2DE9F843D0E900320446180124
:1048F00003F000661ED5616EB1F5001F00F0F48470
:1049000025D8002900F00F84B1F5801F22D10221A3
:1049100004F10800FFF7F2FE0646002E40F0258560
:10492000616ED4E900329E4D0026286D20F44010BF
:1049300001432965D90511D5A16D042900F27885B7
:10494000DFE811F0DC04E304EC04E302E302B1F578
:10495000401FE8D0D9054FF00106EDD435465F057C
:1049600021D5D4F8A410B1F5800F00F0F48400F242
:10497000D680002900F0EA83B1F5001F40F0D9800D
:10498000002104F10800FFF7B9FE0546D4E9003222
:10499000002D40F0B083824FD4F8A400B96D21F40B
:1049A00060010143B965180521D5D4F8A810B1F10B
:1049B000007F00F0BC8400F2BF80002900F0BA83C1
:1049C000B1F1807F40F0C280002104F10800FFF7C0
:1049D00095FE0546D4E90032002D40F09083704FDB
:1049E000D4F8A800B96D21F0E0610143B9659901DF
:1049F00018D5E16C202900F0458400F2AA8039B175
:104A0000102940F0A9806648C16A41F40031C162B2
:104A1000002D40F0A383624FE06CF96C21F030016F
:104A20000143F964DF041FD5E16DB1F5005F00F0CB
:104A3000888400F29480002900F08283B1F5805FC1
:104A400040F09580002104F10800FFF757FE05466D
:104A5000D4E90032002D40F05083514FE06D396DA4
:104A600021F4E0410143396598041CD5216EB1F56C
:104A7000003F00F0F1837DD859B1B1F5803F40F09F
:104A80008180012104F10800FFF738FE0546D4E9D2
:104A90000032002D40F07F83414F206E396D21F4AC
:104AA000E0210143396559041DD5D4F8AC10B1F1AA
:104AB000005F00F0DC8368D851B1B1F1805F6CD148
:104AC000012104F10800FFF719FE0546D4E9003280
:104AD000002D40F05E83324FD4F8AC00B96D21F068
:104AE000E0410143B9651F040DD5E16EB1F1805F6E
:104AF00000F08683B1F1005F00F02782002900F00A
:104B00002C8201263546D80158D5A16C032900F224
:104B10009284DFE811F04F007D0347004F0021F43D
:104B20000010B0F5000F3FF433AFB1F5C00F3FF404
:104B30002FAF0126354636E721F08070B0F1806F47
:104B40003FF44AAFB1F1407F3FF446AF012635460E
:104B50004DE730293FF45CAF0126354662E7B1F5F9
:104B6000405F3FF477AFB1F5804F3FF473AF01265C
:104B7000354679E721F48030B0F5802F89D0B1F542
:104B8000403F86D0012635468DE721F08050B0F1B8
:104B9000804F9DD0B1F1405F9AD001263546A2E703
:104BA00000440258022104F10800FFF7A7FD054662
:104BB000D4E90032002D00F0F0822E46590200F1B7
:104BC0000082D9072FD5A16F28292AD8DFE811F054
:104BD000EE012900290029002900290029002900C7
:104BE000E9032900290029002900290029002900BA
:104BF000E6012900290029002900290029002900AF
:104C0000EE01290029002900290029002900290096
:104C1000EE01290029002900290029002900290086
:104C2000EE01012635469F0717D5616F052900F271
:104C3000FC83DFE811F00E00AA0306000E000E0050
:104C40000E00012104F12800FFF7D2FD0546D4E94A
:104C50000032002D00F093822E46580718D5D4F864
:104C60009010052900F2DE83DFE811F00E008303C7
:104C700006000E000E000E00012104F12800FFF7CF
:104C8000B7FD0546D4E90032002D00F06F822E46B4
:104C900099061FD5D4F88C10B1F1005F00F0FF82A7
:104CA00000F2008159B1B1F1805F40F0058100212F
:104CB00004F10800FFF722FD0546D4E90032002D7B
:104CC00040F05082AA4FD4F88C00796D21F0E04179
:104CD000014379655F061FD5D4F89810B1F5006FD0
:104CE00000F0AA8200F2EB8059B1B1F5806F40F07C
:104CF000F080002104F10800FFF700FD0546D4E92B
:104D00000032002D40F04382994FD4F89800B96DDD
:104D100021F4E0510143B96518061FD5D4F89C1061
:104D2000B1F5804F00F07D8200F2D68059B1B1F527
:104D3000005F40F0DB80002104F10800FFF7DEFC9B
:104D40000546D4E90032002D40F00A82884FD4F89D
:104D50009C00B96D21F460410143B96519070BD579
:104D6000D4F88000B0F5805F00F0B282804F796D9A
:104D700021F4405101437965DF060BD5D4F8940046
:104D8000B0F5807F00F09782794FB96D21F44071C2
:104D90000143B96518030ED5D4F8A010B1F5803FD2
:104DA00000F0BF80B1F5003F00F0C380002900F0A3
:104DB00013820126354659030FD5D4F88410B1F576
:104DC000001F00F0D780B1F5401F00F0DB80B1F587
:104DD000801F00F00B8201263546DF0309D5216DC7
:104DE000002900F0F081B1F5803F00F08A810126B2
:104DF0003546980000F1658199030BD5E16FB1F557
:104E0000807F00F0D88174D921F48070B0F5007FE4
:104E100071D00126DF0206D55548256F016D21F0BE
:104E20000041294301659D0206D55148A56E016DDB
:104E300021F0807129430165580009D54C49086962
:104E400020F4004008610869D4F8B4502843086190
:104E5000002B06DA4648656DC16C21F040512943AC
:104E6000C164190207D54249D4F888004B6D23F478
:104E7000400303434B65D30700F1FE80970700F121
:104E80000881550700F11281100700F1EA80D10670
:104E900000F1D980920600F12081301E18BF012058
:104EA000BDE8F88321F08050B0F1804F3FF407AFA8
:104EB000B1F1405F3FF403AF012635460AE721F424
:104EC0008060B0F5805F3FF41CAFB1F5406F3FF4F8
:104ED00018AF012635461FE721F40050B0F5004F0A
:104EE0003FF431AFB1F5C04F3FF42DAF0126354649
:104EF00034E700298DD1002D40F05B811C4D686D99
:104F000020F440700143696584E73546002D40F088
:104F1000F080174FA06D396D21F00701014339650D
:104F20001DE5022104F12800FFF762FC0546D4E9E3
:104F30000032002D40F010810D4FD4F8A000B96D63
:104F400021F440310143B96535E7012104F108003E
:104F5000FFF7D4FB0546D4E90032002D40F027814D
:104F6000034FE06E396D21F0405101433965CAE5C8
:104F700000440258012104F12800FFF739FC0546DE
:104F8000D4E90032002D40F01081B14FD4F88400F4
:104F9000796D21F44011014379651EE7012104F187
:104FA0002800FFF725FC0546D4E90032002D40F02B
:104FB000DB80A74FA06F796D21F03801014379653F
:104FC00031E6A44F3B6843F480733B60FEF7F6FA8A
:104FD000804606E0FEF7F2FAA0EB0800642800F233
:104FE000EC813B68DB05F5D5002D40F01682984A30
:104FF000D4F8B030116F594011F4407F0BD0116FCD
:10500000106F21F4407140F480301067106F20F46D
:10501000803010671167B3F5807F00F0E08103F402
:105020004072B2F5407F00F0EE8189490A6922F4AE
:105030007C520A618648C3F30B01076F3943D4E9F8
:1050400000320167BDE504F1280501212846FFF77C
:10505000CFFB002800F0D28063689B0646D5064649
:105060003DE0002104F12800FFF7C2FB6268002840
:105070003FF40DAF06460AE7002104F10800FFF7F0
:105080003DFB626800283FF4F9AE970706467FF5BE
:10509000F8AE012104F10800FFF730FB6268002838
:1050A0003FF4EFAE550706467FF5EEAE022104F160
:1050B0000800FFF723FB626800283FF4E5AE0646D0
:1050C000E2E6022104F12800FFF792FBD4E9003266
:1050D00000283FF491AE01268EE604F12805022156
:1050E0002846FFF785FB00283FF4D7AE0120BDE836
:1050F000F8832E4633E42E4655E42E46B4E42E467D
:1051000075E4022104F10800FFF7F8FA0546D4E936
:105110000032002D5ED14E4F206DF96C21F48031AC
:105120000143F96465E64A4DE86A40F40030E862FC
:10513000FFF7F9BB4648C16A41F40031C1624BE454
:105140004348C16A41F40031C16283E44048C16A06
:1051500041F40031C1621BE42E462CE62E4661E488
:105160002E46FBE52E46B5E52E465CE5384FD4F8D5
:105170009000B96D21F007010143B96588E5344F0E
:10518000606F796D21F007010143796565E52E4671
:10519000C2E52E46A7E42E4685E42D4FA06CF96C9F
:1051A00021F003010143F96408E52E4615E62E4679
:1051B000A9E42E462EE6264FF86A40F40030F86245
:1051C000002DF6D19AE62248C16A41F40031C1624D
:1051D000002DA0D02E460CE604F10800FFF78EFA51
:1051E0000546D4E90032002DB6D1A5E61848C16ABB
:1051F00041F40031C162002DD7D1C6E6626849E6AC
:105200001348C16A41F40031C162002DCFD1A7E635
:105210000F48C16A41F40031C162002D7FF4CDAC6A
:10522000BBE7022104F12800FFF7E2FA0546D4E9C2
:105230000032002D94D189E5022104F12800FFF706
:10524000D7FA0546D4E90032002DA0D15CE500BFB5
:105250000044025800480258012104F12800FFF7D9
:10526000C7FA0546D4E90032002D94D114E4012197
:1052700004F12800FFF7BCFA0546D4E90032002DFE
:1052800087D128E4022104F10800FFF737FA054628
:10529000D4E90032002D7FF461AFFFF7BCBB0221DF
:1052A00004F12800FFF7A4FA0546D4E90032002DE6
:1052B0007FF458AF06E5022104F12800FFF798FAC1
:1052C000002840F08680D4F89400D4E900325BE5F1
:1052D000022104F12800FFF78BFA002873D1D4F8DB
:1052E0008000D4E9003241E5022104F12800FFF7F3
:1052F0007FFA0646002E3FF413AB36E050483546A1
:10530000C16A41F40031C16200E6002104F10800E5
:10531000FFF7F4F90546D4E90032F7E5002104F17E
:105320002800FFF765FA0546D4E90032EEE50021D2
:1053300004F12800FFF75CFA0546D4E90032FFF7D4
:105340004BBB002104F12800FFF752FA0546D4E9CF
:105350000032FFF77FBB002104F12800FFF748FA75
:105360000546D4E90032FFF713BBD4E90032FFF75A
:10537000E1BA012104F10800FFF7C0F90546D4E9BC
:105380000032002D7FF483ACF0E6012104F1080027
:10539000FFF7B4F90546D4E90032002D7FF45CAC88
:1053A000EDE6012104F10800FFF7A8F90546D4E96C
:1053B0000032002D7FF4D8AEFBE50326D4E900329D
:1053C0003546FFF7FEBBD4F880000126D4E9003251
:1053D000CCE4D4F894000126D4E90032D4E4FEF7FA
:1053E000EDF8DFF85C80074641F2883904E0FEF70B
:1053F000E5F8C01B4845E0D8D8F870309807F6D5D6
:10540000D4F8B0300BE60E480E4A016902EA1312D6
:1054100021F47C510A4302610CE6D4E900322E46A5
:10542000FFF7CFBB0126354632E40126354614E4AA
:105430000126FFF793BA01263546FFF7BFBB00BF31
:1054400000440258CFFFFF0008B5FFF75BF8054B9B
:10545000054A1B6AC3F30213D35C03F01F03D84051
:1054600008BD00BF00440258149400084F4B70B4AC
:10547000996A9D6ADE6A15F47C3FC5F30532DC6BE0
:105480005CD0C4F3CC04C6F3001601F0030106FBA4
:1054900004F4012907EE904AB8EEE77A03D0022916
:1054A00075D000294FD007EE902ADFED416AF8EE63
:1054B000E77A9B6B86EEA76ADFED3E5AC3F30803DB
:1054C00006EE903AB7EE005AF8EEE66A76EE856A96
:1054D000E7EE256A66EE266A344AB7EE006A936BF9
:1054E000C3F3462307EE103AB8EEC77A70BC37EE26
:1054F000067AC6EE877AFCEEE77AC0ED007A936B07
:10550000C3F3064307EE103AB8EEC77A37EE067AD1
:10551000C6EE877AFCEEE77AC0ED017A936BC3F3AF
:10552000066307EE903AF8EEE77A77EE867A86EE33
:10553000A77ABCEEC77A80ED027A704770BCC0E9EA
:105540000022826070471968890627D51C6807EE1B
:10555000902A1949B7EE006A9B6BC4F3C102F8EEBA
:10556000E77A9FED145AC3F30803D14006EE903A50
:1055700005EE901AF8EEE66AF8EEE55A76EE866ADF
:1055800085EEA76AE7EE056A66EE266AA4E707EEEF
:10559000902ADFED0A6AF8EEE77A8AE707EE902AAA
:1055A000DFED076AF8EEE77A83E700BF00440258B0
:1055B0000024744A000000390090D00320BCBE4B88
:1055C0000024744C4F4B70B4996A9D6ADE6A15F0E2
:1055D0007C7FC5F305525C6C5CD0C4F3CC04C6F38D
:1055E000002601F0030106FB04F4012907EE904AAE
:1055F000B8EEE77A03D0022975D000294FD007EE24
:10560000902ADFED416AF8EEE77A1B6C86EEA76A16
:10561000DFED3E5AC3F3080306EE903AB7EE005AA8
:10562000F8EEE66A76EE856AE7EE256A66EE266AA9
:10563000344AB7EE006A136CC3F3462307EE103A00
:10564000B8EEC77A70BC37EE067AC6EE877AFCEE03
:10565000E77AC0ED007A136CC3F3064307EE103A05
:10566000B8EEC77A37EE067AC6EE877AFCEEE77AAE
:10567000C0ED017A136CC3F3066307EE903AF8EEBF
:10568000E77A77EE867A86EEA77ABCEEC77A80ED67
:10569000027A704770BCC0E90022826070471968C6
:1056A000890627D51C6807EE902A1949B7EE006ACB
:1056B0001B6CC4F3C102F8EEE77A9FED145AC3F3F2
:1056C0000803D14006EE903A05EE901AF8EEE66A2D
:1056D000F8EEE55A76EE866A85EEA76AE7EE056A89
:1056E00066EE266AA4E707EE902ADFED0A6AF8EE76
:1056F000E77A8AE707EE902ADFED076AF8EEE77AA5
:1057000083E700BF004402580024744A00000039B7
:105710000090D00320BCBE4B0024744C704700BFE7
:10572000002800F0B18038B590F83D30044603F011
:10573000FF02002B00F08380236802225348B3F15C
:10574000804F84F83D20A3EB00001A68B0FA80F087
:105750004FEA50104FD000284DD14D494D4D8B424E
:1057600072D001F580618B426ED05D1B01F58061C6
:10577000B5FA85F58B424FEA55156ED0002D6CD1E8
:1057800045498B4273D001F580618B426FD043480D
:10579000A1F5C8418B4218BF834268D001F58061F2
:1057A0008B4264D0A16922F08002E0681143D86284
:1057B000606898621868012240F0040018600020B8
:1057C0005A61196084F8482084F83E2084F83F200C
:1057D00084F8402084F8412084F8422084F8432053
:1057E00084F8442084F8452084F8462084F8472033
:1057F00084F83D2038BD274D22F07002A1685D1B62
:105800000A43B5FA85F56D0922F440712269114306
:10581000A26921F080011143E268DA6262689A624B
:1058200050B94DB91C481E4A934218BF834203D059
:1058300002F580629342BDD162691A63BAE780F8CB
:105840003C20FFF76BFF77E75D1B22F07002A16839
:10585000B5FA85F50A436D09D6E7A16822F0700212
:105860000A4310498B42CFD0002DCDD188E7206963
:1058700022F44071A2690143E06821F080011143E4
:105880006268D8629A62CDE701207047000001404B
:105890000004004000040140004001400048014075
:1058A00000440140000C004090F83D30012B4DD1E8
:1058B000026802212A4BB2F1804F18BF9A4230B4DD
:1058C0000CBF01230023274D274CAA4208BF43F0F9
:1058D000010380F83D102548A24208BF43F00103B0
:1058E00004F58064D168A24208BF43F0010304F5C7
:1058F000406441F00101824208BF43F0010300F51A
:105900007050D160A24208BF43F00103184982429F
:1059100008BF43F001038A4208BF43F0010333B9D3
:10592000A0F5B840101AB0FA80F0400998B191681B
:10593000104B0B40062B0BD0B3F5803F08D01368FB
:10594000002043F00103136030BC70470120704712
:10595000002030BC7047136843F001031360F3E785
:105960000000014000040040000800400004014025
:1059700000E0004007000100704700BF704700BF13
:10598000704700BF704700BF036870B5DE6805460A
:105990001C69A20701D5B10755D4630701D570076B
:1059A0003ED4210701D5320728D4E00601D5F106FF
:1059B00011D4E20701D5F30763D414F4025F52D087
:1059C000300666D4600601D5710673D4A20601D5EF
:1059D000B3064DD470BD2B686FF0100228461A61D3
:1059E00008222A77DB6913F4407F74D1FFF7C4FFE4
:1059F0002846FFF7C5FF00232B77DAE72B686FF007
:105A0000080228461A6104222A77DB699B075FD1C6
:105A1000FFF7B2FF2846FFF7B3FF00232B77C4E759
:105A20002B686FF0040228461A6102222A779B69CC
:105A300013F4407F49D1FFF79FFF2846FFF7A0FFEF
:105A400000232B77ADE76FF002021A610122027783
:105A50009B699A0736D1FFF78FFF2846FFF790FF23
:105A600000232B7799E7E205ACD533061AD4A9E7D2
:105A70002B686FF0200228461A61BDE8704000F0E4
:105A80002DB82B686FF0010228461A61FBF726FC3F
:105A900093E72B686FF4025228461A6100F020F851
:105AA000E1058FD52B686FF4807228461A6100F0EB
:105AB00019F887E72B686FF0400228461A61FFF754
:105AC00061FF83E7FFF75AFFCAE7FFF757FFB7E722
:105AD000FFF754FFA1E7FFF751FF8CE7704700BFC6
