:020000040800F2
:1000000000000524257D0008BD7D0008C17D000895
:10001000C57D0008C97D0008CD7D000800000000F6
:10002000000000000000000000000000412F000858
:10003000D17D000800000000D12F0008912C00089D
:10004000757D0008757D0008757D0008757D0008C8
:10005000757D0008757D0008757D0008757D0008B8
:10006000757D0008757D0008757D0008757D0008A8
:10007000757D0008757D0008757D0008757D000898
:10008000757D0008757D0008757D0008757D000888
:10009000757D0008757D0008757D0008757D000878
:1000A000757D0008757D0008757D0008757D000868
:1000B000757D0008757D0008757D0008757D000858
:1000C000757D0008757D0008757D0008757D000848
:1000D000757D0008757D0008757D0008757D000838
:1000E000757D0008757D000800000000757D000822
:1000F000757D0008757D0008757D0008757D000818
:10010000757D0008757D0008757D0008757D000807
:10011000757D0008757D0008D9120008757D0008FE
:10012000757D0008757D0008757D0008757D0008E7
:10013000757D0008757D0008757D0008757D0008D7
:1001400000000000000000000000000000000000AF
:10015000757D0008757D0008757D0008757D0008B7
:10016000757D0008757D0008757D0008757D0008A7
:10017000757D0008757D0008757D00080000000091
:10018000757D0008757D0008757D0008757D000887
:10019000757D0008757D0008757D0008757D000877
:1001A000757D0008757D0008757D00080000000061
:1001B000757D0008757D0008757D0008757D000857
:1001C000757D0008757D000800000000000000003B
:1001D0000000000000000000757D00080000000025
:1001E000000000000000000000000000000000000F
:1001F0000000000000000000757D0008757D00080B
:10020000757D0008757D000800000000757D000800
:10021000757D0008757D0008757D0008757D0008F6
:10022000757D000800000000757D000800000000DA
:10023000757D0008757D000800000000757D0008D0
:10024000757D0008757D0008757D0008757D0008C6
:10025000757D0008757D0008757D0008757D0008B6
:10026000757D0008757D0008757D0008757D0008A6
:10027000757D0008757D0008757D00080000000090
:10028000757D0008757D0008757D0008757D000886
:1002900000000000757D0008757D0008000000006A
:1002A00000000000757D0008757D0008757D000860
:1002B000757D0008757D0008757D0008757D000856
:0C02C000757D0008757D0008757D000844
:1002D00010B5054C237833B9044B13B10448AFF380
:1002E00000800123237010BDF001002400000000F5
:1002F00044C4000808B5034B1BB103490348AFF3DE
:10030000008008BD00000000F401002444C400087F
:1003100081F0004102E000BF83F0004330B54FEAB6
:1003200041044FEA430594EA050F08BF90EA020F23
:100330001FBF54EA000C55EA020C7FEA645C7FEAB6
:10034000655C00F0E2804FEA5454D4EB5555B8BFD9
:100350006D420CDD2C4480EA020281EA030382EA4A
:10036000000083EA010180EA020281EA0303362DDC
:1003700088BF30BD11F0004F4FEA01314FF4801CAF
:100380004CEA113102D0404261EB410113F0004FC1
:100390004FEA03334CEA133302D0524263EB430378
:1003A00094EA050F00F0A780A4F10104D5F1200E16
:1003B0000DDB02FA0EFC22FA05F2801841F1000171
:1003C00003FA0EF2801843FA05F359410EE0A5F145
:1003D00020050EF1200E012A03FA0EFC28BF4CF076
:1003E000020C43FA05F3C01851EBE37101F000452C
:1003F00007D54FF0000EDCF1000C7EEB00006EEB39
:100400000101B1F5801F1BD3B1F5001F0CD34908C2
:100410005FEA30004FEA3C0C04F101044FEA445219
:1004200012F5800F80F09A80BCF1004F08BF5FEAA0
:10043000500C50F1000041EB045141EA050130BD80
:100440005FEA4C0C404141EB0101013C28BFB1F592
:10045000801FE9D291F0000F04BF01460020B1FADD
:1004600081F308BF2033A3F10B03B3F120020CDAB0
:100470000C3208DD02F1140CC2F10C0201FA0CF08E
:1004800021FA02F10CE002F11402D8BFC2F1200CF3
:1004900001FA02F120FA0CFCDCBF41EA0C019040A9
:1004A000E41AA2BF01EB0451294330BD6FEA0404F2
:1004B0001F3C1CDA0C340EDC04F11404C4F12002DD
:1004C00020FA04F001FA02F340EA030021FA04F3EF
:1004D00045EA030130BDC4F10C04C4F1200220FA46
:1004E00002F001FA04F340EA0300294630BD21FA84
:1004F00004F0294630BD94F0000F83F4801306BF4A
:1005000081F480110134013D4EE77FEA645C18BF3D
:100510007FEA655C29D094EA050F08BF90EA020FD4
:1005200005D054EA000C04BF1946104630BD91EACC
:10053000030F1EBF0021002030BD5FEA545C05D1CF
:100540004000494128BF41F0004130BD14F580040E
:100550003CBF01F5801130BD01F0004545F0FE4182
:1005600041F470014FF0000030BD7FEA645C1ABFB7
:10057000194610467FEA655C1CBF0B46024650EAEE
:10058000013406BF52EA033591EA030F41F400211A
:1005900030BD00BF90F0000F04BF0021704730B5A0
:1005A0004FF4806404F132044FF000054FF0000175
:1005B00050E700BF90F0000F04BF0021704730B536
:1005C0004FF4806404F1320410F0004548BF40420B
:1005D0004FF000013EE700BF42004FEAE2014FEA60
:1005E00031014FEA02701FBF12F07F4393F07F4F3B
:1005F00081F06051704732F07F4208BF704793F03E
:100600007F4F04BF41F40021704730B54FF4607450
:1006100001F0004521F000411CE700BF50EA010253
:1006200008BF704730B54FF000050AE050EA0102FC
:1006300008BF704730B511F0004502D5404261EB6C
:1006400041014FF4806404F132045FEA915C3FF4AD
:10065000D8AE4FF003025FEADC0C18BF03325FEA4A
:10066000DC0C18BF033202EBDC02C2F1200300FAFB
:1006700003FC20FA02F001FA03FE40EA0E0021FA20
:1006800002F11444BDE600BF4FF0FF3C06E000BF9E
:100690004FF0010C02E000BF4FF0010C4DF804CD0B
:1006A0004FEA410C7FEA6C5C4FEA430C18BF7FEACB
:1006B0006C5C1BD001B050EA410C0CBF52EA430CF9
:1006C00091EA030F02BF90EA020F0020704710F179
:1006D000000F91EA030F58BF994208BF90422CBF08
:1006E000D8176FEAE37040F0010070474FEA410C01
:1006F0007FEA6C5C02D150EA013C07D14FEA430C1F
:100700007FEA6C5CD6D152EA033CD3D05DF8040B8F
:10071000704700BF8446104662468C4619466346C1
:1007200000E000BF01B5FFF7B7FF002848BF10F198
:10073000000F01BD4DF808EDFFF7F4FF0CBF0120DD
:1007400000205DF808FB00BF4DF808EDFFF7EAFF59
:1007500034BF012000205DF808FB00BF4DF808ED14
:10076000FFF7E0FF94BF012000205DF808FB00BF09
:100770004DF808EDFFF7CEFF94BF012000205DF893
:1007800008FB00BF4DF808EDFFF7C4FF34BF0120A0
:1007900000205DF808FB00BF4FEA410212F500128D
:1007A00015D211D56FF47873B3EB625212D94FEAB8
:1007B000C12343F0004343EA505311F0004F23FAA2
:1007C00002F018BF404270474FF00000704750EAF7
:1007D000013005D111F0004008BF6FF000407047B4
:1007E0004FF00000704700BF53B94AB9002908BF55
:1007F00000281CBF4FF0FF314FF0FF3000F074B9FC
:10080000ADF1080C6DE904CE00F006F8DDF804E067
:10081000DDE9022304B070472DE9F047089D044646
:100820008E46002B4DD18A42944669D9B2FA82F2A3
:1008300052B101FA02F3C2F1200120FA01F10CFADF
:1008400002FC41EA030E94404FEA1C48210CBEFB17
:10085000F8F61FFA8CF708FB16E341EA034306FBA0
:1008600007F199420AD91CEB030306F1FF3080F02F
:100870001F81994240F21C81023E63445B1AA4B27C
:10088000B3FBF8F008FB103344EA034400FB07F71E
:10089000A7420AD91CEB040400F1FF3380F00A815F
:1008A000A74240F207816444023840EA0640E41B54
:1008B00000261DB1D4400023C5E900433146BDE800
:1008C000F0878B4209D9002D00F0EF800026C5E9A2
:1008D000000130463146BDE8F087B3FA83F6002EBA
:1008E0004AD18B4202D3824200F2F980841A61EB32
:1008F000030301209E46002DE0D0C5E9004EDDE750
:1009000002B9FFDEB2FA82F2002A40F09280A1EB37
:100910000C014FEA1C471FFA8CFE0126200CB1FB8C
:10092000F7F307FB131140EA01410EFB03F0884285
:1009300008D91CEB010103F1FF3802D2884200F212
:10094000CB804346091AA4B2B1FBF7F007FB1011A4
:1009500044EA01440EFB00FEA64508D91CEB040442
:1009600000F1FF3102D2A64500F2BB800846A4EB9D
:100970000E0440EA03409CE7C6F12007B34022FA88
:1009800007FC4CEA030C20FA07F401FA06F31C43B7
:10099000F9404FEA1C4900FA06F3B1FBF9F8200CC4
:1009A0001FFA8CFE09FB181140EA014108FB0EF00A
:1009B000884202FA06F20BD91CEB010108F1FF3A5A
:1009C00080F08880884240F28580A8F10208614466
:1009D000091AA4B2B1FBF9F009FB101144EA014174
:1009E00000FB0EFE8E4508D91CEB010100F1FF341F
:1009F0006CD28E456AD90238614440EA0840A0FBB7
:100A00000294A1EB0E01A142C846A64656D353D08C
:100A10005DB1B3EB080261EB0E0101FA07F722FAB0
:100A200006F3F1401F43C5E9007100263146BDE8D9
:100A3000F087C2F12003D8400CFA02FC21FA03F33C
:100A4000914001434FEA1C471FFA8CFEB3FBF7F0BD
:100A500007FB10360B0C43EA064300FB0EF69E42E2
:100A600004FA02F408D91CEB030300F1FF382FD27B
:100A70009E422DD9023863449B1B89B2B3FBF7F623
:100A800007FB163341EA034106FB0EF38B4208D9FC
:100A90001CEB010106F1FF3816D28B4214D9023E3D
:100AA0006144C91A46EA004638E72E46284605E75B
:100AB0000646E3E61846F8E64B45A9D2B9EB02082C
:100AC00064EB0C0E0138A3E74646EAE7204694E7BC
:100AD0004046D1E7D0467BE7023B614432E73046EF
:100AE00009E76444023842E7704700BF034613F841
:100AF000012B002AFBD1181A0138704700000000B2
:100B000001F0FF01102A2BDB10F0070F08D010F8BE
:100B1000013B013A8B422DD010F0070F42B3F6D1C2
:100B2000F0B441EA012141EA014122F007047FF0DB
:100B300000070023F0E80256083C85EA010586EA32
:100B4000010685FA47F5A3FA87F586FA47F6A5FA6E
:100B500087F68EB9EED1F0BC01F0FF0102F007027A
:100B600032B110F8013B013A83EA010313B1F8D125
:100B70000020704701387047002D06BF3546033806
:100B8000073815F0010F07D1013015F4807F02BF3F
:100B9000013015F4C03F0130F0BC0138704700BF90
:100BA00070B54FF0FF0C4CF4E06C1CEA11541DBF03
:100BB0001CEA135594EA0C0F95EA0C0F00F0DEF8CE
:100BC0002C4481EA030621EA4C5123EA4C5350EAB3
:100BD000013518BF52EA033541F4801143F4801304
:100BE00038D0A0FB02CE4FF00005E1FB02E506F095
:100BF0000042E0FB03E54FF00006E1FB03569CF0EA
:100C0000000F18BF4EF0010EA4F1FF04B6F5007FEF
:100C100064F5407404D25FEA4E0E6D4146EB060661
:100C200042EAC62141EA55514FEAC52040EA5E50EA
:100C30004FEACE2EB4F1FD0C88BFBCF5E06F1ED894
:100C4000BEF1004F08BF5FEA500E50F1000041EBCB
:100C5000045170BD06F0004646EA010140EA020078
:100C600081EA0301B4EB5C04C2BFD4EB0C0541EA9A
:100C7000045170BD41F480114FF0000E013C00F3AF
:100C8000AB8014F1360FDEBF002001F0004170BDD3
:100C9000C4F10004203C35DA0C341BDC04F11404EC
:100CA000C4F1200500FA05F320FA04F001FA05F278
:100CB00040EA020001F0004221F0004110EBD37045
:100CC00021FA04F642EB06015EEA430E08BF20EA71
:100CD000D37070BDC4F10C04C4F1200500FA04F314
:100CE00020FA05F001FA04F240EA020001F00041A6
:100CF00010EBD37041F100015EEA430E08BF20EA19
:100D0000D37070BDC4F1200500FA05F24EEA020E60
:100D100020FA04F301FA05F243EA020321FA04F08F
:100D200001F0004121FA04F220EA020000EBD37046
:100D30005EEA430E08BF20EAD37070BD94F0000F46
:100D40000FD101F00046400041EB010111F4801F7A
:100D500008BF013CF7D041EA060195F0000F18BF2B
:100D6000704703F00046520043EB030313F4801F67
:100D700008BF013DF7D043EA0603704794EA0C0F21
:100D80000CEA135518BF95EA0C0F0CD050EA410637
:100D900018BF52EA4306D1D181EA030101F00041B4
:100DA0004FF0000070BD50EA410606BF10461946DC
:100DB00052EA430619D094EA0C0F02D150EA0136E8
:100DC00013D195EA0C0F05D152EA03361CBF104629
:100DD00019460AD181EA030101F0004141F0FE41C8
:100DE00041F470014FF0000070BD41F0FE4141F44C
:100DF000780170BD70B54FF0FF0C4CF4E06C1CEA4C
:100E000011541DBF1CEA135594EA0C0F95EA0C0F00
:100E100000F0A7F8A4EB050481EA030E52EA0335BB
:100E20004FEA013100F088804FEA03334FF08055DC
:100E300045EA131343EA12634FEA022245EA111509
:100E400045EA10654FEA00260EF000419D4208BFBA
:100E5000964244F1FD0404F5407402D25B084FEA67
:100E60003202B61A65EB03055B084FEA32024FF413
:100E700080104FF4002CB6EB020E75EB030E22BF70
:100E8000B61A754640EA0C005B084FEA3202B6EB30
:100E9000020E75EB030E22BFB61A754640EA5C00DF
:100EA0005B084FEA3202B6EB020E75EB030E22BF6F
:100EB000B61A754640EA9C005B084FEA3202B6EB70
:100EC000020E75EB030E22BFB61A754640EADC002F
:100ED00055EA060E18D04FEA051545EA16754FEA91
:100EE00006164FEAC30343EA52734FEAC2025FEAAF
:100EF0001C1CC0D111F4801F0BD141EA00014FF03E
:100F000000004FF0004CB6E711F4801F04BF01430E
:100F10000020B4F1FD0C88BFBCF5E06F3FF6AFAE2A
:100F2000B5EB030C04BFB6EB020C5FEA500C50F1BA
:100F3000000041EB045170BD0EF0004E4EEA11313D
:100F400014EB5C04C2BFD4EB0C0541EA045170BD44
:100F500041F480114FF0000E013C90E645EA060E88
:100F60008DE60CEA135594EA0C0F08BF95EA0C0FB6
:100F70003FF43BAF94EA0C0F0AD150EA01347FF4FE
:100F800034AF95EA0C0F7FF425AF104619462CE7D5
:100F900095EA0C0F06D152EA03353FF4FDAE104638
:100FA000194622E750EA410618BF52EA43067FF489
:100FB000C5AE50EA41047FF40DAF52EA43057FF419
:100FC000EBAE12E74FEA410C7FEA6C5C02D150EACB
:100FD000013C0AD14FEA430C7FEA6C5C02D152EA31
:100FE000033C02D14FF0000070474FF00100704702
:100FF00008B5012001F0D0FEFBE700BF054C08B5A5
:101000002046802104F008F941F2883001F0C4FE46
:10101000F6E700BF001802580B4C0C4E0C4D08B5FB
:101020002146304603F080FF2168284607F0C2FCC5
:1010300003F05AFA0146074807F0BCFC4FF47A70F7
:1010400001F0AAFEECE700BF140200241C020024F9
:1010500060C4000878C4000810B50C4A00210C4890
:1010600001F050FE0B4B04460B4A00210B481C605C
:1010700001F048FE0A4B04460A4A00210A481C6057
:1010800001F040FE094B186010BD00BFACC4000861
:10109000F10F00080C020024D0C40008FD0F000866
:1010A00010020024F4C400081910000818020024DB
:1010B00000B5002289B0124B06921248CDE90222F7
:1010C000CDE90422D3F8E01041F04001C3F8E0106C
:1010D0008021D3F8E03003F040030193019B04F03A
:1010E00097F88022012302A90648CDE902230022B5
:1010F0000023CDE9042303F05DFF09B05DF804FB94
:10110000004402580018025810B59EB04C2200212D
:101110000BA806F0FDFE2022002102A806F0F8FE32
:10112000022004F083F8264A00230193936923F4F4
:1011300040439361936903F440430193019B936996
:101140009B04FCD5022301220C2140240B930BA805
:101150000E92189200221493199315920F94CDE9D0
:101160001A314FF44063CDE91C2304222223CDE938
:10117000162304F003F908B172B6FEE79FED0C7B6D
:101180000022082302A803218DED027B9FED0A7B3C
:10119000CDE904234FF4806240238DED067BCDE939
:1011A000082304F037FC08B172B6FEE71EB010BD8C
:1011B0003F0000000300000040000000400000006D
:1011C0000048025872B6FEE708B50A4800230A49EB
:1011D0004FF48032C0E90013C0E90233C0E90423B0
:1011E000C0E9063303F010FE00B908BDBDE80840B1
:1011F000FFF7E8BF1C020024006800580A4B026891
:101200009A4200D0704703F5EE3382B0D3F8F42051
:1012100042F08062C3F8F420D3F8F43003F0806326
:101220000193019B02B0704700680058244BD3F82B
:10123000E82042F0100270B5C3F8E8208AB0D3F875
:10124000E8300546694602A803F010030193019BAC
:1012500004F0D8FD079BCBB904F044FD03461948C0
:10126000194CA0FB03231949002220469B0C216046
:1012700040F2E731A260013BC4E90312636005F06C
:10128000FFFD064630B130460AB070BD04F02AFDBD
:101290004300E4E7204605F0B7FE06460028F2D1F9
:1012A000362003F0A3FD0F2D01D90126EBE73246CE
:1012B0002946362003F05CFD054B1D60E3E700BFC7
:1012C0000044025883DE1B4340020024001000400B
:1012D0001000002403F016BD014805F005BF00BF53
:1012E000400200240278A2F13003D9B2092905D9BD
:1012F000A2F14103052B2FD8A2F1370342781B013D
:10130000A2F130015FFA81FCBCF1090F22D9A2F1F0
:101310004101052927D8373A134482781B01A2F1ED
:1013200030015FFA81FCBCF1090F26D80B44C2786A
:101330001B01A2F13000C1B209291CD9A2F141015F
:10134000052916D9A2F16101052910D8A2F157008B
:10135000184470470B44E0E7A2F16103052B06D85F
:10136000A2F15703CAE7A2F16101052913D90020B0
:101370007047A2F1370018447047A2F141010529D6
:1013800002D8373A1344D2E7A2F161010529EED819
:10139000573A1344CBE7573A1344BEE72DE9F043DD
:1013A0000B7883B00D46222B40F09D804B7806468B
:1013B0004C1C222B00F0A080002B00F09D80A44646
:1013C00000225C2B964602F101020CBF0CF1020CCC
:1013D0000CF1010C9CF800300BB1222BF1D10EF175
:1013E0000200654B1B6898470746002800F08F8075
:1013F0006B7802460BB3222B1FD040F2FF38DFF888
:10140000809106E0013402F8013B2378222B14D0AE
:101410009BB15C2BF6D16578611CA5F16203132B9F
:1014200019D8DFE803F05B181818561818181818A0
:101430001818511818184C18471D002313702378DA
:10144000222B4FF0040308BF0134C6E903372046BE
:1014500003B0BDE8F08302F8015BA3784C1CD5E72C
:10146000A01C0192FFF73EFFA0F55C430546611DFD
:101470004345019A3ED9B0FA80F35B09002839D080
:10148000A0F55840B0F5806F38D2A3795C2BE5D138
:10149000E0797528E2D104F108000192FFF722FFFC
:1014A000A0F55C4304F10B01019AB3F5806F51D3B1
:1014B000237BD3E7092302F8013BA378CEE70D2372
:1014C00002F8013BA378C9E70A2302F8013BA3789D
:1014D000C4E70C2302F8013BA378BFE7082302F816
:1014E000013BA378BAE70024244B2046196003B0DF
:1014F000BDE8F083A379B1E7012072E77F2D08D81A
:10150000013210461D4300F8015C4B78A6E7044603
:101510009DE7B5F5006F0DD2901CC0234FF0010C74
:1015200005F03F040138AD0964F07F04047000EB5E
:101530000C02E7E7B5F5803F13D20332E0234FF00A
:10154000020C05F03F00AD0960F07F0002F8010CCD
:10155000501EE5E709EA8525C0F30900284300F598
:10156000803505F03F030332AD094FF0030C63F003
:101570007F031370F023E4E7040000248C020024AE
:1015800000FC0F0070B5044668B3066816B3D0E9D6
:10159000012319448A421CDA0139144B41EA6101E2
:1015A0001B6841EAA10141EA211141EA212141EAF6
:1015B00021414D1C28469847064668B1D4E90012DF
:1015C00006F098FC0A4B20681B689847A368C4E99A
:1015D00000651E44304670BD054B20681B68984767
:1015E000C4E90066F6E70646F4E700BF04000024FD
:1015F00000000024000000002DE9F843D0E9066750
:1016000005460C460022002330463946FFF792F883
:1016100068B1002C7BD020460221FFF7B3FF0446BF
:1016200014B1534B1B8823802046BDE8F8836869BA
:10163000FEF7C0FF32463B46FEF76EFE21F0004348
:10164000002219464B4BFFF789F8002840D1002CA7
:1016500063D020464021FFF795FF0446002CE3D0DD
:10166000B04627F0004947EC106B09F049FC3246C0
:101670003B4651EC100BFEF74FFE21F000430022D9
:1016800019463C4BFFF76AF840B13046494630A353
:10169000D3E90023FFF758F800284AD140464946CD
:1016A0002DA3D3E90023FFF74FF840B94046494640
:1016B0002BA3D3E90023FFF765F8002840D02E497B
:1016C000204632463B4607F07DFA2046BDE8F883C7
:1016D00025A3D3E9002330463946FFF73FF8002819
:1016E000B5D00022254B30463946FFF741F8002897
:1016F000ADD0C4B120461521FFF744FF0446002CAD
:1017000092D06A6920461E4907F05CFA8CE71D4BAF
:1017100002201B689847044682E71A4B40201B684A
:10172000984704469AE7174B15201B6898470446CC
:10173000E5E71549204632463B4607F043FA73E792
:101740001249204632463B4607F03CFA6CE700BFA0
:1017500044F3C2E4E4E9634C8DEDB5A0F7C6B03EB6
:101760000000000065CDCD410000C0FFFFFFDF415C
:1017700018C500080000B03C28C500080000E0C102
:101780001CC500080400002420C500082CC5000862
:101790002DE9F843077805460E46002F00F0BC807F
:1017A00084463B4600245C2B18BF222B03F1FF30FC
:1017B0001CF8013F0CBF012200221E2898BF42F0F6
:1017C00001021443002BEED1002C54D0A8461C4635
:1017D000DFF8509103E018F8017F02346FB1394609
:1017E000484607F00FFA0028F5D11F2F18F8017F9F
:1017F0008CBF01340634002FF1D1002E64D0304666
:10180000E11CFFF7BFFE0646002E46D022233446D9
:1018100004F8013B2B78002B51D001355C27DFF811
:1018200008914FF0740807E05C2B09D004F8013BE5
:1018300015F8013B002B42D0222B18BF1F2BF3D8E9
:10184000277015F8012C222A61D8072A2ED9A2F177
:1018500008031A2B2AD8DFE803F055514C294742D8
:1018600029292929292929292929292929292929E8
:10187000292929293D00ACEB0504E11C86B130463D
:10188000FFF780FE064646B133462227294603F875
:10189000017B184607F0C3F907533046BDE8F883CB
:1018A0001F4B08461B6898470646ECE7601C4946F4
:1018B00007F088F915F8013B0634002BBCD1222330
:1018C00030462380BDE8F883154BE01C1B68984721
:1018D000064699E72223023404F8013CA8E7722364
:1018E000023404F8013CA3E76623023404F8013C07
:1018F0009EE76E23023404F8013C99E784F80180E6
:10190000023495E76223023404F8013C90E75C2A34
:10191000CCD1627002348BE73C460321AEE700BFB6
:101920000400002430C5000838C5000800284FD046
:1019300010B553B190F80CC0BCF1060F6CD8DFE8BD
:101940000CF02E3A1D2917130E00037B062B63D8CB
:10195000DFE803F0525A3F474C0904000023BDE87A
:10196000104000F001BA0023BDE8104000F05EB85E
:1019700019460069BDE81040FFF70ABF1846052167
:10198000FFF700FE034608B3244A10681279186076
:101990001A711BE01946BDE81040FFF72DBE18462E
:1019A0000621FFF7EFFD034680B11D4A10689288BB
:1019B00018609A800AE018460521FFF7E3FD034608
:1019C00020B1184A1068127918601A71184610BDB3
:1019D0007047154B05201B68984703460028D3D154
:1019E000F4E70021BDE81040FFF706BE00210069C2
:1019F000BDE81040FFF7CCBE0B4B06201B68984794
:101A000003460028D1D1E1E7074B05201B68984722
:101A100003460028D5D1D9E70023D7E740C5000801
:101A200048C5000850C50008040000242DE9F04F07
:101A3000846883B01D46002C00F0948017468346CE
:101A40008A460022246816460132002CFAD1002D65
:101A500043D0AB68012128460093FFF793FD00288F
:101A600037D05B230370AB68DBF808600133AB60F1
:101A70002EB30AF1010A002F40F0BA802C2708E0AB
:101A8000FFF780FD28B30780AB6836680133AB6091
:101A9000AEB12B46002251463046FFF747FF2B6878
:101AA0003BB1D5F8089003EB0900FFF71FF800EBF6
:101AB0000903326802212846AB60002AE0D10221E6
:101AC0002846FFF75FFD20B15D230380009B2C6853
:101AD0001C44204603B0BDE8F08F9200DFF8D89197
:101AE0001046D9F800300092984701900028F0D0B5
:101AF0002946009A06F00CFADBF80850002D43D076
:101B0000019B0AF101044FF0050A043B9B46009338
:101B10000BE0FEF7EBFF3A1E2D6818BF01220232E0
:101B2000924482445046002D32D03A4621462846FF
:101B300000F0C6F84BF8040F0028EAD1009D0024FD
:101B4000DFF8789155F8040F10B1D9F800309847B4
:101B5000631CA6421C46F5D1D9F800300024019838
:101B60009847B6E7002B3DD003211846FFF70AFD42
:101B70000446002CADD04F4B20461A889B7822801B
:101B8000A37003B0BDE8F08F019B0520043B0093D8
:101B9000D9F80030984704460028CFD080465B2310
:101BA000009D28F8013B002F5DD1DFF810914FF028
:101BB0002C0A55F8041F08460091FEF797FF0246CD
:101BC0000099404608EB020B06F094F9B74207F182
:101BD0000107D84638D028F801ABD9F8003028687A
:101BE0009847E6E7344B03201B6898470446C0E754
:101BF000A34642F22C090FE0FFF7C4FC00283FF493
:101C000068AFA0F8009080F802B0AB683668023385
:101C1000AB60002E3FF453AF2B463A465146304658
:101C2000FFF784FE286868B1D5F808804044FEF7C5
:101C30005DFF08EB0003326803212846AB60002AF1
:101C4000DAD13CE70346F6E72868D9F80030984730
:101C5000D9F80030019898475D232046A8F8003055
:101C600003B0BDE8F08F0027DFF8509042F22C0B54
:101C700055F8041F08460091FEF738FF0246009908
:101C8000404608EB020A06F035F9BE4207F10107AB
:101C9000D0460AD04FF0000328F802BB8AF8023081
:101CA000D9F8003028689847E2E72868D9F800306A
:101CB0009847CDE758C50008040000240000002420
:101CC000002845D0037B10B5062B42D8DFE803F08F
:101CD00009162330353B04000023BDE8104000F016
:101CE00043B81D4B06201B689847034620B11B4A8A
:101CF0001068928818609A80184610BD164B05200F
:101D00001B68984703460028F6D0154A10681279D8
:101D100018601A71F0E7104B05201B6898470346BE
:101D20000028E9D00F4A1068127918601A71E3E7A9
:101D30000021BDE81040FFF75FBC00210069BDE84D
:101D40001040FFF725BD0023BDE81040FFF76EBE31
:101D500070470023D0E700BF0400002448C50008F6
:101D600050C5000840C500082DE9F04F87681446AB
:101D70009B462DED028B89B00191002F00F09580DC
:101D8000064600223F6815460132002FFAD1BBF10A
:101D9000000F00F0FC80DBF808300293002C00F00C
:101DA000AB8003215846FFF7EDFB002800F0D280FE
:101DB00040F67B228770019B0280DBF80820B56823
:101DC0005E1C0232CBF80820002D5DD002274FF0B8
:101DD00009094FF03A08002C40F0C4805946286A9F
:101DE000FFF7D6FCDBF8000028B1DBF808A0504470
:101DF000FEF77CFE5044CBF8080039465846FFF702
:101E0000C1FB002800F0A68080F800800CB180F8AB
:101E10000190DBF808302246314628463B44CBF897
:101E200008305B46FFF782FDDBF8000028B1DBF8E5
:101E300008A05044FEF75AFE5044B4F1000A2B6843
:101E4000CBF80800584618BF4FF0010A002B18BF06
:101E50000AF1010A0AF10101FFF794FB002879D089
:101E60002B6813B12C2300F8013B002C60D04FF0FD
:101E7000000343700A230370DBF808302D685344D5
:101E8000CBF80830002DA6D1019D5846A91CFFF7BC
:101E900079FB044600285DD0002D40F3F3812A46EB
:101EA00009212C4406F034F8EAE0C3B312BB032145
:101EB0005846FFF767FB8046B8F1000F4AD07B23F6
:101EC00088F80030002C5FD00A2308F1020488F85B
:101ED0000130019B012B05DD5A1E204609211444C7
:101EE00006F016F87D232380404609B0BDEC028B36
:101EF000BDE8F08F0431DBE702215846FFF742FBD3
:101F000040B37B224470019B0270DBF80820B56867
:101F10005E1C0132CBF80820A5B1012757E7BA4B68
:101F20001B68002A00F0A280081D98478046C3E77E
:101F30000470DBF808302D685344CBF80830002DCE
:101F40007FF44CAF02215846FFF71CFB04460028E3
:101F500040F095804FF00008404609B0BDEC028B80
:101F6000BDE8F08F31465846FFF70CFB0028F1D052
:101F7000002E03DD3246092105F0CAFFDBF80830E8
:101F80003344CBF8083029E708F10104AAE79700A9
:101F90009D4B38461A68904703900028DAD09A4B38
:101FA00038461A6890470490002800F057813A4656
:101FB0005946039805F0ACFF3A465946049805F097
:101FC000A7FF019BD6F808A05E1C002C50D003F19F
:101FD0000808BAF1000F5AD0019B002C4FF0000006
:101FE000059503F1030208BF0022049B5546911C8E
:101FF000039A043B0290043A8A469B460793914613
:1020000006920BE0FEF772FD0246D04438461746B2
:10201000FEF76CFD2D68B8448044ADB10021286AFC
:10202000FFF7B6FB07464BF8040F22463146284619
:10203000FFF746FE49F8040F0FB10028E2D1012353
:102040002D680293002DE9D1029B059D002B40F0E5
:10205000E5806D4B40461B6898478046002800F09D
:10206000DD807B230370E4B9471C1FE003205CE79D
:10207000BAF1000F00F0FA804FF00708ACE7029DBC
:102080007D222280DBF8003003EB05082CE75E4B55
:1020900040461B6898478046002800F0B9807B23A3
:1020A00003700A2308F1020788F801304FF0000995
:1020B00026F00302CDF81C8008EE106ADFF84CB160
:1020C00087F80090DDE903A3CDE905229846ACBB73
:1020D000D8F8001008460291FEF708FD064602995E
:1020E0003846324605F006FF4FF03A03BB553744F9
:1020F000DAF800100137384606F091FDDAF80000F2
:10210000FEF7F4FC4D4507EB00037BD04FF02C02AB
:102110003A545F1C4FF000033B70DBF8003058F876
:10212000040B9847DBF800305AF8040B98474D45EC
:1021300009F101034FD09946002CC9D018EE103A8E
:10214000002B21DD019B022B3B4640F28D80059A3E
:10215000D1194FF0093243F8042B9942FBD1069A6A
:1021600018EE101A8A4207EB02030AD01146019EAC
:102170000922481C8E421A7003DD86425A7000DD27
:102180009A7018EE103A1F44D8F8001008460291D1
:10219000FEF7ACFC024602993846029205F0AAFE10
:1021A000029A40F63A11BB18B952DAF800109E1C98
:1021B000304606F034FDDAF80000FEF797FC4D4596
:1021C00006EB000703D04FF02C03013733540A23EA
:1021D00007F8013B9EE70498DBF80030DDF81C802F
:1021E0009847DBF800300398984744B1019B002BD7
:1021F00005DD38461A4609211F4405F089FE7D2376
:102200003B8071E61F4685E704000024000000249F
:10221000049B043B0793039B043B06930024DFF8D5
:1022200068B0DDE9067656F8040F10B1DBF800302F
:10223000984757F8040F10B1DBF800309847631C3B
:10224000A5421C46EFD104984FF00008DBF800309F
:102250009847DBF800300398984745E60A4AD84685
:102260000398136898473FE6002180E7074B072053
:102270001B68984780460028CAD07B23074607F88A
:10228000013B13E70025FBE60000002404000024C6
:102290002DE9F04F2DED028B85B0002947D00C467B
:1022A000054604227849204606F0C1FC002834D0B7
:1022B00005227649204606F0BAFC28B30422744968
:1022C000204606F0B4FC002839D02378222B00F0F9
:1022D000C680A3F13002092A3CD9A3F12D02B2FA3B
:1022E00082F25209002A35D15B2B00F0A0817B2BB2
:1022F00000F0D4804FF00008664B40461C6005B0EB
:10230000BDEC028BBDE8F08F04F10508E8604046A3
:1023100005B0BDEC028BBDE8F08F04F10408022388
:102320004046EB6005B0BDEC028BBDE8F08F4FF08E
:102330000008404605B0BDEC028BBDE8F08F04F10B
:10234000040801234046EB606B6105B0BDEC028BD5
:10235000BDE8F08F2D2B00F054819FED457BB0EE52
:10236000478AF0EE678A302B01D163780134A3F1FC
:102370003102082A00F242812378002600274FF01C
:102380000008A3F1300ADFF8109130463946424682
:102390004B46FEF705FC02460B465046CDE90023AE
:1023A000FEF708F9DDE90023FDF7B8FF14F8013F57
:1023B00006460F46A3F1300A5FFA8AF2092AE4D9E9
:1023C0002E2B00F027819FED2C7B8DED007B03F001
:1023D000DF03452B40F08E8163782B2B00F09A8130
:1023E0002D2B00F09C8104F101080120303BDAB272
:1023F000092A00F2E781002202EB820203EB42028B
:1024000018F8013F303BD9B20929F5D902FB00F099
:10241000FEF7D0F8DDE90023FDF780FF18A3D3E92C
:102420000023FEF7BDFB41EC100B08F0EDFD30463C
:10243000394653EC102BFEF7B3FB06460F463246E7
:102440003B4651EC180BFEF7ABFB0B460246C5E9C9
:102450000623FEF7A1F903236861EB6057E72146E5
:10246000284605B0BDEC028BBDE8F04FFEF796BFE5
:10247000000000000000F03F00000000000000002D
:102480001655B5BBB16B024040C5000848C50008F1
:1024900050C500088C02002400002440062304F1EB
:1024A0000108EB6063785A1E1F2A04D818F8013F10
:1024B0005A1E1F2AFAD97D2B00F0B680BA4E28206A
:1024C000336898470446002800F0838128220021C1
:1024D00005F01EFDAC6098F80030013B1F2B04D8BE
:1024E00018F8013F013B1F2BFAD941462046FEF761
:1024F00055FF00283FF41BAF0378013B1F2B04D886
:1025000010F8013F013B1F2BFAD9226900232262F8
:10251000236102783A2A40F008814378411C013B4C
:102520001F2B04D811F8013F013B1F2BFAD920467D
:10253000FFF7AEFE074600283FF4F9AE03785A1EB7
:102540001F2A04D817F8013F5A1E1F2AFAD92C2B2C
:102550004CD1002533682820A0469847044600281F
:102560003FF4E5AE0021282205F0D2FCC8F8004077
:10257000C4F80480791C7B78013B1F2B04D811F828
:10258000013F013B1F2BFAD92046FEF707FF002829
:102590003FF4CDAE0378013B1F2B04D810F8013F68
:1025A000013B1F2BFAD923692561236203783A2B5B
:1025B00040F013814378411C013B1F2B04D811F8D4
:1025C000013F013B1F2BFAD92046FFF761FE07466A
:1025D00000283FF4ACAE03785A1E1F2A04D817F81F
:1025E000013F5A1E1F2AFAD92C2BB3D07D2B00F0A5
:1025F000F9806E4B4FF000081F6088E60026002728
:10260000DEE69FED657B63780134B0EE478AF0EE3D
:10261000678AA8E66378A3F1300A5FFA8AF3092B88
:1026200040F28780A0460AE708F101086FE605231B
:1026300004F10108EB6063785A1E1F2A04D818F8C9
:10264000013F5A1E1F2AFAD95D2BEDD0564E282085
:10265000336898470746002800F0BB8028220021F5
:1026600005F056FCAF6098F80030013B1F2B04D8F2
:1026700018F8013F013B1F2BFAD941463846FFF7B6
:1026800007FE044600283FF452AE03785A1E1F2A64
:1026900004D814F8013F5A1E1F2AFAD92C2B40F0F7
:1026A0008B80336828203D469847074600283FF432
:1026B0003EAE0021282205F02BFC2F607D60611CBE
:1026C0006378013B1F2B04D811F8013F013B1F2BFE
:1026D000FAD93846FFF7DCFD044600283FF427AE60
:1026E00003785A1E1F2AD9D814F8013F5A1E1F2AF0
:1026F000FAD9D3E79DED001B9FED290B08F0D4FC20
:1027000030463946A04653EC102BFEF749FA0646F0
:102710000F4694E604F10208A378012066E604F16E
:102720000208A3784FF0FF3060E6204A9846106018
:10273000EDE5013403954FF00008DFF87890A346EB
:10274000002500243046394642464B46FEF728FA1B
:1027500002460B465046CDE90023FDF72BFFDDE98D
:102760000023FDF7DBFD0022114B06460F462046F5
:102770002946FDF7D1FD1BF8013F04460D46A3F1A4
:10278000300A5FFA8AF2092ADCD9CDE90045039DB7
:102790005C461CE6AFF30080000000000000F0BFC4
:1027A0000000000000002440040000248C020024EB
:1027B0000000F03F000024405D2B7FF49BAD04F14E
:1027C0000108A4E59DED001B9FED090B08F06CFCD2
:1027D0002DE600239846AB6099E5074B4FF00008C3
:1027E000186094E507F1010891E500BFAFF30080A0
:1027F00000000000000024408C020024014B1868F7
:10280000704700BF8C020024F8B170B504460F4E2B
:1028100025462468EB68D9050BD4A86820B1FFF7DA
:10282000F3FFEB68DA0504D4286910B133689847E0
:10283000EB689B0503D4286A08B13368984733686E
:1028400028469847002CE3D170BD70470000002453
:1028500038B5144B044628201B6898470546C0B17C
:102860002822002105F054FB0F4B00221A6044B1CE
:102870002378013B1F2B04D814F8013F013B1F2B89
:10288000FAD921462846FFF703FD034620B1284622
:1028900038BD054B1860FAE728461D46FFF7B4FF20
:1028A000F5E700BF040000248C020024002849D072
:1028B000037B10B5062B46D8DFE803F00B18253252
:1028C000373D0400002301221946BDE81040FFF700
:1028D0004BBA1E4B06201B689847034620B11C4A82
:1028E0001068928818609A80184610BD174B052012
:1028F0001B68984703460028F6D0164A10681279DC
:1029000018601A71F0E7114B05201B6898470346C1
:102910000028E9D0104A1068127918601A71E3E7AC
:102920000021BDE81040FEF767BE00210069BDE848
:102930001040FEF72DBF002301221946BDE81040CC
:10294000FFF774B870470023CEE700BF04000024EF
:1029500048C5000850C5000840C50008806850B34D
:10296000F0B5154F036A03B3D9B103F1FF3E4E1E14
:1029700000E0CBB11EF8013F16F801CFFA5C1D460E
:10298000644602F00302012A17F80C2002F0030249
:1029900008BF03F12005012A08BF0CF12004A5425D
:1029A000E7D000680028DDD1F0BD0029FCD0006828
:1029B0000028D7D1F8E7704739C600080B4B002232
:1029C0000F216FF0010010B4D3F8F44083B044F04D
:1029D0000204C3F8F440D3F8F43003F00203019387
:1029E000019B03B05DF8044B02F0C2B900440258E9
:1029F0000120704708B505F043FA162203464FF050
:102A0000FF301A6008BD00BF08B505F039FA16237B
:102A10000360FEE770B5161E07DD0C468D19AFF397
:102A2000008004F8010BA542F9D1304670BD00BF0B
:102A300070B5161E07DD0C468D1914F8010B00F059
:102A4000D1F8AC42F9D1304670BD00BF4FF0FF3035
:102A5000704700BF4FF4005300204B60704700BF29
:102A6000012070470020704738B50D4C03460D49D2
:102A70000D4D2268491B2AB113448B4208D81046D9
:102A8000236038BD09480246206013448B42F6D9C2
:102A900005F0F6F90C234FF0FF320360104638BD05
:102AA000900200240000052400040000E8540024E3
:102AB00010B51F4800231F4C4FF4E1310C228360F6
:102AC000C0E90041C0E90333C0E90523C0E9073389
:102AD000C0E9093305F050F870B90021144805F039
:102AE0009DF888B90021124805F0DAF8A0B910481D
:102AF00005F076F8B8B910BDFEF764FB00210C486C
:102B000005F08CF80028EDD0FEF75CFB00210848AA
:102B100005F0C6F80028EAD0FEF754FB044805F09B
:102B20005FF80028E7D0BDE81040FEF74BBB00BFC0
:102B3000940200240010014010B5B6B000210446F4
:102B4000B82208A80691CDE90211CDE9041105F0DB
:102B5000DFF9214B22689A4201D036B010BD012224
:102B6000002308A8CDE9082303F06CFA40BB1B4BF7
:102B7000072402A91A48D3F8F02042F01002C3F843
:102B8000F020D3F8F02002F010020092009AD3F85F
:102B9000E02042F00102C3F8E020D3F8E0300694D0
:102BA00003F001039FED087B0193019B8DED027BF8
:102BB0009FED077B8DED047B02F0FCF936B010BD74
:102BC000FEF700FBD3E700BF000600000200000094
:102BD0000000000000000000001001400044025806
:102BE0000000025800B583B04FF0FF33012201907E
:102BF00001A9034804F028FB019803B05DF804FB29
:102C00009402002410B51D4C88B00FCCEC46ACE803
:102C10000F0094E80F00ACE807006846ACF80030FD
:102C2000FFF716FE0446B0B1FFF740FE05F048FF7F
:102C300013492046FFF792FEC368042B19D01149AF
:102C40002046FFF78BFEC368032B09D02046FFF711
:102C5000DBFD08B010BDFFF7D1FD05F031FFE7E760
:102C60004169094805F0A6FE2046FFF7CDFD08B0F2
:102C700010BD0169054805F09DFEE0E77CC5000830
:102C80005CC5000870C5000874C5000864C500086C
:102C900008B54FF0E0231B6901F0B8FD012800D111
:102CA00008BDBDE8084000F0C5B900BFEFF30583DB
:102CB0002BB9064B186828B901221A6070476FF0CB
:102CC000050070474FF0FF30704700BFB009002487
:102CD00010B5EFF3058474B9084B1A68012A07D1BF
:102CE00007490222CC771A6001F068FB204610BD2C
:102CF0004FF0FF3010BD6FF0050010BDB00900248B
:102D000000ED00E0F0B5002587B014460595EFF31F
:102D1000058252BB48B3ECB1A66956BB182663685E
:102D2000DB0722D4636943B34FEA930CA568276895
:102D300045B3E268B2F5916F17D32469ABB1A4B182
:102D40000B46624639460096CDE9014501F070FA1E
:102D500005460BE0802218260B46214605AC00965E
:102D6000019401F0A1FA01280AD00025284607B0F5
:102D7000F0BD721E372AD2D9F8E74FF0800CD5E7A4
:102D8000059DF3E7E368002BF0D12369002BEDD11B
:102D90001FFA8CF23C46DFE710B5EFF305842CB93F
:102DA00000B910BD01F0B4FA204610BD6FF0050067
:102DB00010BD00BF044B10B403608023034C0C60B3
:102DC0005DF8044B13607047280500242803002495
:102DD000054B10B403604FF48073044C0C605DF835
:102DE000044B1360704700BFB80D0024B4090024E1
:102DF00000F108034FF0FF31002281600260436060
:102E0000C0E90333704700BF00230361704700BF70
:102E10004368026810B49C6801324B608C609C6807
:102E2000616099605DF8044B08610260704700BF03
:102E300030B40D686B1C10D000F108031C465B68B1
:102E40001A68AA42FAD902684B60013299608C6014
:102E500061600861026030BC704704696368F2E732
:102E6000036910B45C68D0E9011284425DF8044B38
:102E70008A6051604FF0000108BF5A601A68016112
:102E8000013A1A601868704708480068006880F3C3
:102E900008884FF0000080F3148862B661B6BFF373
:102EA0004F8FBFF36F8F00DF00BF000008ED00E021
:102EB000DFF80C00016841F4700101607047000008
:102EC00088ED00E00E4B82B000221B6801920133B6
:102ED00008D04FF0500383F31188BFF36F8FBFF317
:102EE0004F8FFEE74FF0500383F31188BFF36F8FCE
:102EF000BFF34F8F019B002BFCD002B0704700BF87
:102F000008000024034621F00101094810B44FF0E5
:102F1000807443F80C0C43F8202CA3F1440043E9DF
:102F200002146FF002015DF8044B43F8241C704753
:102F3000C52E000800000000000000000000000096
:102F4000074B19680868B0E8F04F80F30988BFF3B1
:102F50006F8F4FF0000080F311887047AFF300804F
:102F6000A84E00244FF0500383F31188BFF36F8FF6
:102F7000BFF34F8F0B4A13680133012B136000D04E
:102F800070474FF0E023D3F8043DDBB2002BF7D0BD
:102F90004FF0500383F31188BFF36F8FBFF34F8F50
:102FA000FEE700BF08000024084A136843B94FF049
:102FB000500383F31188BFF36F8FBFF34F8FFEE78A
:102FC000013B13600BB983F311887047080000249C
:102FD000EFF30980BFF36F8F154B1A681EF0100FC7
:102FE00008BF20ED108A20E9F04F10602DE909009C
:102FF0004FF0500080F31188BFF34F8FBFF36F8FF6
:1030000001F088FA4FF0000080F3118809BC1968BC
:103010000868B0E8F04F1EF0100F08BFB0EC108A3F
:1030200080F30988BFF36F8F704700BFAFF3008054
:10303000A84E002408B54FF0500383F31188BFF366
:103040006F8FBFF34F8F01F055FA28B14FF0E02397
:103050004FF08052C3F8042D002383F3118808BD7C
:103060004FF0E0220021064B1161064891610721D3
:103070001B68A0FB03039B09013B5361116170476F
:1030800014000024D34D62104FF0E023484AD3F8D7
:10309000001D914241D0D3F8002D464B9A4233D0C7
:1030A000454B4FF0FF0C4548454970B51A7884B040
:1030B000D2B20292072283F800C01B780260DBB212
:1030C0008DF807309DF807309DF8072003F0500376
:1030D00012060B700FD506229DF807301146013AF3
:1030E0005B00DBB28DF807309DF807301B06F3D488
:1030F00003291BD001604FF0500383F31188BFF305
:103100006F8FBFF34F8FFEE74FF0500383F31188AB
:10311000BFF36F8FBFF34F8FFEE74FF0500383F382
:103120001188BFF36F8FBFF34F8FFEE7029B4FF005
:10313000E0244FF44071204ADBB2224E01600025AA
:103140001370D4F8203D43F47003C4F8203DD4F844
:10315000203D43F07043C4F8203DFFF781FF356008
:10316000FFF7A6FED4F8343F43F04043C4F8343FA1
:10317000FFF78AFE01F0CEF933680395013308D0DA
:103180004FF0500383F31188BFF36F8FBFF34F8F5E
:10319000FEE74FF0500383F31188BFF36F8FBFF347
:1031A0004F8F039B002BFCD0002004B070BD00BFEC
:1031B00071C20F4170C20F4100E400E044120024CC
:1031C00040120024080000242DE9F041064601F0D9
:1031D00073F9544B1D68002D6FD0534B1F683E424E
:1031E0002ED16EB306F10804760702D024F007044E
:1031F00008342CB3DFF844C1DCF80060A6421FD3CA
:103200004A48036803E01A6822B118461346596811
:10321000A142F8D3AB4213D098460A1B58F808EBEA
:10322000102AC0F800E029D9191948070FD04FF02B
:10323000500383F31188BFF36F8FBFF34F8FFEE707
:103240004FF0000801F040F94046BDE8F0814A60C7
:10325000364A5C60144612689142FBD8606804EB01
:10326000000E71454ED0D1F804E001EB0E00824211
:103270004FD00A608C4218BF216059682C4A761AD8
:1032800039431068CCF8006086424FF0000038BF28
:103290001660284AC3E9000113680133136001F086
:1032A00013F918F0070FCFD04FF0500383F31188B4
:1032B000BFF36F8FBFF34F8FFEE71F494F071AD140
:1032C0000A4601F570511046A1F108054FF000477C
:1032D000164925F007051D60AB1A154A1360174AF9
:1032E0001360114A17600022C1E90002C5E90022FB
:1032F000C0E9005373E7CA1D01F5705122F00702BF
:103300001046E1E7496800EB010E2146C4F804E0ED
:10331000ABE7AA42ADD05068126870440A604860BA
:10332000A8E700BF481200244C4E0024604E002441
:10333000544E0024584E00244C120024504E0024B9
:10334000D0B12B4A50F8043C126813420BD050F80D
:10335000081C91B14FF0500383F31188BFF36F8FB6
:10336000BFF34F8FFEE74FF0500383F31188BFF395
:103370006F8FBFF34F8FFEE7704723EA020330B52C
:1033800083B040F8043CA0F108041A4D019001F00C
:1033900093F801982A6850F8041C174B0A442A60D5
:1033A0001A461B689C42FBD8506802EB000C64452F
:1033B00019D0601883420CD02360A24218BF146059
:1033C0000E4A13680133136003B0BDE8304001F0CA
:1033D0007BB80B4800688342EED0D3E9003001444B
:1033E000C4E90031E9E7014414465160E1E700BF58
:1033F0004C4E0024504E0024604E00245C4E0024AD
:103400004812002470B51546026C0446866B2AB932
:10341000056865B301361046A66370BD7DB9406886
:1034200004F068FD6368226C1344A26893426360F1
:1034300019D32268013628466260A66370BDC06851
:1034400004F058FD226CE36851429B1A22689342B3
:10345000E36002D2A3680B44E360022D0DD0013675
:103460000020A66370BD01362846A66370BD806843
:10347000013601F0DBF9A560CEE7012E4FF0000028
:1034800038BF0126C8E700BF30B583B09DF81840AB
:1034900040B94FF0500383F31188BFF36F8FBFF330
:1034A0004F8FFEE71D4653B10AB389B94FF0500361
:1034B00083F31188BFF36F8FBFF34F8FFEE74FF099
:1034C000500383F31188BFF36F8FBFF34F8FFEE775
:1034D0006AB150230193019B502B13D04FF050033E
:1034E00083F31188BFF36F8FBFF34F8FFEE700297F
:1034F000EFD04FF0500383F31188BFF36F8FBFF30A
:103500004F8FFEE7002908BF2A46E86329642A6036
:10351000019A012285F84620FFF724FD296800233F
:103520006960AB63D5E90F2000FB02F2101A0A4470
:103530000144AA60FF2205F11000E96085F84420EB
:1035400085F84520FFF754FC05F12400FFF750FCF7
:10355000FFF72AFD284685F84C4003B030BD00BF78
:103560002DE9F04784B00192002800F003818846DD
:1035700004461F46002900F09780022F0BD1E36B11
:10358000012B08D04FF0500383F31188BFF36F8FE6
:10359000BFF34F8FFEE701F039F9002800F0F38008
:1035A000A7F10209002504F12406B9FA89F94FEAC6
:1035B0005919FFF7D7FCA26BE36B9A42C0F0F08079
:1035C000B9F1000F40F0EC80019B002B00F001816D
:1035D000002D00F0CB80FFF7E7FC00F06DFFFFF758
:1035E000C1FC94F84430FF2B02D1002384F844300E
:1035F00094F84530FF2B02D1002384F84530FFF7C3
:10360000D3FC01A902A801F0B3F8002840F0E5803E
:10361000FFF7A8FCA26BE36B9A4252D0FFF7C4FC01
:10362000FFF7A0FC94F8452055B2002D04DC11E012
:103630006A1ED3B255B26BB1636A304653B101F022
:1036400041F80028F4D001F0DBF86A1ED3B255B27D
:10365000002BF1D1FF2384F84530FFF7A5FCFFF7DD
:1036600081FC94F8442055B2002D14DD04F1100AB9
:1036700003E06A1ED3B255B26BB12369504653B111
:1036800001F020F80028F4D001F0BAF86A1ED3B295
:1036900055B2002BF1D1FF2384F84430FFF784FCAE
:1036A00000F012FF012584E7036C002B3FF465AFA7
:1036B0004FF0500383F31188BFF36F8FBFF34F8F29
:1036C000FEE704F1100AFFF76FFC0199504600F085
:1036D0006BFFFFF747FC94F845305DB2002D04DC2A
:1036E00011E06B1EDAB25DB26AB1636A304653B163
:1036F00000F0E8FF0028F4D001F082F86B1EDAB287
:103700005DB2002AF1D1FF2384F84530FFF74CFC6D
:10371000FFF728FC94F844305DB2002D04DC11E082
:103720006B1EDAB25DB26AB12369504653B100F044
:10373000C9FF0028F4D001F063F86B1EDAB25DB265
:10374000002AF1D1FF2384F84430FFF72DFC00F06C
:10375000BBFE0028A6D14FF0E0234FF08052C3F803
:10376000042DBFF34F8FBFF36F8F9BE702A800F0CC
:10377000F3FF30E74FF0500383F31188BFF36F8FEF
:10378000BFF34F8FFEE7019B002B3FF409AF4FF0D3
:10379000500383F31188BFF36F8FBFF34F8FFEE7A2
:1037A0003A4641462046FFF72DFE636A002B52D170
:1037B00048B14FF0E0234FF08052C3F8042DBFF31F
:1037C0004F8FBFF36F8FFFF7EFFB012004B0BDE811
:1037D000F087FFF7E9FB4846F8E7FFF7C3FB94F8EB
:1037E00045305DB2002D10DD04F1240603E06B1EB0
:1037F000DAB25DB24AB1636A304633B100F062FFBB
:103800000028F4D000F0FCFFF1E7FF2384F84530F6
:10381000FFF7CAFBFFF7A6FB94F844305DB2002D1A
:1038200010DD04F1100603E06B1EDAB25DB24AB19E
:103830002369304633B100F045FF0028F4D000F092
:10384000DFFFF1E7FF2384F84430FFF7ADFB00F022
:103850003BFE0020BAE704F1240000F033FF00280B
:10386000B1D0A6E72DE9F04385B00192002800F021
:103870005F810F460446002900F0948000F0C6FFE7
:10388000002800F09C80FFF76DFBA56B002D72D126
:10389000019B002B00F0F180A84604F1240602A849
:1038A00000F05AFFFFF780FB00F006FEFFF75AFB1F
:1038B00094F84430FF2B01D184F8448094F84530CB
:1038C000FF2B01D184F84580FFF76EFB01A902A808
:1038D00000F04EFF00287FD1FFF744FBA36B002BC5
:1038E00000F0D180FFF760FBFFF73CFB94F8453018
:1038F0005DB2002D04DC11E06B1EDAB25DB26AB17C
:10390000636A304653B100F0DDFE0028F4D000F0C9
:1039100077FF6B1EDAB25DB2002AF1D1FF2384F883
:103920004530FFF741FBFFF71DFB94F844305DB2D3
:10393000002D14DD04F1100903E06B1EDAB25DB254
:103940006AB12369484653B100F0BCFE0028F4D0A8
:1039500000F056FF6B1EDAB25DB2002AF1D1FF23F0
:1039600084F84430FFF720FB00F0AEFDFFF7FAFAD1
:10397000A56B002D7DD0226C52B1E168A368114483
:103980009942E16001D32168E160384604F0B2FA5F
:10399000013DA5632369002B40F0D380FFF704FBB2
:1039A00001206DE0036C002B3FF468AF4FF0500333
:1039B00083F31188BFF36F8FBFF34F8FFEE7019B37
:1039C000002B3FF460AF4FF0500383F31188BFF337
:1039D0006F8FBFF34F8FFEE7FFF7C4FA94F84530BF
:1039E0005DB2002D04DC11E06B1EDAB25DB26AB18B
:1039F000636A304653B100F065FE0028F4D000F051
:103A0000FFFE6B1EDAB25DB2002AF1D1FF2384F80B
:103A10004530FFF7C9FAFFF7A5FA94F844305DB2D4
:103A2000002D14DD04F1100903E06B1EDAB25DB263
:103A30006AB12369484653B100F044FE0028F4D02F
:103A400000F0DEFE6B1EDAB25DB2002AF1D1FF2378
:103A500084F84430FFF7A8FA00F036FDFFF782FA49
:103A6000A36B53B1FFF7A0FAFFF77CFAA56B002D0B
:103A700081D1019B002B7FF415AFFFF795FA002051
:103A800005B0BDE8F083FFF78FFA0199304600F0EA
:103A90008BFDFFF767FA94F845305DB2002D04DC2A
:103AA00011E06B1EDAB25DB26AB1636A304653B19F
:103AB00000F008FE0028F4D000F0A2FE6B1EDAB27F
:103AC0005DB2002AF1D1FF2384F84530FFF76CFA8C
:103AD000FFF748FA94F844305DB2002D14DD04F18C
:103AE000100903E06B1EDAB25DB26AB12369484681
:103AF00053B100F0E7FD0028F4D000F081FE6B1E0A
:103B0000DAB25DB2002AF1D1FF2384F84430FFF726
:103B10004BFA00F0D9FC0028A6D14FF0E0234FF07B
:103B20008052C3F8042DBFF34F8FBFF36F8F9BE715
:103B30004FF0500383F31188BFF36F8FBFF34F8FA4
:103B4000FEE704F1100000F0BDFD00283FF426AFB1
:103B50004FF0E0234FF08052C3F8042DBFF34F8F96
:103B6000BFF36F8F1AE700BF124B1A687AB19A68D9
:103B700062B11A6992B19A6992B11A6A92B19A6A5B
:103B800092B11A6B92B19A6B92B17047012203EB1A
:103B9000C20C43F83210CCF8040070470222F6E75A
:103BA0000322F4E70422F2E70522F0E70622EEE71B
:103BB0000722ECE7684E002470B505460E46144611
:103BC000FFF7D0F995F84430FF2B02D1002385F898
:103BD000443095F84530FF2B02D1002385F845305D
:103BE000FFF7E2F9AB6B002B43D0FFF7BBF995F879
:103BF00045305CB2002C14DD05F1240603E0631EA1
:103C0000DAB25CB26AB16B6A304653B100F05AFD69
:103C10000028F4D000F0F4FD631EDAB25CB2002A92
:103C2000F1D1FF2385F84530FFF7BEF9FFF79AF988
:103C300095F844305CB2002C14DD05F1100603E069
:103C4000631EDAB25CB26AB12B69304653B100F040
:103C500039FD0028F4D000F0D3FD631EDAB25CB267
:103C6000002AF1D1FF2385F84430BDE87040FFF70A
:103C70009BB92246314605F1240000F0D9FCB4E797
:103C80002DE9F8430546FFF76DF9344A344E1368C1
:103C9000013313603368002B32D0324C23683BB3BE
:103CA000E86A314F314A32491368013313606B645B
:103CB0000B68834200D2086000EB8000291D07EBEF
:103CC0008000FFF7A5F8FFF76FF9236873B132683A
:103CD000EB6AD26A9A4209D24FF0E0234FF0805249
:103CE000C3F8042DBFF34F8FBFF36F8FBDE8F88388
:103CF0003368E86ADB6A1C4F8342D3D83560D1E76A
:103D000035601368012B03D0E86A174F154CC9E7DB
:103D1000154F3C4607F58C6820461434FFF768F8C9
:103D2000A045F9D1DFF86090DFF8608048460D4C7F
:103D3000FFF75EF84046FFF75BF80E48FFF758F8CC
:103D40000D48FFF755F80D48FFF752F80C4BE86A9D
:103D5000C3F800900B4BC3F80080A3E71453002472
:103D6000A84E002470530024B44E00242053002495
:103D7000245300245C5300248853002474530024EB
:103D8000AC4E0024B04E0024285300243C530024A1
:103D90002DE9F0470A9C4FEA820906460D464A463D
:103DA000A521206B1F46DDF82480A9F1040904F049
:103DB000AFF8236B994429F00709002D00F09D808E
:103DC0002B7884F834302B78002B4DD06B7884F826
:103DD00035306B78002B47D0AB7884F83630AB7831
:103DE000002B41D0EB7884F83730EB78002B3BD0B8
:103DF0002B7984F838302B79002B35D06B7984F807
:103E000039306B79002B2FD0AB7984F83A30AB790D
:103E100053B3EB7984F83B30EB792BB32B7A84F8EE
:103E20003C302B7A03B36B7A84F83D306B7ADBB18C
:103E3000AB7A84F83E30AB7AB3B1EB7A84F83F309A
:103E4000EB7A8BB12B7B84F840302B7B63B16B7B9F
:103E500084F841306B7B3BB1AB7B84F84230AB7B69
:103E600013B1EB7B84F84330002384F84330089D82
:103E70004FF0000A201D372DC4F850A028BF372569
:103E8000E562E564C5F13805FEF7BEFF04F11800F0
:103E9000FEF7BAFF51464FF48562C4F880A404F1DE
:103EA0005800A5612461646284F884A404F030F8A9
:103EB00004F551733A463146E36504F56B73012608
:103EC0000027236604F21443484663660E4BC4E998
:103ED0004067C4F810310B2309A7D7E90067A4F89D
:103EE0001431C4E94267FFF70DF82060B8F1000F04
:103EF00001D0C8F80040BDE8F08784F83450B6E738
:103F00000E33CDAB34126DE6ECDE050080B5234DEB
:103F10004FF0E02A224F4FF08059224EDFF8888080
:103F20002B685BB3FFF71EF8FB68DC68201DFEF70B
:103F300097FF3368013B33602B68013B2B60FFF731
:103F400033F804F1580004F0D1FD94F8853463B1DE
:103F5000012B1ED0022BE3D04FF0500383F31188C6
:103F6000BFF36F8FBFF34F8FFEE7206BFFF7E8F9CA
:103F70002046FFF7E5F92B68002BD3D1D8F80030A5
:103F8000012BCDD9CAF8049DBFF34F8FBFF36F8FBC
:103F9000C6E72046FFF7D4F9C2E700BF1853002454
:103FA0008853002414530024B44E00244A4B2DE9B6
:103FB000F04F1E6883B001361E60002E40D0DFF83F
:103FC0002CB1DBF800309E4247D3444F3B681D685C
:103FD000002D77D00025DFF81891DFF818A1DFF861
:103FE000188122E00191FEF73BFFA36A04F118005B
:103FF000019913B1FEF734FF0199E36AD8F8002064
:1040000003EB8300934209EB800001D9C8F800302C
:10401000FEF7FEFEDAF800203B68E16AD26A1B6810
:10402000914228BF0125002B50D03B68DB68DC683B
:104030006368211D9E420846D4D2CBF8003011E0BF
:10404000264B1A6812680AB34FF0500383F31188A5
:10405000BFF36F8FBFF34F8FFEE70025DFF890901F
:10406000DFF890A0DAF800301D49DB6A03EB830328
:104070009B0059F803200B68022A28BF0125002B5A
:104080000CBF2846012003B0BDE8F08F154A186820
:1040900011681960144910600A6801320A601A68D0
:1040A000126832B9DFF844B04FF0FF33CBF800307C
:1040B00087E71B68DFF834B0DB68DB685B68CBF848
:1040C00000307EE7DFF82890DFF828A04FF0FF33BC
:1040D000CBF80030C6E700BF9C530024AC4E002450
:1040E000A0530024B04E0024545300245053002405
:1040F000B44E0024A84E0024245300242DE9F04F90
:10410000414D83B0FEF72EFF2B68013B2B602B68DF
:10411000002B61D13D4B1B68002B5DD03C4E3368BA
:10412000002B6ED03B4FDFF8FC90DFF8FC80DFF80F
:10413000FCA0F368DC6804F1040B04F11800FEF73E
:104140008FFE5846FEF78CFEE36A3A68594603EB49
:104150008300934209EB800000D93B60FEF758FED4
:10416000D8F80030E26ADB6A9A423DD30123CAF8EC
:1041700000303368002BDCD1274B1A681268002A04
:104180003AD01A68254BD268D26852681A60244E19
:10419000346894B1012706E0FFF708FF08B1CAF8B8
:1041A0000070013C08D02B68002BF5D03368013C2F
:1041B00003F101033360F6D13460DAF800305BB10B
:1041C0004FF0E0234FF08052C3F8042DBFF34F8F20
:1041D000BFF36F8F012000E000200190FEF7E4FEA6
:1041E000019803B0BDE8F08F3368002BA1D10A4BD2
:1041F0001A681268002AC4D1084B4FF0FF321A60C7
:10420000C5E7DFF828A0C2E71C530024145300249C
:104210005C53002424530024AC4E0024505300244B
:1042200058530024B44E0024A84E0024A053002468
:1042300030B587B00B9CD4B10C9D7DB14FF4916526
:104240000595059DB5F5916F1AD04FF0500383F396
:104250001188BFF36F8FBFF34F8FFEE74FF050030E
:1042600083F31188BFF36F8FBFF34F8FFEE74FF0DB
:10427000500383F31188BFF36F8FBFF34F8FFEE7B7
:104280000C9D2C63022402950A9D00950C9D85F8D7
:10429000854404AC059D0194FFF77AFD0C98FFF767
:1042A000EFFC049807B030BD2DE9F043074685B018
:1042B0009000154688469946FEF786FFE0B1044611
:1042C0004FF49160FEF780FF0646D0B104630024EE
:1042D0004B462A4686F8854441460D9C3846029650
:1042E00001940C9C0094FFF753FD3046FFF7C8FC87
:1042F000012005B0BDE8F0834FF0FF3005B0BDE808
:10430000F0832046FFF71CF84FF0FF30F1E700BFC5
:10431000F8B550B94FF0E0234FF08052C3F8042DA8
:10432000BFF34F8FBFF36F8FF8BD1E4D2B6843B1A6
:104330004FF0500383F31188BFF36F8FBFF34F8F9C
:10434000FEE72B68044601332B60174B174E1F689E
:1043500030680430FEF784FDE41933685C6015D3DF
:10436000134B186831680431FEF762FD2B6843B9BE
:104370004FF0500383F31188BFF36F8FBFF34F8F5C
:10438000FEE7FFF7BBFE0028C4D0F8BD094B186854
:1043900031680431FEF74CFD074B1A689442E5D2B0
:1043A0001C60E3E71C5300249C530024A84E002407
:1043B000B04E0024AC4E00245053002430B58BB0D6
:1043C000002407AA06A905A8CDE90544FEF7F2FCDA
:1043D000069BDBB1059D85B14FF49161079A099168
:1043E0000999B1F5916F1AD04FF0500383F31188FA
:1043F000BFF36F8FBFF34F8FFEE74FF0500383F390
:104400001188BFF36F8FBFF34F8FFEE74FF050035C
:1044100083F31188BFF36F8FBFF34F8FFEE7022145
:104420002B631E4885F8851408A9099B2346009430
:10443000CDE901151A49FFF7ABFC2846FFF720FC30
:10444000089BEBB100F0D0FB01281BD14FF05003CB
:1044500083F31188BFF36F8FBFF34F8F114B124A55
:104460001B681249583313604FF0FF33104A0B603A
:10447000104B10601C600BB0BDE83040FEF704BE6E
:104480000BB030BD0130FBD14FF0500383F31188E6
:10449000BFF36F8FBFF34F8FFEE700BF0D3F0008E4
:1044A0009CC50008A84E00241C0000245053002482
:1044B000705300249C530024024A13680133136094
:1044C000704700BF1C530024064B1B6843B94FF0D4
:1044D000500383F31188BFF36F8FBFF34F8FFEE755
:1044E000FFF70CBE1C530024014B1868704700BF37
:1044F0009C530024054B1B680BB9FFF757BD044ABA
:104500000020136801331360704700BF1C53002460
:10451000585300241E4B1B681BB11E4B01221A600E
:1045200070471C4A1C4910B41C4C1360236803EBF1
:104530008302980092008A5842B9E3B1013B03EB31
:104540008302980051F82220002AF6D0C21801EB0D
:10455000820041680246496808329142416013D0A6
:104560000F4AC8680F491060236013685DF8044B58
:1045700058330B6070474FF0500383F31188BFF33B
:104580006F8FBFF34F8FFEE749684160E8E700BFD8
:104590001C530024A0530024B44E002424530024B0
:1045A000A84E00241C000024F0B170B51A4D0C4632
:1045B00029681831FEF73CFC184B1E682868043047
:1045C000FEF74EFC631C20D0A4192B685C6014D24B
:1045D000134B186829680431FEF72AFC114B1A683E
:1045E000944200D21C6070BD4FF0500383F31188D9
:1045F000BFF36F8FBFF34F8FFEE70B4B186829682F
:10460000BDE870400431FEF713BC29680748043147
:10461000BDE87040FEF7FCBBA84E00249C5300246C
:10462000AC4E002450530024B04E00247453002498
:1046300058B370B51D4E0C46154631681831FEF75B
:10464000E7FB65B11A4B1B6830680430FEF708FCC5
:10465000316818480431BDE87040FEF7D9BB144BEF
:104660001D6830680430FEF7FBFB641933685C603A
:1046700014D2114B186831680431FEF7D9FB0F4B87
:104680001A68944200D21C6070BD4FF0500383F34F
:104690001188BFF36F8FBFF34F8FFEE7084B186889
:1046A0003168BDE870400431FEF7C2BBA84E00245B
:1046B0009C53002474530024AC4E00245053002417
:1046C000B04E0024C36830B5DC6883B05CB304F13D
:1046D00018052846FEF7C4FB194B1B687BB1294619
:1046E0001848FEF795FB184BE26A1B68DB6A9A4292
:1046F00022D90123154A1846136003B030BD211D8D
:1047000008460191FEF7ACFB114AE36A1068019973
:10471000834200D9136003EB83030E4800EB830050
:10472000FEF776FBDFE74FF0500383F31188BFF30A
:104730006F8FBFF34F8FFEE7002003B030BD00BF87
:104740001C5300245C530024A84E0024A0530024D2
:1047500024530024B44E0024034A044B12681B68FF
:10476000C0E90023704700BF545300249C53002429
:1047700028B3F0B50D4683B0C1B10446FEF7F2FB95
:104780002B681D4A581C116830D0DFF870C02668AD
:10479000DCF800706068BE421AD0884218D8012048
:1047A0000190FEF701FC019803B0F0BD4FF05003FB
:1047B00083F31188BFF36F8FBFF34F8FFEE74FF086
:1047C000500383F31188BFF36F8FBFF34F8FFEE762
:1047D000A1EB000E73450BD95B1ADCF800101268D0
:1047E000034400202B60C4E90012D9E70020D7E77A
:1047F000002301202B60D3E79C5300245453002452
:10480000014B01221A607047A0530024054B1B681E
:1048100033B1054B1B68002B0CBF022000207047F2
:1048200001207047705300241C53002418B31F4B01
:1048300010B51C6882B0844208D04FF0500383F357
:104840001188BFF36F8FBFF34F8FFEE7236D4BB11E
:10485000E16A013BE26C2365914200D06BB100201C
:1048600002B010BD4FF0500383F31188BFF36F8F78
:10487000BFF34F8FFEE700207047211D08460191CE
:10488000FEF7EEFAE06C0A4BC0F138020199E062E3
:10489000A2611A68904200D91860064B00EB8000B4
:1048A00003EB8000FEF7B4FA0120D9E7A84E0024FC
:1048B00024530024B44E00242DE9F043224E85B049
:1048C000DFF88C904FF000080DE0DB68DC681F68B3
:1048D000251D2846FEF7C4FA236A2046984794F817
:1048E00028305B070AD433681A68002AEDD1174ACA
:1048F00011681360316005B0BDE8F083A3692946F3
:104900003B449F4205D2306863602461FEF790FA11
:10491000E9E7D9F800306BB10294CDE90087FFF7E1
:1049200075FF00236946D9F800001A46FEF718FE05
:104930000028D8D14FF0500383F31188BFF36F8F55
:10494000BFF34F8FFEE700BFA4530024A8530024F9
:10495000C85400242DE9F04F9F4E89B09F4D4FF071
:10496000E0299F4C33681F68002F00F0B280DB689D
:104970001F68FFF7A1FDFFF7B7FD2A688246904246
:10498000C0F0AF808742286000F2D080FFF79CFD26
:104990003268D268D2F80CB00BF104084046FEF73A
:1049A0005FFA9BF82800410700F1D08020F0010059
:1049B0008BF82800DBF820305846984700226946DB
:1049C0002068FEF74FFF0028CCD0009B002B77DB40
:1049D000029F7B6913B1381DFEF742FAFFF784FD91
:1049E0002B6880469842C0F08380009BC5F8008009
:1049F000092BE3D8DFE803F0050505543E5B050508
:104A0000543E97F82830BA6943F001033F6187F8B4
:104A10002830019B99182CBF012000204145796066
:104A200000F28680A8EB03039A4200F2C0803B6A42
:104A30003846984797F828305B07BFD5236883B17D
:104A40000022BB6906970492019A13440593FFF76D
:104A5000DDFE002304A920681A46FEF781FD002828
:104A6000ACD14FF0500383F31188BFF36F8FBFF3C6
:104A70004F8FFEE797F8283043F0010387F828307E
:104A8000019BBB61002B00F09E804344391D3F61B8
:104A900043457B6056D8534B1868FEF7C9F98DE73C
:104AA00097F8283023F0010387F8283086E797F835
:104AB00028309A0772D523F0010387F828307DE764
:104AC000019BDDE902019847009B002BFFF676AFC2
:104AD0007EE7FFF7F1FCFFF707FD2A688246824276
:104AE00009D9FFF7E9FEC5F800A0FFF7EDFC65E77F
:104AF000FFF7E2FE79E73B4BC5F800A01A681268A1
:104B0000B2FA82F25209A7EB0A012068FFF754F8C3
:104B1000FFF7DAFC00287FF451AF4FF08053C9F85B
:104B2000043DBFF34F8FBFF36F8F47E70022EAE7E3
:104B3000434502D900283FF47AAF391D3068FEF7AB
:104B400077F93BE73068FEF773F937E7DBF81820B1
:104B5000CBF810B0B8188245CBF8040022D3AAEBEA
:104B600007039A4229D823687BB100230597CDF823
:104B700018B00493FFF74AFE002304A920681A46E0
:104B8000FEF7EEFC00287FF415AF4FF0500383F3DF
:104B90001188BFF36F8FBFF34F8FFEE73846FEF7E4
:104BA000CFFB0BE741463068FEF742F902E70D4BB9
:104BB000391D1868FEF73CF900E70A4B41461868B2
:104BC000FEF736F9F6E64FF0500383F31188BFF392
:104BD0006F8FBFF34F8FFEE7A4530024745400245B
:104BE000C8540024A8530024F0B5234C89B0FEF724
:104BF000B9F9256835B3FEF7D7F92368CBB100249E
:104C000007AA06A905A80225CDE90544FEF7E0F8A4
:104C10002346079A0095DDE90501CDE90110174902
:104C20001748FFF705FB174B186010B1012009B0BA
:104C3000F0BD4FF0500383F31188BFF36F8FBFF3C4
:104C40004F8FFEE7104F114E3846FEF7D1F8304631
:104C5000FEF7CEF80E4A0095102117600A200D4A83
:104C60000D4B16600D4AFEF70FFC20600028C2D0E5
:104C70000B49FEF779FFBEE7C8540024ACC5000815
:104C800055490008CC5400244C540024605400249E
:104C9000A4530024A853002478540024AC530024C7
:104CA000A4C5000810B50320124C00F04FF800F026
:104CB00011FE114B11499A699B69C2F3032203F05B
:104CC0000F038A5CCB5C02F01F020D4903F01F0347
:104CD000D04020FA03F308600F202360FCF7A6FA07
:104CE00010B10124204610BD0446FDF767FE2046A2
:104CF00010BD00BF180000240044025828C6000858
:104D000014000024034A044B11681B780B44136001
:104D1000704700BFD05400240C000024014B1868D9
:104D2000704700BFD054002438B50446FFF7F6FFA3
:104D30000546631C02D0044B1B781C44FFF7EEFFB2
:104D4000431BA342FAD338BD0C00002406494FF69A
:104D5000FF0C0002054BCA6800F4E06002EA0C0296
:104D600010430343CB60704700ED00E00000FA05FC
:104D70001B4BDB68C3F3022300B5C3F1070E03F13D
:104D8000040CBEF1040F28BF4FF0040EBCF1060F57
:104D90001AD9033B4FF0FF3C0CFA03FC22EA0C0249
:104DA0004FF0FF3C00280CFA0EFC21EA0C0101FA3E
:104DB00003F141EA02010ADB09010A4BC9B20344CB
:104DC00083F800135DF804FB00221346E8E700F0C7
:104DD0000F000901044BC9B2034419765DF804FBC6
:104DE00000ED00E000E100E0FCEC00E0002807DB63
:104DF000012300F01F01034A40098B4042F8203094
:104E0000704700BF00E100E0002854D038B590F8AA
:104E100021300446002B3ED00222236884F8212052
:104E20001A69002A35D09A68002A32D06268002AAE
:104E300034D0A268B2F5801F2BD11A6842F4001258
:104E40001A601A6842F480121A601968A56921F084
:104E5000FE41D4E9040241EA026119601A68E1687E
:104E600022F4702202431A601868144A20F4706019
:104E7000084318605969E06989B241EA05415961FE
:104E800059690A400121024300205A6184F8211027
:104E900038BD012038BDFCF7B1F9BDE71A68A1683B
:104EA00022F40012B1F5801F1A60CAD01A6822F4E9
:104EB00080121A60C9E70120704700BF0000FFFFA1
:104EC00078B338B590F821300446012B01D0022088
:104ED00038BD0268022380F82130136843F00103D3
:104EE0001360FFF71BFF054604E0FFF717FF431BA6
:104EF000012B14D823681A6A1204F6D51A6812F422
:104F0000706F04D00123002084F8213038BD1A6866
:104F1000052042F010021A60FFF706FFF2E70320B7
:104F200038BD0120704700BFF8B590F82130012B43
:104F300030D10222DEB20368044680F821200269E3
:104F4000DD69ADB20AB305B380680F46B0F5801FC6
:104F500023D1120CED03B5FBF2F59A68120C27D0A1
:104F6000012A12D182209A681B699BB26BB192B25E
:104F7000642606FB1255002695FBF3F50123054434
:104F800030463D6084F82130F8BD0123304684F876
:104F90002130F8BD02263046F8BD01F005FE638AD7
:104FA00003FB00F023689A68120CB0FBF5F5D7D12B
:104FB0001E20D8E72DE9F04F0C6883B0002C00F0DC
:104FC000A2804FF0000C894F634601229A4012EAFA
:104FD000040E00F091804D6805F0030909F1FF36D9
:104FE000012E40F29380B9F1030F40F0CD8009FA11
:104FF0000CF26FEA0208066815F4403F06EA08085A
:1050000042EA0802026077D0D7F8F42023F00308C0
:1050100003F0030942F0020208F1B0484FEA89099F
:10502000C7F8F42008F58068D7F8F42002F00202EF
:105030000192019A0F22D8F8086002FA09F226EAD2
:1050400002026B4EB04225D006F58066B04200F0F9
:10505000A880684EB04200F0AA80674EB04200F0CF
:105060009A80664EB04200F0AE80654EB04200F0CD
:10507000B080644EB04200F0A080634EB04200F0B9
:10508000AE80624EB0420CBF09260A2606FA09F924
:1050900042EA0902C8F808204FF0B042EE026FEA77
:1050A0000E0812684FF0B04654BF08EA02024EEAFA
:1050B00002023260AA0276684FF0B04254BF08EA9A
:1050C00006064EEA06065660D2F88460AA034FF040
:1050D000B04254BF08EA06064EEA0606ED034FF05A
:1050E000B045C2F88460D2F8802054BF08EA0202BA
:1050F0004EEA0202C5F8802001330CF1020C34FAAA
:1051000003F27FF462AF03B0BDE8F08F4FF0030805
:10511000866808FA0CF826EA080ACE686FEA0808DA
:1051200006FA0CF646EA0A068660C5F30016D0F8C1
:1051300004A09E402AEA020232434260C268B9F1EA
:10514000020F8E6802EA080206FA0CF646EA020628
:1051500009FA0CF2C6607FF44EAF03F007064FEA7F
:10516000D3094FEA860B0F2600EB890906FA0BF6E6
:10517000D9F820A02AEA060A0E6906FA0BF646EAD2
:105180000A06C9F8206036E74FF0030808FA0CF861
:105190006FEA0808D2E7032606FA09F942EA09028B
:1051A00078E7012606FA09F942EA090272E70226BF
:1051B00006FA09F942EA09026CE7062606FA09F935
:1051C00042EA090266E7042606FA09F942EA0902F8
:1051D00060E7052606FA09F942EA09025AE70726B6
:1051E00006FA09F942EA090254E700BF00440258EE
:1051F0000000025800080258000C02580010025823
:105200000014025800180258001C025800240258CA
:1052100002B9090481617047436901EA030221EA86
:10522000030141EA02418161704700BF38B5104C6B
:10523000E36813F0040FE36805D103F00703181ABD
:1052400018BF012038BD23F007031843E060FFF7C3
:1052500065FD054605E0FFF761FD401BB0F57A7F6F
:1052600004D863689B04F6D5002038BD012038BD02
:10527000004802583B4B30B49A6A9C6ADD6A14F4C9
:105280007C7F596BC4F3051038D0C1F3CC0105F015
:10529000010502F0030205FB01F1012A07EE901A55
:1052A000B8EEE77A02D0022A4ED04AB307EE900A4F
:1052B000DFED2D6AF8EEE77A1B6B86EEA76ADFED6D
:1052C0002B5AC3F3080306EE903AB7EE005AF8EEF5
:1052D000E66A76EE856AE7EE256A66EE266A214B77
:1052E0001B6BC3F34623013307EE903AB8EEE77A1F
:1052F000C6EE877AFCEEE77A17EE900A30BC70476C
:105300001A68920627D5196807EE900A184AB7EE70
:10531000006A1B6BC1F3C101F8EEE77A9FED135AE7
:10532000C3F30803CA4006EE903A05EE902AF8EE61
:10533000E66AF8EEE55A76EE866A85EEA76AE7EE4B
:10534000056A66EE266ACAE707EE900ADFED096A8B
:10535000F8EEE77AB0E707EE900ADFED076AF8EEBD
:10536000E77AA9E7004402580024744A0000003993
:105370000090D00320BCBE4B0024744C002800F0E9
:10538000BD81F8B503680446D9072ED593490A694B
:10539000896A02F03802102A00F0F080182A00F022
:1053A000E8806368B3F5803F00F00881002B00F0CF
:1053B0004681B3F5A02F894B1A6800F0548222F47D
:1053C00080321A601A6822F480221A60FFF7A6FC65
:1053D000824E054605E0FFF7A1FC401B642800F261
:1053E0002C8133689B03F6D523689D077ED4D906AC
:1053F00028D57A490A69896A02F03802082A00F039
:10540000CD80182A00F0C580E369744D002B00F0B0
:105410004E812B6843F080032B60FFF77FFC06462C
:1054200005E0FFF77BFC801B022800F206812B6859
:10543000DB05F6D5EB68226A23F07C5343EA02636E
:10544000EB6023681D0716D56369644D002B00F0DF
:105450000C816B6F43F001036B67FFF75FFC06463F
:1054600005E0FFF75BFC801B022800F2E6806B6F13
:105470009807F6D523689A0616D5A369574D002BD1
:1054800000F004812B6843F480532B60FFF746FC47
:10549000064605E0FFF742FC801B022800F2CD80A3
:1054A0002B689F04F6D52368590700F18D80606A48
:1054B000D0B14A4D2B6903F03803182B00F08581D9
:1054C0002B68022823F080732B6000F01981FFF70E
:1054D00025FC044605E0FFF721FC001B022800F232
:1054E000AC802B689B01F6D40020F8BD3B4A1369C1
:1054F000926A13F0380322D1384BE2681B685907CF
:1055000001D5002A43D0354D2B6823F019031343EE
:105510002B60FFF703FC064605E0FFF7FFFB801B4F
:10552000022800F28A802B685B07F6D56B68226937
:1055300023F0FE4343EA02636B60236857E7182BAE
:1055400000F0D880254DE2682B68002A00F0C18069
:1055500023F0190313432B60FFF7E0FB064604E03A
:10556000FFF7DCFB801B022867D82B685F07F7D5A5
:10557000DCE701F0030102297FF413AF174A126838
:1055800092037FF532AF6268002A7FF42EAF0120CC
:10559000F8BD01F0030101297FF436AF0F4A12680C
:1055A000D20502D5E269802AF1D10C49206ACA6885
:1055B00022F07C5242EA0062CA6043E7074A13685D
:1055C00043F48033136001E7054D2B6843F4807387
:1055D0002B60FFF7A3FB064609E000BF004402581A
:1055E00000480258FFF79AFB801B642825D82B68D7
:1055F000DA05F7D5A368012B00F05C81002B00F0E1
:105600003A81052BA84B1A6F00F05A8122F0010253
:105610001A671A6F22F004021A67FFF77FFBA24E87
:1056200041F28837054604E0FFF778FB401BB8429B
:1056300003D8336F9B07F7D539E70320F8BD9A4DA0
:105640002B6823F480332B602B6823F480232B609A
:10565000FFF764FB064604E0FFF760FB801B64284D
:10566000EBD82B689F03F7D4BEE66B6F23F00103E2
:105670006B67FFF753FB064604E0FFF74FFB801B09
:105680000228DAD86B6F9907F7D4F3E62B6823F476
:1056900080532B60FFF742FB064604E0FFF73EFB1A
:1056A000801B0228C9D82B689804F7D4FBE62B6826
:1056B00023F080032B60FFF731FB064604E0FFF781
:1056C0002DFB801B0228B8D82B68DF05F7D4236890
:1056D000B8E623F001032B60FFF720FB064604E049
:1056E000FFF71CFB801B0228A7D82B685807F7D4AC
:1056F00023687CE690077FF425AFFDE60120704724
:10570000FFF70CFB064604E0FFF708FB801B0228AE
:1057100093D82B689901F7D4A96A644BA26A0B400D
:105720006349614E1343E26A43EA0213AB62D4E970
:105730000D32013B013A5B0212049BB202F4FE02FD
:105740001343226B013AC2F308021343E26B013A9E
:10575000120602F0FE4213432B63EB6A23F00103AF
:10576000EB626A6BA36C114041EAC3016963EB6AA7
:10577000226C23F00C031343EB62EB6A626C23F0A0
:1057800002031343EB62EB6A43F48033EB62EB6A90
:1057900043F40033EB62EB6A43F48023EB62EB6A81
:1057A00043F00103EB622B6843F080732B60FFF73B
:1057B000B5FA044605E0FFF7B1FA001B02283FF6F0
:1057C0003CAF33689A01F6D58EE60128AA6A2E6BA3
:1057D0003FF48BAE02F00303A16A8B427FF4D7AE95
:1057E000C2F30512E36A9A427FF4D1AE236BC6F38B
:1057F0000802013B9A427FF4CAAE636BC6F34622AD
:10580000013B9A427FF4C3AEA36BC6F30642013B51
:105810009A427FF4BCAEE36BC6F30666013B9E4240
:105820007FF4B5AE6B6BA26CC3F3CC039A423FF42A
:105830005BAE1D4AD36A23F00103D362FFF76EFA11
:105840000546FFF76BFAA842FBD0174A0020A16C6F
:10585000174B546B234043EAC1035363D36A43F0AD
:105860000103D362F8BD42F480221A601A6842F440
:1058700080321A60AAE50C4D41F288372B6F23F075
:1058800001032B672B6F23F004032B67FFF746FA06
:10589000064605E0FFF742FA801BB8423FF6CDAE60
:1058A0002B6F9807F6D402E6004402580CFCFFFF69
:1058B0000700FFFF064A136F43F001031367ACE6CE
:1058C00042F004021A671A6F42F001021A67A4E656
:1058D00000440258474A136903F03803102B04D0E0
:1058E000182B0DD01BB144487047444870471368CB
:1058F00099064AD513684248C3F3C103D84070479C
:10590000936A30B4946AD56A14F47C7F516BC4F303
:10591000051038D0C1F3CC0105F0010503F00303F5
:1059200005FB01F1012B07EE901AB8EEE77A02D0E1
:10593000022B2CD093B307EE900ADFED326AF8EE1B
:10594000E77A136B86EEA76ADFED2F5AC3F30803DD
:1059500006EE903AB7EE005AF8EEE66A76EE856A01
:10596000E7EE256A66EE266A224B1B6BC3F34623DD
:10597000013307EE903AB8EEE77AC6EE877AFCEE8E
:10598000E77A17EE900A30BC70471D48704707EE63
:10599000900ADFED1E6AF8EEE77AD2E713689B06FD
:1059A00020D5146807EE900A1549B7EE006A136B0C
:1059B000C4F3C104F8EEE77A9FED135AC3F308036A
:1059C000E14006EE903A05EE901AF8EEE66AF8EE3F
:1059D000E55A76EE866A85EEA76AE7EE056A66EE18
:1059E000266AC1E707EE900ADFED096AF8EEE77A6A
:1059F000A7E700BF0044025800093D0040787D0140
:105A00000090D0030024744A0000003920BCBE4B33
:105A10000024744C002800F00C818C4A136803F0B9
:105A20000F038B422DE9F04104460D460CD213685A
:105A300023F00F030B431360136803F00F038B4233
:105A400002D00120BDE8F08123685F070BD58049B3
:105A500020698A6902F07002904204D98A6922F0B2
:105A6000700202438A611E070BD579496069CA69D1
:105A700002F07002904204D9CA6922F07002024317
:105A8000CA61D8060BD57249A069CA6902F4E062FE
:105A9000904204D9CA6922F4E0620243CA619906BD
:105AA0000BD56B49E0690A6A02F07002904204D992
:105AB0000A6A22F0700202430A629A0740F1AB8040
:105AC0006348E168826902F00F02914204D9826959
:105AD00022F00F020A438261D80730D55C4AA168E0
